{
  "_format": "hh-sol-artifact-1",
  "contractName": "Staking",
  "sourceName": "contracts/Staking.sol",
  "abi": [
    {
      "inputs": [
        {
          "internalType": "uint256",
          "name": "_start",
          "type": "uint256"
        },
        {
          "internalType": "uint256",
          "name": "_end",
          "type": "uint256"
        },
        {
          "internalType": "uint256",
          "name": "_rewardsMax",
          "type": "uint256"
        },
        {
          "internalType": "address",
          "name": "_stableCoin",
          "type": "address"
        },
        {
          "internalType": "address",
          "name": "_factory",
          "type": "address"
        },
        {
          "internalType": "uint256",
          "name": "_tokenPrice",
          "type": "uint256"
        },
        {
          "internalType": "uint256",
          "name": "_talentPrice",
          "type": "uint256"
        }
      ],
      "stateMutability": "nonpayable",
      "type": "constructor"
    },
    {
      "anonymous": false,
      "inputs": [
        {
          "indexed": true,
          "internalType": "address",
          "name": "owner",
          "type": "address"
        },
        {
          "indexed": true,
          "internalType": "address",
          "name": "talentToken",
          "type": "address"
        },
        {
          "indexed": false,
          "internalType": "uint256",
          "name": "stakerReward",
          "type": "uint256"
        },
        {
          "indexed": false,
          "internalType": "uint256",
          "name": "talentReward",
          "type": "uint256"
        }
      ],
      "name": "RewardClaim",
      "type": "event"
    },
    {
      "anonymous": false,
      "inputs": [
        {
          "indexed": true,
          "internalType": "address",
          "name": "owner",
          "type": "address"
        },
        {
          "indexed": true,
          "internalType": "address",
          "name": "talentToken",
          "type": "address"
        },
        {
          "indexed": false,
          "internalType": "uint256",
          "name": "stakerReward",
          "type": "uint256"
        },
        {
          "indexed": false,
          "internalType": "uint256",
          "name": "talentReward",
          "type": "uint256"
        }
      ],
      "name": "RewardWithdrawal",
      "type": "event"
    },
    {
      "anonymous": false,
      "inputs": [
        {
          "indexed": true,
          "internalType": "bytes32",
          "name": "role",
          "type": "bytes32"
        },
        {
          "indexed": true,
          "internalType": "bytes32",
          "name": "previousAdminRole",
          "type": "bytes32"
        },
        {
          "indexed": true,
          "internalType": "bytes32",
          "name": "newAdminRole",
          "type": "bytes32"
        }
      ],
      "name": "RoleAdminChanged",
      "type": "event"
    },
    {
      "anonymous": false,
      "inputs": [
        {
          "indexed": true,
          "internalType": "bytes32",
          "name": "role",
          "type": "bytes32"
        },
        {
          "indexed": true,
          "internalType": "address",
          "name": "account",
          "type": "address"
        },
        {
          "indexed": true,
          "internalType": "address",
          "name": "sender",
          "type": "address"
        }
      ],
      "name": "RoleGranted",
      "type": "event"
    },
    {
      "anonymous": false,
      "inputs": [
        {
          "indexed": true,
          "internalType": "bytes32",
          "name": "role",
          "type": "bytes32"
        },
        {
          "indexed": true,
          "internalType": "address",
          "name": "account",
          "type": "address"
        },
        {
          "indexed": true,
          "internalType": "address",
          "name": "sender",
          "type": "address"
        }
      ],
      "name": "RoleRevoked",
      "type": "event"
    },
    {
      "anonymous": false,
      "inputs": [
        {
          "indexed": true,
          "internalType": "address",
          "name": "owner",
          "type": "address"
        },
        {
          "indexed": true,
          "internalType": "address",
          "name": "talentToken",
          "type": "address"
        },
        {
          "indexed": false,
          "internalType": "uint256",
          "name": "talAmount",
          "type": "uint256"
        },
        {
          "indexed": false,
          "internalType": "bool",
          "name": "stable",
          "type": "bool"
        }
      ],
      "name": "Stake",
      "type": "event"
    },
    {
      "anonymous": false,
      "inputs": [
        {
          "indexed": true,
          "internalType": "address",
          "name": "talentToken",
          "type": "address"
        },
        {
          "indexed": true,
          "internalType": "address",
          "name": "talentTokenWallet",
          "type": "address"
        },
        {
          "indexed": false,
          "internalType": "uint256",
          "name": "reward",
          "type": "uint256"
        }
      ],
      "name": "TalentRewardWithdrawal",
      "type": "event"
    },
    {
      "anonymous": false,
      "inputs": [
        {
          "indexed": true,
          "internalType": "address",
          "name": "owner",
          "type": "address"
        },
        {
          "indexed": true,
          "internalType": "address",
          "name": "talentToken",
          "type": "address"
        },
        {
          "indexed": false,
          "internalType": "uint256",
          "name": "talAmount",
          "type": "uint256"
        }
      ],
      "name": "Unstake",
      "type": "event"
    },
    {
      "inputs": [],
      "name": "DEFAULT_ADMIN_ROLE",
      "outputs": [
        {
          "internalType": "bytes32",
          "name": "",
          "type": "bytes32"
        }
      ],
      "stateMutability": "view",
      "type": "function"
    },
    {
      "inputs": [
        {
          "internalType": "address",
          "name": "_talent",
          "type": "address"
        }
      ],
      "name": "claimRewards",
      "outputs": [
        {
          "internalType": "bool",
          "name": "",
          "type": "bool"
        }
      ],
      "stateMutability": "nonpayable",
      "type": "function"
    },
    {
      "inputs": [
        {
          "internalType": "uint256",
          "name": "_talent",
          "type": "uint256"
        }
      ],
      "name": "convertTalentToToken",
      "outputs": [
        {
          "internalType": "uint256",
          "name": "",
          "type": "uint256"
        }
      ],
      "stateMutability": "view",
      "type": "function"
    },
    {
      "inputs": [
        {
          "internalType": "uint256",
          "name": "_tal",
          "type": "uint256"
        }
      ],
      "name": "convertTokenToTalent",
      "outputs": [
        {
          "internalType": "uint256",
          "name": "",
          "type": "uint256"
        }
      ],
      "stateMutability": "view",
      "type": "function"
    },
    {
      "inputs": [
        {
          "internalType": "uint256",
          "name": "_usd",
          "type": "uint256"
        }
      ],
      "name": "convertUsdToTalent",
      "outputs": [
        {
          "internalType": "uint256",
          "name": "",
          "type": "uint256"
        }
      ],
      "stateMutability": "view",
      "type": "function"
    },
    {
      "inputs": [
        {
          "internalType": "uint256",
          "name": "_usd",
          "type": "uint256"
        }
      ],
      "name": "convertUsdToToken",
      "outputs": [
        {
          "internalType": "uint256",
          "name": "",
          "type": "uint256"
        }
      ],
      "stateMutability": "view",
      "type": "function"
    },
    {
      "inputs": [],
      "name": "end",
      "outputs": [
        {
          "internalType": "uint256",
          "name": "",
          "type": "uint256"
        }
      ],
      "stateMutability": "view",
      "type": "function"
    },
    {
      "inputs": [],
      "name": "factory",
      "outputs": [
        {
          "internalType": "address",
          "name": "",
          "type": "address"
        }
      ],
      "stateMutability": "view",
      "type": "function"
    },
    {
      "inputs": [
        {
          "internalType": "bytes32",
          "name": "role",
          "type": "bytes32"
        }
      ],
      "name": "getRoleAdmin",
      "outputs": [
        {
          "internalType": "bytes32",
          "name": "",
          "type": "bytes32"
        }
      ],
      "stateMutability": "view",
      "type": "function"
    },
    {
      "inputs": [
        {
          "internalType": "bytes32",
          "name": "role",
          "type": "bytes32"
        },
        {
          "internalType": "address",
          "name": "account",
          "type": "address"
        }
      ],
      "name": "grantRole",
      "outputs": [],
      "stateMutability": "nonpayable",
      "type": "function"
    },
    {
      "inputs": [
        {
          "internalType": "bytes32",
          "name": "role",
          "type": "bytes32"
        },
        {
          "internalType": "address",
          "name": "account",
          "type": "address"
        }
      ],
      "name": "hasRole",
      "outputs": [
        {
          "internalType": "bool",
          "name": "",
          "type": "bool"
        }
      ],
      "stateMutability": "view",
      "type": "function"
    },
    {
      "inputs": [
        {
          "internalType": "address",
          "name": "",
          "type": "address"
        },
        {
          "internalType": "address",
          "name": "_sender",
          "type": "address"
        },
        {
          "internalType": "uint256",
          "name": "_amount",
          "type": "uint256"
        },
        {
          "internalType": "bytes",
          "name": "data",
          "type": "bytes"
        }
      ],
      "name": "onTransferReceived",
      "outputs": [
        {
          "internalType": "bytes4",
          "name": "",
          "type": "bytes4"
        }
      ],
      "stateMutability": "nonpayable",
      "type": "function"
    },
    {
      "inputs": [
        {
          "internalType": "bytes32",
          "name": "role",
          "type": "bytes32"
        },
        {
          "internalType": "address",
          "name": "account",
          "type": "address"
        }
      ],
      "name": "renounceRole",
      "outputs": [],
      "stateMutability": "nonpayable",
      "type": "function"
    },
    {
      "inputs": [
        {
          "internalType": "bytes32",
          "name": "role",
          "type": "bytes32"
        },
        {
          "internalType": "address",
          "name": "account",
          "type": "address"
        }
      ],
      "name": "revokeRole",
      "outputs": [],
      "stateMutability": "nonpayable",
      "type": "function"
    },
    {
      "inputs": [],
      "name": "rewardsGiven",
      "outputs": [
        {
          "internalType": "uint256",
          "name": "",
          "type": "uint256"
        }
      ],
      "stateMutability": "view",
      "type": "function"
    },
    {
      "inputs": [],
      "name": "rewardsLeft",
      "outputs": [
        {
          "internalType": "uint256",
          "name": "",
          "type": "uint256"
        }
      ],
      "stateMutability": "view",
      "type": "function"
    },
    {
      "inputs": [],
      "name": "rewardsMax",
      "outputs": [
        {
          "internalType": "uint256",
          "name": "",
          "type": "uint256"
        }
      ],
      "stateMutability": "view",
      "type": "function"
    },
    {
      "inputs": [
        {
          "internalType": "address",
          "name": "_token",
          "type": "address"
        }
      ],
      "name": "setToken",
      "outputs": [],
      "stateMutability": "nonpayable",
      "type": "function"
    },
    {
      "inputs": [],
      "name": "stableCoin",
      "outputs": [
        {
          "internalType": "address",
          "name": "",
          "type": "address"
        }
      ],
      "stateMutability": "view",
      "type": "function"
    },
    {
      "inputs": [],
      "name": "stableCoinBalance",
      "outputs": [
        {
          "internalType": "uint256",
          "name": "",
          "type": "uint256"
        }
      ],
      "stateMutability": "view",
      "type": "function"
    },
    {
      "inputs": [
        {
          "internalType": "address",
          "name": "_talent",
          "type": "address"
        }
      ],
      "name": "stakeAvailability",
      "outputs": [
        {
          "internalType": "uint256",
          "name": "",
          "type": "uint256"
        }
      ],
      "stateMutability": "view",
      "type": "function"
    },
    {
      "inputs": [
        {
          "internalType": "address",
          "name": "_talent",
          "type": "address"
        },
        {
          "internalType": "uint256",
          "name": "_amount",
          "type": "uint256"
        }
      ],
      "name": "stakeStable",
      "outputs": [
        {
          "internalType": "bool",
          "name": "",
          "type": "bool"
        }
      ],
      "stateMutability": "nonpayable",
      "type": "function"
    },
    {
      "inputs": [
        {
          "internalType": "address",
          "name": "",
          "type": "address"
        },
        {
          "internalType": "address",
          "name": "",
          "type": "address"
        }
      ],
      "name": "stakes",
      "outputs": [
        {
          "internalType": "uint256",
          "name": "tokenAmount",
          "type": "uint256"
        },
        {
          "internalType": "uint256",
          "name": "talentAmount",
          "type": "uint256"
        },
        {
          "internalType": "uint256",
          "name": "lastCheckpointAt",
          "type": "uint256"
        }
      ],
      "stateMutability": "view",
      "type": "function"
    },
    {
      "inputs": [],
      "name": "start",
      "outputs": [
        {
          "internalType": "uint256",
          "name": "",
          "type": "uint256"
        }
      ],
      "stateMutability": "view",
      "type": "function"
    },
    {
      "inputs": [
        {
          "internalType": "bytes4",
          "name": "interfaceId",
          "type": "bytes4"
        }
      ],
      "name": "supportsInterface",
      "outputs": [
        {
          "internalType": "bool",
          "name": "",
          "type": "bool"
        }
      ],
      "stateMutability": "view",
      "type": "function"
    },
    {
      "inputs": [
        {
          "internalType": "uint256",
          "name": "_stableAmount",
          "type": "uint256"
        }
      ],
      "name": "swapStableForToken",
      "outputs": [],
      "stateMutability": "nonpayable",
      "type": "function"
    },
    {
      "inputs": [],
      "name": "talentPrice",
      "outputs": [
        {
          "internalType": "uint256",
          "name": "",
          "type": "uint256"
        }
      ],
      "stateMutability": "view",
      "type": "function"
    },
    {
      "inputs": [
        {
          "internalType": "address",
          "name": "",
          "type": "address"
        }
      ],
      "name": "talentRedeemableRewards",
      "outputs": [
        {
          "internalType": "uint256",
          "name": "",
          "type": "uint256"
        }
      ],
      "stateMutability": "view",
      "type": "function"
    },
    {
      "inputs": [],
      "name": "token",
      "outputs": [
        {
          "internalType": "address",
          "name": "",
          "type": "address"
        }
      ],
      "stateMutability": "view",
      "type": "function"
    },
    {
      "inputs": [],
      "name": "tokenBalance",
      "outputs": [
        {
          "internalType": "uint256",
          "name": "",
          "type": "uint256"
        }
      ],
      "stateMutability": "view",
      "type": "function"
    },
    {
      "inputs": [],
      "name": "tokenPrice",
      "outputs": [
        {
          "internalType": "uint256",
          "name": "",
          "type": "uint256"
        }
      ],
      "stateMutability": "view",
      "type": "function"
    },
    {
      "inputs": [],
      "name": "totalAdjustedShares",
      "outputs": [
        {
          "internalType": "uint256",
          "name": "",
          "type": "uint256"
        }
      ],
      "stateMutability": "view",
      "type": "function"
    },
    {
      "inputs": [],
      "name": "totalShares",
      "outputs": [
        {
          "internalType": "uint256",
          "name": "",
          "type": "uint256"
        }
      ],
      "stateMutability": "view",
      "type": "function"
    },
    {
      "inputs": [],
      "name": "totalStableStored",
      "outputs": [
        {
          "internalType": "uint256",
          "name": "",
          "type": "uint256"
        }
      ],
      "stateMutability": "view",
      "type": "function"
    },
    {
      "inputs": [],
      "name": "totalTokensStaked",
      "outputs": [
        {
          "internalType": "uint256",
          "name": "",
          "type": "uint256"
        }
      ],
      "stateMutability": "view",
      "type": "function"
    },
    {
      "inputs": [
        {
          "internalType": "address",
          "name": "_talent",
          "type": "address"
        }
      ],
      "name": "withdrawRewards",
      "outputs": [
        {
          "internalType": "bool",
          "name": "",
          "type": "bool"
        }
      ],
      "stateMutability": "nonpayable",
      "type": "function"
    },
    {
      "inputs": [
        {
          "internalType": "address",
          "name": "_talent",
          "type": "address"
        }
      ],
      "name": "withdrawTalentRewards",
      "outputs": [
        {
          "internalType": "bool",
          "name": "",
          "type": "bool"
        }
      ],
      "stateMutability": "nonpayable",
      "type": "function"
    }
  ],
  "bytecode": "0x6101006040523480156200001257600080fd5b506040516200466e3803806200466e833981016040819052620000359162000268565b836001600160a01b0381166200009c5760405162461bcd60e51b815260206004820152602160248201527f737461626c652d636f696e2061646472657373206d7573742062652076616c696044820152601960fa1b60648201526084015b60405180910390fd5b60601b6001600160601b03191660805281620000fb5760405162461bcd60e51b815260206004820152601760248201527f5f746f6b656e50726963652063616e6e6f742062652030000000000000000000604482015260640162000093565b600081116200014d5760405162461bcd60e51b815260206004820152601860248201527f5f74616c656e7450726963652063616e6e6f7420626520300000000000000000604482015260640162000093565b60c087905260e086905260a0859052600480546001600160a01b0319166001600160a01b038516179055600582905560068190556200018e6000336200019b565b50505050505050620002d0565b620001a78282620001ab565b5050565b6000828152602081815260408083206001600160a01b038516845290915290205460ff16620001a7576000828152602081815260408083206001600160a01b03851684529091529020805460ff19166001179055620002073390565b6001600160a01b0316816001600160a01b0316837f2f8788117e7eff1d82e926ec794901d17c78024a50270940304540a733656f0d60405160405180910390a45050565b80516001600160a01b03811681146200026357600080fd5b919050565b600080600080600080600060e0888a0312156200028457600080fd5b875196506020880151955060408801519450620002a4606089016200024b565b9350620002b4608089016200024b565b925060a0880151915060c0880151905092959891949750929550565b60805160601c60a05160c05160e0516143226200034c600039600081816105b801528181611048015261138701526000818161051e01528181610fd80152611317015260008181610558015261185e01526000818161045201528181610f3a015281816114f7015281816116a601526118ad01526143226000f3fe608060405234801561001057600080fd5b50600436106102775760003560e01c806388a7ca5c11610160578063b0e31b2d116100d8578063d4ce57891161008c578063ef5cfb8c11610071578063ef5cfb8c146105a0578063efbe1c1c146105b3578063fc0c546a146105da57600080fd5b8063d4ce57891461057a578063d547741f1461058d57600080fd5b8063be9a6555116100bd578063be9a655514610519578063c45a015514610540578063d19905381461055357600080fd5b8063b0e31b2d14610508578063b435842c1461051157600080fd5b80639e1a4d191161012f578063a4e47b6611610114578063a4e47b661461049c578063a8bc58f2146104ed578063aef2200d146104f557600080fd5b80639e1a4d191461048c578063a217fddf1461049457600080fd5b806388a7ca5c146103d757806391d1485414610403578063977bee8e1461043a578063992642e51461044d57600080fd5b80633b039b9e116101f357806343f49d89116101c257806371f19f94116101a757806371f19f94146103a85780637eefc525146103bb5780637ff9b596146103ce57600080fd5b806343f49d891461038c5780636a0675cf1461039f57600080fd5b80633b039b9e146103335780633dbf35631461034657806342c0e5ef1461036657806342d866931461037957600080fd5b8063248a9ca31161024a5780632f2ff15d1161022f5780632f2ff15d1461030557806336568abe146103185780633a98ef391461032b57600080fd5b8063248a9ca3146102d957806325b58c87146102fc57600080fd5b806301ffc9a71461027c578063144fa6d7146102a45780631ea18fc5146102b957806322b3a6a1146102d0575b600080fd5b61028f61028a366004613d8f565b6105ed565b60405190151581526020015b60405180910390f35b6102b76102b2366004613bf1565b61063d565b005b6102c260065481565b60405190815260200161029b565b6102c260095481565b6102c26102e7366004613d51565b60009081526020819052604090206001015490565b6102c260075481565b6102b7610313366004613d6a565b6108af565b6102b7610326366004613d6a565b6108da565b6008546102c2565b61028f610341366004613bf1565b610966565b6102c2610354366004613bf1565b60036020526000908152604090205481565b6102c2610374366004613d51565b610b71565b61028f610387366004613bf1565b610b93565b6102c261039a366004613bf1565b610cbf565b6102c2600a5481565b6102b76103b6366004613d51565b610d9b565b6102c26103c9366004613d51565b610fc4565b6102c260055481565b6103ea6103e5366004613c64565b610fd4565b6040516001600160e01b0319909116815260200161029b565b61028f610411366004613d6a565b6000918252602082815260408084206001600160a01b0393909316845291905290205460ff1690565b61028f610448366004613d03565b611313565b6104747f000000000000000000000000000000000000000000000000000000000000000081565b6040516001600160a01b03909116815260200161029b565b6102c26117d5565b6102c2600081565b6104d26104aa366004613c2b565b6002602081815260009384526040808520909152918352912080546001820154919092015483565b6040805193845260208401929092529082015260600161029b565b6102c2611857565b6102c2610503366004613d51565b611887565b6102c260085481565b6102c2611895565b6102c27f000000000000000000000000000000000000000000000000000000000000000081565b600454610474906001600160a01b031681565b6102c27f000000000000000000000000000000000000000000000000000000000000000081565b6102c2610588366004613d51565b6118e4565b6102b761059b366004613d6a565b611907565b61028f6105ae366004613bf1565b61192d565b6102c27f000000000000000000000000000000000000000000000000000000000000000081565b600154610474906001600160a01b031681565b60006001600160e01b031982167f7965db0b00000000000000000000000000000000000000000000000000000000148061063757506301ffc9a760e01b6001600160e01b03198316145b92915050565b6001546001600160a01b03161561069b5760405162461bcd60e51b815260206004820152601460248201527f537461626c6520636f696e2064697361626c656400000000000000000000000060448201526064015b60405180910390fd5b6001600160a01b0381166106f15760405162461bcd60e51b815260206004820152601360248201527f41646472657373206d75737420626520736574000000000000000000000000006044820152606401610692565b6107246001600160a01b0382167f36372b07000000000000000000000000000000000000000000000000000000006119ee565b6107705760405162461bcd60e51b815260206004820152601760248201527f6e6f7420612076616c696420455243323020746f6b656e0000000000000000006044820152606401610692565b6000819050610828816001600160a01b03166395d89b416040518163ffffffff1660e01b815260040160006040518083038186803b1580156107b157600080fd5b505afa1580156107c5573d6000803e3d6000fd5b505050506040513d6000823e601f3d908101601f191682016040526107ed9190810190613db9565b6040518060400160405280600381526020017f54414c0000000000000000000000000000000000000000000000000000000000815250611a0a565b6108745760405162461bcd60e51b815260206004820152601560248201527f746f6b656e206e616d65206973206e6f742054414c00000000000000000000006044820152606401610692565b50600180547fffffffffffffffffffffffff0000000000000000000000000000000000000000166001600160a01b0392909216919091179055565b6000828152602081905260409020600101546108cb8133611a16565b6108d58383611a94565b505050565b6001600160a01b03811633146109585760405162461bcd60e51b815260206004820152602f60248201527f416363657373436f6e74726f6c3a2063616e206f6e6c792072656e6f756e636560448201527f20726f6c657320666f722073656c6600000000000000000000000000000000006064820152608401610692565b6109628282611b32565b5050565b600061097c6001546001600160a01b0316151590565b6109c05760405162461bcd60e51b8152602060048201526015602482015274151053081d1bdad95b881b9bdd081e595d081cd95d605a1b6044820152606401610692565b816001600160a01b031663c4daa5936040518163ffffffff1660e01b815260040160206040518083038186803b1580156109f957600080fd5b505afa158015610a0d573d6000803e3d6000fd5b505050506040513d601f19601f82011682018060405250810190610a319190613c0e565b6001600160a01b0316336001600160a01b031614610ab75760405162461bcd60e51b815260206004820152602d60248201527f6f6e6c79207468652074616c656e742063616e2077697468647261772074686560448201527f6972206f776e20736861726573000000000000000000000000000000000000006064820152608401610692565b6001600160a01b038281166000908152600360205260409081902054600154915163a9059cbb60e01b8152336004820152602481018290529092919091169063a9059cbb90604401602060405180830381600087803b158015610b1957600080fd5b505af1158015610b2d573d6000803e3d6000fd5b505050506040513d601f19601f82011682018060405250810190610b519190613d2f565b5050506001600160a01b0316600090815260036020526040812055600190565b600060065482610b819190613fd4565b61063790670de0b6b3a76400006141ae565b6000610ba96001546001600160a01b0316151590565b610bed5760405162461bcd60e51b8152602060048201526015602482015274151053081d1bdad95b881b9bdd081e595d081cd95d605a1b6044820152606401610692565b600b543390839060ff1615610c1157610c0833856000611bb1565b60019250610cb8565b600b805460ff191660011790556001600160a01b038083166000908152600260209081526040808320938516835292905290812054610c4f90612416565b9050610c5d33866000611bb1565b600193506001600160a01b038084166000908152600260209081526040808320938616835292905220548190610c9290612416565b600954610c9f9190613f8e565b610ca9919061420c565b60095550600b805460ff191690555b5050919050565b6000610cca8261248d565b610d165760405162461bcd60e51b815260206004820152601860248201527f6e6f7420612076616c69642074616c656e7420746f6b656e00000000000000006044820152606401610692565b6000826001600160a01b031663aafa93716040518163ffffffff1660e01b815260040160206040518083038186803b158015610d5157600080fd5b505afa158015610d65573d6000803e3d6000fd5b505050506040513d601f19601f82011682018060405250810190610d899190613e66565b9050610d94816118e4565b9392505050565b6000610da78133611a16565b6001546001600160a01b0316610df75760405162461bcd60e51b8152602060048201526015602482015274151053081d1bdad95b881b9bdd081e595d081cd95d605a1b6044820152606401610692565b600754821115610e6f5760405162461bcd60e51b815260206004820152602b60248201527f6e6f7420656e6f75676820737461626c6520636f696e206c65667420696e207460448201527f686520636f6e74726163740000000000000000000000000000000000000000006064820152608401610692565b6000610e7a83610fc4565b90508260076000828254610e8e919061420c565b90915550506001546040516323b872dd60e01b8152336004820152306024820152604481018390526001600160a01b03909116906323b872dd90606401602060405180830381600087803b158015610ee557600080fd5b505af1158015610ef9573d6000803e3d6000fd5b505050506040513d601f19601f82011682018060405250810190610f1d9190613d2f565b5060405163a9059cbb60e01b8152336004820152602481018490527f00000000000000000000000000000000000000000000000000000000000000006001600160a01b03169063a9059cbb90604401602060405180830381600087803b158015610f8657600080fd5b505af1158015610f9a573d6000803e3d6000fd5b505050506040513d601f19601f82011682018060405250810190610fbe9190613d2f565b50505050565b600060055482610b819190613fd4565b60007f00000000000000000000000000000000000000000000000000000000000000004210156110465760405162461bcd60e51b815260206004820152601e60248201527f7374616b696e6720706572696f64206e6f7420796574207374617274656400006044820152606401610692565b7f00000000000000000000000000000000000000000000000000000000000000004211156110b65760405162461bcd60e51b815260206004820152601f60248201527f7374616b696e6720706572696f6420616c72656164792066696e6973686564006044820152606401610692565b6001546001600160a01b031633141561118957600061110a84848080601f01602080910402602001604051908101604052809392919081815260200183838082843760009201919091525061252992505050565b9050611117868287612584565b60408051868152600060208201526001600160a01b0380841692908916917f929ad80cfbf532d1e879107de0553ee80942d13c8043f2b2615f9b15b87d10da910160405180910390a37f88a7ca5c75456956db1e96e88ee87aca8bdad85895835c2dc76fcc96396569cf91505061130a565b6111923361248d565b1561129c576001546001600160a01b03166112155760405162461bcd60e51b815260206004820152602a60248201527f54414c20746f6b656e206e6f7420796574207365742e20526566756e64206e6f60448201527f7420706f737369626c65000000000000000000000000000000000000000000006064820152608401610692565b336000611223878388612771565b9050816001600160a01b0316876001600160a01b03167f390b1276974b9463e5d66ab10df69b6f3d7b930eb066a0e66df327edd2cc811c8360405161126a91815260200190565b60405180910390a37f88a7ca5c75456956db1e96e88ee87aca8bdad85895835c2dc76fcc96396569cf9250505061130a565b60405162461bcd60e51b815260206004820152602360248201527f556e7265636f676e697a6564204552433133363320746f6b656e20726563656960448201527f76656400000000000000000000000000000000000000000000000000000000006064820152608401610692565b95945050505050565b60007f00000000000000000000000000000000000000000000000000000000000000004210156113855760405162461bcd60e51b815260206004820152601e60248201527f7374616b696e6720706572696f64206e6f7420796574207374617274656400006044820152606401610692565b7f00000000000000000000000000000000000000000000000000000000000000004211156113f55760405162461bcd60e51b815260206004820152601f60248201527f7374616b696e6720706572696f6420616c72656164792066696e6973686564006044820152606401610692565b6001546001600160a01b03161561144e5760405162461bcd60e51b815260206004820152601460248201527f537461626c6520636f696e2064697361626c65640000000000000000000000006044820152606401610692565b600b543390849060ff16156115cc57600084116114a55760405162461bcd60e51b8152602060048201526015602482015274616d6f756e742063616e6e6f74206265207a65726f60581b6044820152606401610692565b60006114b085610fc4565b905084600760008282546114c49190613f8e565b909155506114d59050338783612584565b6040516323b872dd60e01b8152336004820152306024820152604481018690527f00000000000000000000000000000000000000000000000000000000000000006001600160a01b0316906323b872dd90606401602060405180830381600087803b15801561154357600080fd5b505af1158015611557573d6000803e3d6000fd5b505050506040513d601f19601f8201168201806040525081019061157b9190613d2f565b5060408051828152600160208201526001600160a01b0388169133917f929ad80cfbf532d1e879107de0553ee80942d13c8043f2b2615f9b15b87d10da910160405180910390a360019350506117cd565b600b805460ff191660011790556001600160a01b03808316600090815260026020908152604080832093851683529290529081205461160a90612416565b9050600085116116545760405162461bcd60e51b8152602060048201526015602482015274616d6f756e742063616e6e6f74206265207a65726f60581b6044820152606401610692565b600061165f86610fc4565b905085600760008282546116739190613f8e565b909155506116849050338883612584565b6040516323b872dd60e01b8152336004820152306024820152604481018790527f00000000000000000000000000000000000000000000000000000000000000006001600160a01b0316906323b872dd90606401602060405180830381600087803b1580156116f257600080fd5b505af1158015611706573d6000803e3d6000fd5b505050506040513d601f19601f8201168201806040525081019061172a9190613d2f565b5060408051828152600160208201526001600160a01b0389169133917f929ad80cfbf532d1e879107de0553ee80942d13c8043f2b2615f9b15b87d10da910160405180910390a360019450506001600160a01b0380841660009081526002602090815260408083209386168352929052205481906117a790612416565b6009546117b49190613f8e565b6117be919061420c565b60095550600b805460ff191690555b505092915050565b6001546040516370a0823160e01b81523060048201526000916001600160a01b0316906370a08231906024015b60206040518083038186803b15801561181a57600080fd5b505afa15801561182e573d6000803e3d6000fd5b505050506040513d601f19601f820116820180604052508101906118529190613e66565b905090565b6000600a547f0000000000000000000000000000000000000000000000000000000000000000611852919061420c565b600061063761037483610fc4565b6040516370a0823160e01b81523060048201526000907f00000000000000000000000000000000000000000000000000000000000000006001600160a01b0316906370a0823190602401611802565b6000670de0b6b3a7640000600654836118fd91906141ae565b6106379190613fd4565b6000828152602081905260409020600101546119238133611a16565b6108d58383611b32565b60006119436001546001600160a01b0316151590565b6119875760405162461bcd60e51b8152602060048201526015602482015274151053081d1bdad95b881b9bdd081e595d081cd95d605a1b6044820152606401610692565b600b543390839060ff16156119a257610c0833856001611bb1565b600b805460ff191660011790556001600160a01b0380831660009081526002602090815260408083209385168352929052908120546119e090612416565b9050610c5d33866001611bb1565b60006119f983612cfd565b8015610d945750610d948383612d30565b6000610d948383612e2e565b6000828152602081815260408083206001600160a01b038516845290915290205460ff1661096257611a52816001600160a01b03166014612e53565b611a5d836020612e53565b604051602001611a6e929190613e9b565b60408051601f198184030181529082905262461bcd60e51b825261069291600401613f1c565b6000828152602081815260408083206001600160a01b038516845290915290205460ff16610962576000828152602081815260408083206001600160a01b03851684529091529020805460ff19166001179055611aee3390565b6001600160a01b0316816001600160a01b0316837f2f8788117e7eff1d82e926ec794901d17c78024a50270940304540a733656f0d60405160405180910390a45050565b6000828152602081815260408083206001600160a01b038516845290915290205460ff1615610962576000828152602081815260408083206001600160a01b0385168085529252808320805460ff1916905551339285917ff6391f5c32d9c69d2a47ea670b442974b53935d1edc7fd64eb21e047a839171b9190a45050565b600b548390839060ff1615611fc2576001600160a01b0380861660009081526002602090815260408083209388168084529382528083208151633e0075a160e01b81529151909492633e0075a19260048082019391829003018186803b158015611c1a57600080fd5b505afa158015611c2e573d6000803e3d6000fd5b505050506040513d601f19601f82011682018060405250810190611c529190613e66565b90506000808211611c635742611c65565b815b90506000876001600160a01b031663c4daa5936040518163ffffffff1660e01b815260040160206040518083038186803b158015611ca257600080fd5b505afa158015611cb6573d6000803e3d6000fd5b505050506040513d601f19601f82011682018060405250810190611cda9190613c0e565b6040516370a0823160e01b81526001600160a01b0380831660048301529192506000918a16906370a082319060240160206040518083038186803b158015611d2157600080fd5b505afa158015611d35573d6000803e3d6000fd5b505050506040513d601f19601f82011682018060405250810190611d599190613e66565b9050600080611d7787600001548860020154878a6001015487613034565b9092509050611d868183613f8e565b600a6000828254611d979190613f8e565b90915550504260028801556001600160a01b038b1660009081526003602052604081208054839290611dca908490613f8e565b90915550600090508a6001811115611de457611de4614292565b1415611ecc5760015460405163a9059cbb60e01b81526001600160a01b038e81166004830152602482018590529091169063a9059cbb90604401602060405180830381600087803b158015611e3857600080fd5b505af1158015611e4c573d6000803e3d6000fd5b505050506040513d601f19601f82011682018060405250810190611e709190613d2f565b508a6001600160a01b03168c6001600160a01b03167f013ceff621e16e2f96e454db0b811d5e35d3be38beab8a6bf4be6a3dc8cd23f38484604051611ebf929190918252602082015260400190565b60405180910390a3611fb6565b60018a6001811115611ee057611ee0614292565b1415611f6e576000611ef18c610cbf565b90506000838211611f025781611f04565b835b9050611f118e8e8361306d565b8c6001600160a01b03168e6001600160a01b03167f661cda9d247039eabdcc72b8fed0de4ce46c907660a504c7e40889080fbd55908386604051611f5f929190918252602082015260400190565b60405180910390a35050611fb6565b60405162461bcd60e51b815260206004820152601e60248201527f556e7265636f676e697a656420636865636b706f696e7420616374696f6e00006044820152606401610692565b5050505050505061240f565b600b805460ff191660011790556001600160a01b03808316600090815260026020908152604080832093851683529290529081205461200090612416565b6001600160a01b038088166000908152600260209081526040808320938a168084529382528083208151633e0075a160e01b8152915195965094929392633e0075a192600480840193919291829003018186803b15801561206057600080fd5b505afa158015612074573d6000803e3d6000fd5b505050506040513d601f19601f820116820180604052508101906120989190613e66565b905060008082116120a957426120ab565b815b90506000886001600160a01b031663c4daa5936040518163ffffffff1660e01b815260040160206040518083038186803b1580156120e857600080fd5b505afa1580156120fc573d6000803e3d6000fd5b505050506040513d601f19601f820116820180604052508101906121209190613c0e565b6040516370a0823160e01b81526001600160a01b0380831660048301529192506000918b16906370a082319060240160206040518083038186803b15801561216757600080fd5b505afa15801561217b573d6000803e3d6000fd5b505050506040513d601f19601f8201168201806040525081019061219f9190613e66565b90506000806121bd87600001548860020154878a6001015487613034565b90925090506121cc8183613f8e565b600a60008282546121dd9190613f8e565b90915550504260028801556001600160a01b038c1660009081526003602052604081208054839290612210908490613f8e565b90915550600090508b600181111561222a5761222a614292565b14156123125760015460405163a9059cbb60e01b81526001600160a01b038f81166004830152602482018590529091169063a9059cbb90604401602060405180830381600087803b15801561227e57600080fd5b505af1158015612292573d6000803e3d6000fd5b505050506040513d601f19601f820116820180604052508101906122b69190613d2f565b508b6001600160a01b03168d6001600160a01b03167f013ceff621e16e2f96e454db0b811d5e35d3be38beab8a6bf4be6a3dc8cd23f38484604051612305929190918252602082015260400190565b60405180910390a36123b0565b60018b600181111561232657612326614292565b1415611f6e5760006123378d610cbf565b90506000838211612348578161234a565b835b90506123578f8f8361306d565b8d6001600160a01b03168f6001600160a01b03167f661cda9d247039eabdcc72b8fed0de4ce46c907660a504c7e40889080fbd559083866040516123a5929190918252602082015260400190565b60405180910390a350505b505050506001600160a01b038681166000908152600260209081526040808320938916835292905220548493506123e992509050612416565b6009546123f69190613f8e565b612400919061420c565b60095550600b805460ff191690555b5050505050565b60008161242557506000919050565b6003821161243557506001919050565b60006002612444846001613f8e565b61244e9190613fd4565b90508291505b818110156124875790508060028161246c8186613fd4565b6124769190613f8e565b6124809190613fd4565b9050612454565b50919050565b600480546040517f099aba560000000000000000000000000000000000000000000000000000000081526001600160a01b03848116938201939093526000929091169063099aba569060240160206040518083038186803b1580156124f157600080fd5b505afa158015612505573d6000803e3d6000fd5b505050506040513d601f19601f820116820180604052508101906106379190613d2f565b6000815160141461257c5760405162461bcd60e51b815260206004820152601f60248201527f696e76616c69642064617461206c656e67746820666f722061646472657373006044820152606401610692565b506014015190565b600b548390839060ff161561264c5761259c8461248d565b6125e85760405162461bcd60e51b815260206004820152601860248201527f6e6f7420612076616c69642074616c656e7420746f6b656e00000000000000006044820152606401610692565b600083116126305760405162461bcd60e51b8152602060048201526015602482015274616d6f756e742063616e6e6f74206265207a65726f60581b6044820152606401610692565b61263c85856001611bb1565b61264785858561306d565b61240f565b600b805460ff191660011790556001600160a01b03808316600090815260026020908152604080832093851683529290529081205461268a90612416565b90506126958561248d565b6126e15760405162461bcd60e51b815260206004820152601860248201527f6e6f7420612076616c69642074616c656e7420746f6b656e00000000000000006044820152606401610692565b600084116127295760405162461bcd60e51b8152602060048201526015602482015274616d6f756e742063616e6e6f74206265207a65726f60581b6044820152606401610692565b61273586866001611bb1565b61274086868661306d565b6001600160a01b0380841660009081526002602090815260408083209386168352929052205481906123e990612416565b600b546000908490849060ff16156129f35761278c8561248d565b6127d85760405162461bcd60e51b815260206004820152601860248201527f6e6f7420612076616c69642074616c656e7420746f6b656e00000000000000006044820152606401610692565b6127e486866001611bb1565b6001600160a01b038087166000908152600260208181526040808420948a1684529390529190209081015461285b5760405162461bcd60e51b815260206004820152601460248201527f7374616b6520646f6573206e6f742065786973740000000000000000000000006044820152606401610692565b848160010154101561286c57600080fd5b60018101546000906128836402540be400886141ae565b61288d9190613fd4565b905060006402540be4008284600001546128a791906141ae565b6128b19190613fd4565b6001546040516370a0823160e01b815230600482015291925082916001600160a01b03909116906370a082319060240160206040518083038186803b1580156128f957600080fd5b505afa15801561290d573d6000803e3d6000fd5b505050506040513d601f19601f820116820180604052508101906129319190613e66565b10156129895760405162461bcd60e51b815260206004820152602160248201527f6e6f7420656e6f7567682054414c20746f2066756c66696c6c207265717565736044820152601d60fa1b6064820152608401610692565b8683600101600082825461299d919061420c565b90915550508254819084906000906129b690849061420c565b9250508190555080600860008282546129cf919061420c565b909155506129df905088886130f9565b6129e98982613176565b9450612cf4915050565b600b805460ff191660011790556001600160a01b038083166000908152600260209081526040808320938516835292905290812054612a3190612416565b9050612a3c8661248d565b612a885760405162461bcd60e51b815260206004820152601860248201527f6e6f7420612076616c69642074616c656e7420746f6b656e00000000000000006044820152606401610692565b612a9487876001611bb1565b6001600160a01b038088166000908152600260208181526040808420948b16845293905291902090810154612b0b5760405162461bcd60e51b815260206004820152601460248201527f7374616b6520646f6573206e6f742065786973740000000000000000000000006044820152606401610692565b8581600101541015612b1c57600080fd5b6001810154600090612b336402540be400896141ae565b612b3d9190613fd4565b905060006402540be400828460000154612b5791906141ae565b612b619190613fd4565b6001546040516370a0823160e01b815230600482015291925082916001600160a01b03909116906370a082319060240160206040518083038186803b158015612ba957600080fd5b505afa158015612bbd573d6000803e3d6000fd5b505050506040513d601f19601f82011682018060405250810190612be19190613e66565b1015612c395760405162461bcd60e51b815260206004820152602160248201527f6e6f7420656e6f7567682054414c20746f2066756c66696c6c207265717565736044820152601d60fa1b6064820152608401610692565b87836001016000828254612c4d919061420c565b9091555050825481908490600090612c6690849061420c565b925050819055508060086000828254612c7f919061420c565b90915550612c8f905089896130f9565b612c998a82613176565b955050506001600160a01b038084166000908152600260209081526040808320938616835292905220548190612cce90612416565b600954612cdb9190613f8e565b612ce5919061420c565b60095550600b805460ff191690555b50509392505050565b6000612d10826301ffc9a760e01b612d30565b80156106375750612d29826001600160e01b0319612d30565b1592915050565b604080516001600160e01b0319831660248083019190915282518083039091018152604490910182526020810180517bffffffffffffffffffffffffffffffffffffffffffffffffffffffff166301ffc9a760e01b179052905160009190829081906001600160a01b0387169061753090612dac908690613e7f565b6000604051808303818686fa925050503d8060008114612de8576040519150601f19603f3d011682016040523d82523d6000602084013e612ded565b606091505b5091509150602081511015612e085760009350505050610637565b818015612e24575080806020019051810190612e249190613d2f565b9695505050505050565b600081518351148015610d945750508051602091820120825192909101919091201490565b60606000612e628360026141ae565b612e6d906002613f8e565b67ffffffffffffffff811115612e8557612e856142be565b6040519080825280601f01601f191660200182016040528015612eaf576020820181803683370190505b5090507f300000000000000000000000000000000000000000000000000000000000000081600081518110612ee657612ee66142a8565b60200101906001600160f81b031916908160001a9053507f780000000000000000000000000000000000000000000000000000000000000081600181518110612f3157612f316142a8565b60200101906001600160f81b031916908160001a9053506000612f558460026141ae565b612f60906001613f8e565b90505b6001811115612fe5577f303132333435363738396162636465660000000000000000000000000000000085600f1660108110612fa157612fa16142a8565b1a60f81b828281518110612fb757612fb76142a8565b60200101906001600160f81b031916908160001a90535060049490941c93612fde8161424f565b9050612f63565b508315610d945760405162461bcd60e51b815260206004820181905260248201527f537472696e67733a20686578206c656e67746820696e73756666696369656e746044820152606401610692565b60008060006130448888886131fc565b905060006130538287876133f1565b905061305f818361420c565b999098509650505050505050565b600061307882610b71565b6001600160a01b0380861660009081526002602090815260408083209388168352929052908120805492935091849183916130b4908490613f8e565b92505081905550818160010160008282546130cf9190613f8e565b9250508190555082600860008282546130e89190613f8e565b9091555061240f905085858461348f565b6040517f9dc29fac000000000000000000000000000000000000000000000000000000008152306004820152602481018290526001600160a01b03831690639dc29fac90604401600060405180830381600087803b15801561315a57600080fd5b505af115801561316e573d6000803e3d6000fd5b505050505050565b60015460405163a9059cbb60e01b81526001600160a01b038481166004830152602482018490529091169063a9059cbb90604401602060405180830381600087803b1580156131c457600080fd5b505af11580156131d8573d6000803e3d6000fd5b505050506040513d601f19601f820116820180604052508101906108d59190613d2f565b6000306001600160a01b03166322b3a6a16040518163ffffffff1660e01b815260040160206040518083038186803b15801561323757600080fd5b505afa15801561324b573d6000803e3d6000fd5b505050506040513d601f19601f8201168201806040525081019061326f9190613e66565b61327b57506000610d94565b600080613288858561350f565b9150915060008061329984846138e2565b9150915060006132a98383613b28565b90506000306001600160a01b03166322b3a6a16040518163ffffffff1660e01b815260040160206040518083038186803b1580156132e657600080fd5b505afa1580156132fa573d6000803e3d6000fd5b505050506040513d601f19601f8201168201806040525081019061331e9190613e66565b6402540be40061332d8c612416565b61333791906141ae565b6133419190613fd4565b90506133526402540be400806141ae565b8183306001600160a01b031663a8bc58f26040518163ffffffff1660e01b815260040160206040518083038186803b15801561338d57600080fd5b505afa1580156133a1573d6000803e3d6000fd5b505050506040513d601f19601f820116820180604052508101906133c59190613e66565b6133cf91906141ae565b6133d991906141ae565b6133e39190613fd4565b9a9950505050505050505050565b60008061340b6134066402540be400866141ae565b612416565b905060006134216134066402540be400866141ae565b9050600061342f8284613f8e565b61343e6402540be400846141ae565b6134489190613fd4565b905060006402540be40061345c838a6141ae565b6134669190613fd4565b9050600061347560648a613fd4565b905080821015613483578091505b50979650505050505050565b6040517f40c10f190000000000000000000000000000000000000000000000000000000081526001600160a01b038481166004830152602482018390528316906340c10f1990604401600060405180830381600087803b1580156134f257600080fd5b505af1158015613506573d6000803e3d6000fd5b50505050505050565b600080306001600160a01b031663be9a65556040518163ffffffff1660e01b815260040160206040518083038186803b15801561354b57600080fd5b505afa15801561355f573d6000803e3d6000fd5b505050506040513d601f19601f820116820180604052508101906135839190613e66565b831115806136015750306001600160a01b031663efbe1c1c6040518163ffffffff1660e01b815260040160206040518083038186803b1580156135c557600080fd5b505afa1580156135d9573d6000803e3d6000fd5b505050506040513d601f19601f820116820180604052508101906135fd9190613e66565b8410155b156136f157306001600160a01b031663be9a65556040518163ffffffff1660e01b815260040160206040518083038186803b15801561363f57600080fd5b505afa158015613653573d6000803e3d6000fd5b505050506040513d601f19601f820116820180604052508101906136779190613e66565b306001600160a01b031663be9a65556040518163ffffffff1660e01b815260040160206040518083038186803b1580156136b057600080fd5b505afa1580156136c4573d6000803e3d6000fd5b505050506040513d601f19601f820116820180604052508101906136e89190613e66565b915091506138db565b6000306001600160a01b031663be9a65556040518163ffffffff1660e01b815260040160206040518083038186803b15801561372c57600080fd5b505afa158015613740573d6000803e3d6000fd5b505050506040513d601f19601f820116820180604052508101906137649190613e66565b851061377057846137e1565b306001600160a01b031663be9a65556040518163ffffffff1660e01b815260040160206040518083038186803b1580156137a957600080fd5b505afa1580156137bd573d6000803e3d6000fd5b505050506040513d601f19601f820116820180604052508101906137e19190613e66565b90506000306001600160a01b031663efbe1c1c6040518163ffffffff1660e01b815260040160206040518083038186803b15801561381e57600080fd5b505afa158015613832573d6000803e3d6000fd5b505050506040513d601f19601f820116820180604052508101906138569190613e66565b851161386257846138d3565b306001600160a01b031663efbe1c1c6040518163ffffffff1660e01b815260040160206040518083038186803b15801561389b57600080fd5b505afa1580156138af573d6000803e3d6000fd5b505050506040513d601f19601f820116820180604052508101906138d39190613e66565b919350909150505b9250929050565b6000806000306001600160a01b031663be9a65556040518163ffffffff1660e01b815260040160206040518083038186803b15801561392057600080fd5b505afa158015613934573d6000803e3d6000fd5b505050506040513d601f19601f820116820180604052508101906139589190613e66565b306001600160a01b031663efbe1c1c6040518163ffffffff1660e01b815260040160206040518083038186803b15801561399157600080fd5b505afa1580156139a5573d6000803e3d6000fd5b505050506040513d601f19601f820116820180604052508101906139c99190613e66565b6139d3919061420c565b9050806139e8576000600192509250506138db565b6000816402540be400306001600160a01b031663be9a65556040518163ffffffff1660e01b815260040160206040518083038186803b158015613a2a57600080fd5b505afa158015613a3e573d6000803e3d6000fd5b505050506040513d601f19601f82011682018060405250810190613a629190613e66565b613a6c908961420c565b613a7691906141ae565b613a809190613fd4565b90506000826402540be400306001600160a01b031663be9a65556040518163ffffffff1660e01b815260040160206040518083038186803b158015613ac457600080fd5b505afa158015613ad8573d6000803e3d6000fd5b505050506040513d601f19601f82011682018060405250810190613afc9190613e66565b613b06908961420c565b613b1091906141ae565b613b1a9190613fd4565b919791965090945050505050565b600080613b356000613b8b565b613b436402540be400613b8b565b613b4d91906141cd565b90506000613b5a85613b8b565b613b6385613b8b565b613b6d91906141cd565b9050600082613b816402540be40084614127565b612e249190613fa6565b6000816402540be40081613ba0600283614118565b613baa9190614127565b613bb5600284614118565b613bbf9083614127565b6003613bcb8186614118565b613bd59190613fa6565b613bdf91906141cd565b613be99190613f4f565b949350505050565b600060208284031215613c0357600080fd5b8135610d94816142d4565b600060208284031215613c2057600080fd5b8151610d94816142d4565b60008060408385031215613c3e57600080fd5b8235613c49816142d4565b91506020830135613c59816142d4565b809150509250929050565b600080600080600060808688031215613c7c57600080fd5b8535613c87816142d4565b94506020860135613c97816142d4565b935060408601359250606086013567ffffffffffffffff80821115613cbb57600080fd5b818801915088601f830112613ccf57600080fd5b813581811115613cde57600080fd5b896020828501011115613cf057600080fd5b9699959850939650602001949392505050565b60008060408385031215613d1657600080fd5b8235613d21816142d4565b946020939093013593505050565b600060208284031215613d4157600080fd5b81518015158114610d9457600080fd5b600060208284031215613d6357600080fd5b5035919050565b60008060408385031215613d7d57600080fd5b823591506020830135613c59816142d4565b600060208284031215613da157600080fd5b81356001600160e01b031981168114610d9457600080fd5b600060208284031215613dcb57600080fd5b815167ffffffffffffffff80821115613de357600080fd5b818401915084601f830112613df757600080fd5b815181811115613e0957613e096142be565b604051601f8201601f19908116603f01168101908382118183101715613e3157613e316142be565b81604052828152876020848701011115613e4a57600080fd5b613e5b836020830160208801614223565b979650505050505050565b600060208284031215613e7857600080fd5b5051919050565b60008251613e91818460208701614223565b9190910192915050565b7f416363657373436f6e74726f6c3a206163636f756e7420000000000000000000815260008351613ed3816017850160208801614223565b7f206973206d697373696e6720726f6c65200000000000000000000000000000006017918401918201528351613f10816028840160208801614223565b01602801949350505050565b6020815260008251806020840152613f3b816040850160208701614223565b601f01601f19169190910160400192915050565b6000808212826001600160ff1b0303841381151615613f7057613f70614266565b82600160ff1b038412811615613f8857613f88614266565b50500190565b60008219821115613fa157613fa1614266565b500190565b600082613fb557613fb561427c565b600160ff1b821460001984141615613fcf57613fcf614266565b500590565b600082613fe357613fe361427c565b500490565b80825b6001808611613ffa575061402c565b816001600160ff1b030482111561401357614013614266565b8086161561402057918102915b9490941c938002613feb565b935093915050565b600082801561404a57600181146140545761405d565b6001915050610637565b82915050610637565b508161406b57506000610637565b506001600082138082146140845780156140a2576140bb565b826001600160ff1b030483111561409d5761409d614266565b6140bb565b826001600160ff1b03058312156140bb576140bb614266565b50808316156140c75750805b6140d78360011c83840283613fe8565b806001600160ff1b030482116000831316156140f5576140f5614266565b80600160ff1b05821260008312161561411057614110614266565b029392505050565b6000610d9460ff841683614034565b60006001600160ff1b0360008413600084138583048511828216161561414f5761414f614266565b600160ff1b600087128682058812818416161561416e5761416e614266565b6000871292508782058712848416161561418a5761418a614266565b878505871281841616156141a0576141a0614266565b505050929093029392505050565b60008160001904831182151516156141c8576141c8614266565b500290565b600080831283600160ff1b018312811516156141eb576141eb614266565b836001600160ff1b0301831381161561420657614206614266565b50500390565b60008282101561421e5761421e614266565b500390565b60005b8381101561423e578181015183820152602001614226565b83811115610fbe5750506000910152565b60008161425e5761425e614266565b506000190190565b634e487b7160e01b600052601160045260246000fd5b634e487b7160e01b600052601260045260246000fd5b634e487b7160e01b600052602160045260246000fd5b634e487b7160e01b600052603260045260246000fd5b634e487b7160e01b600052604160045260246000fd5b6001600160a01b03811681146142e957600080fd5b5056fea264697066735822122018a5422e4d9744370adcd3fc7e28ab911797373ce8b0725411d818adeb27f1bb64736f6c63430008070033",
  "linkReferences": {},
  "deployedLinkReferences": {}
}