{
  "_format": "hh-sol-artifact-1",
  "contractName": "Staking",
  "sourceName": "contracts/Staking.sol",
  "abi": [
    {
      "inputs": [
        {
          "internalType": "uint256",
          "name": "_start",
          "type": "uint256"
        },
        {
          "internalType": "uint256",
          "name": "_end",
          "type": "uint256"
        },
        {
          "internalType": "uint256",
          "name": "_rewardsMax",
          "type": "uint256"
        },
        {
          "internalType": "address",
          "name": "_stableCoin",
          "type": "address"
        },
        {
          "internalType": "address",
          "name": "_factory",
          "type": "address"
        },
        {
          "internalType": "uint256",
          "name": "_tokenPrice",
          "type": "uint256"
        },
        {
          "internalType": "uint256",
          "name": "_talentPrice",
          "type": "uint256"
        }
      ],
      "stateMutability": "nonpayable",
      "type": "constructor"
    },
    {
      "anonymous": false,
      "inputs": [
        {
          "indexed": true,
          "internalType": "bytes32",
          "name": "role",
          "type": "bytes32"
        },
        {
          "indexed": true,
          "internalType": "bytes32",
          "name": "previousAdminRole",
          "type": "bytes32"
        },
        {
          "indexed": true,
          "internalType": "bytes32",
          "name": "newAdminRole",
          "type": "bytes32"
        }
      ],
      "name": "RoleAdminChanged",
      "type": "event"
    },
    {
      "anonymous": false,
      "inputs": [
        {
          "indexed": true,
          "internalType": "bytes32",
          "name": "role",
          "type": "bytes32"
        },
        {
          "indexed": true,
          "internalType": "address",
          "name": "account",
          "type": "address"
        },
        {
          "indexed": true,
          "internalType": "address",
          "name": "sender",
          "type": "address"
        }
      ],
      "name": "RoleGranted",
      "type": "event"
    },
    {
      "anonymous": false,
      "inputs": [
        {
          "indexed": true,
          "internalType": "bytes32",
          "name": "role",
          "type": "bytes32"
        },
        {
          "indexed": true,
          "internalType": "address",
          "name": "account",
          "type": "address"
        },
        {
          "indexed": true,
          "internalType": "address",
          "name": "sender",
          "type": "address"
        }
      ],
      "name": "RoleRevoked",
      "type": "event"
    },
    {
      "inputs": [],
      "name": "DEFAULT_ADMIN_ROLE",
      "outputs": [
        {
          "internalType": "bytes32",
          "name": "",
          "type": "bytes32"
        }
      ],
      "stateMutability": "view",
      "type": "function"
    },
    {
      "inputs": [
        {
          "internalType": "uint256",
          "name": "_talent",
          "type": "uint256"
        }
      ],
      "name": "convertTalentToToken",
      "outputs": [
        {
          "internalType": "uint256",
          "name": "",
          "type": "uint256"
        }
      ],
      "stateMutability": "view",
      "type": "function"
    },
    {
      "inputs": [
        {
          "internalType": "uint256",
          "name": "_tal",
          "type": "uint256"
        }
      ],
      "name": "convertTokenToTalent",
      "outputs": [
        {
          "internalType": "uint256",
          "name": "",
          "type": "uint256"
        }
      ],
      "stateMutability": "view",
      "type": "function"
    },
    {
      "inputs": [
        {
          "internalType": "uint256",
          "name": "_usd",
          "type": "uint256"
        }
      ],
      "name": "convertUsdToTalent",
      "outputs": [
        {
          "internalType": "uint256",
          "name": "",
          "type": "uint256"
        }
      ],
      "stateMutability": "view",
      "type": "function"
    },
    {
      "inputs": [
        {
          "internalType": "uint256",
          "name": "_usd",
          "type": "uint256"
        }
      ],
      "name": "convertUsdToToken",
      "outputs": [
        {
          "internalType": "uint256",
          "name": "",
          "type": "uint256"
        }
      ],
      "stateMutability": "view",
      "type": "function"
    },
    {
      "inputs": [],
      "name": "end",
      "outputs": [
        {
          "internalType": "uint256",
          "name": "",
          "type": "uint256"
        }
      ],
      "stateMutability": "view",
      "type": "function"
    },
    {
      "inputs": [],
      "name": "factory",
      "outputs": [
        {
          "internalType": "address",
          "name": "",
          "type": "address"
        }
      ],
      "stateMutability": "view",
      "type": "function"
    },
    {
      "inputs": [
        {
          "internalType": "bytes32",
          "name": "role",
          "type": "bytes32"
        }
      ],
      "name": "getRoleAdmin",
      "outputs": [
        {
          "internalType": "bytes32",
          "name": "",
          "type": "bytes32"
        }
      ],
      "stateMutability": "view",
      "type": "function"
    },
    {
      "inputs": [
        {
          "internalType": "bytes32",
          "name": "role",
          "type": "bytes32"
        },
        {
          "internalType": "address",
          "name": "account",
          "type": "address"
        }
      ],
      "name": "grantRole",
      "outputs": [],
      "stateMutability": "nonpayable",
      "type": "function"
    },
    {
      "inputs": [
        {
          "internalType": "bytes32",
          "name": "role",
          "type": "bytes32"
        },
        {
          "internalType": "address",
          "name": "account",
          "type": "address"
        }
      ],
      "name": "hasRole",
      "outputs": [
        {
          "internalType": "bool",
          "name": "",
          "type": "bool"
        }
      ],
      "stateMutability": "view",
      "type": "function"
    },
    {
      "inputs": [
        {
          "internalType": "address",
          "name": "",
          "type": "address"
        },
        {
          "internalType": "address",
          "name": "_sender",
          "type": "address"
        },
        {
          "internalType": "uint256",
          "name": "_amount",
          "type": "uint256"
        },
        {
          "internalType": "bytes",
          "name": "data",
          "type": "bytes"
        }
      ],
      "name": "onTransferReceived",
      "outputs": [
        {
          "internalType": "bytes4",
          "name": "",
          "type": "bytes4"
        }
      ],
      "stateMutability": "nonpayable",
      "type": "function"
    },
    {
      "inputs": [
        {
          "internalType": "bytes32",
          "name": "role",
          "type": "bytes32"
        },
        {
          "internalType": "address",
          "name": "account",
          "type": "address"
        }
      ],
      "name": "renounceRole",
      "outputs": [],
      "stateMutability": "nonpayable",
      "type": "function"
    },
    {
      "inputs": [
        {
          "internalType": "bytes32",
          "name": "role",
          "type": "bytes32"
        },
        {
          "internalType": "address",
          "name": "account",
          "type": "address"
        }
      ],
      "name": "revokeRole",
      "outputs": [],
      "stateMutability": "nonpayable",
      "type": "function"
    },
    {
      "inputs": [],
      "name": "rewardsGiven",
      "outputs": [
        {
          "internalType": "uint256",
          "name": "",
          "type": "uint256"
        }
      ],
      "stateMutability": "view",
      "type": "function"
    },
    {
      "inputs": [],
      "name": "rewardsLeft",
      "outputs": [
        {
          "internalType": "uint256",
          "name": "",
          "type": "uint256"
        }
      ],
      "stateMutability": "view",
      "type": "function"
    },
    {
      "inputs": [],
      "name": "rewardsMax",
      "outputs": [
        {
          "internalType": "uint256",
          "name": "",
          "type": "uint256"
        }
      ],
      "stateMutability": "view",
      "type": "function"
    },
    {
      "inputs": [
        {
          "internalType": "address",
          "name": "_token",
          "type": "address"
        }
      ],
      "name": "setToken",
      "outputs": [],
      "stateMutability": "nonpayable",
      "type": "function"
    },
    {
      "inputs": [],
      "name": "stableCoin",
      "outputs": [
        {
          "internalType": "address",
          "name": "",
          "type": "address"
        }
      ],
      "stateMutability": "view",
      "type": "function"
    },
    {
      "inputs": [],
      "name": "stableCoinBalance",
      "outputs": [
        {
          "internalType": "uint256",
          "name": "",
          "type": "uint256"
        }
      ],
      "stateMutability": "view",
      "type": "function"
    },
    {
      "inputs": [
        {
          "internalType": "address",
          "name": "_talent",
          "type": "address"
        },
        {
          "internalType": "uint256",
          "name": "_amount",
          "type": "uint256"
        }
      ],
      "name": "stakeStable",
      "outputs": [
        {
          "internalType": "bool",
          "name": "",
          "type": "bool"
        }
      ],
      "stateMutability": "nonpayable",
      "type": "function"
    },
    {
      "inputs": [
        {
          "internalType": "address",
          "name": "",
          "type": "address"
        }
      ],
      "name": "stakes",
      "outputs": [
        {
          "internalType": "address",
          "name": "owner",
          "type": "address"
        },
        {
          "internalType": "address",
          "name": "talent",
          "type": "address"
        },
        {
          "internalType": "uint256",
          "name": "tokenAmount",
          "type": "uint256"
        },
        {
          "internalType": "uint256",
          "name": "talentAmount",
          "type": "uint256"
        },
        {
          "internalType": "uint256",
          "name": "lastCheckpointAt",
          "type": "uint256"
        }
      ],
      "stateMutability": "view",
      "type": "function"
    },
    {
      "inputs": [],
      "name": "start",
      "outputs": [
        {
          "internalType": "uint256",
          "name": "",
          "type": "uint256"
        }
      ],
      "stateMutability": "view",
      "type": "function"
    },
    {
      "inputs": [
        {
          "internalType": "bytes4",
          "name": "interfaceId",
          "type": "bytes4"
        }
      ],
      "name": "supportsInterface",
      "outputs": [
        {
          "internalType": "bool",
          "name": "",
          "type": "bool"
        }
      ],
      "stateMutability": "view",
      "type": "function"
    },
    {
      "inputs": [
        {
          "internalType": "uint256",
          "name": "_stableAmount",
          "type": "uint256"
        }
      ],
      "name": "swapStableForToken",
      "outputs": [],
      "stateMutability": "nonpayable",
      "type": "function"
    },
    {
      "inputs": [],
      "name": "talentPrice",
      "outputs": [
        {
          "internalType": "uint256",
          "name": "",
          "type": "uint256"
        }
      ],
      "stateMutability": "view",
      "type": "function"
    },
    {
      "inputs": [],
      "name": "token",
      "outputs": [
        {
          "internalType": "address",
          "name": "",
          "type": "address"
        }
      ],
      "stateMutability": "view",
      "type": "function"
    },
    {
      "inputs": [],
      "name": "tokenBalance",
      "outputs": [
        {
          "internalType": "uint256",
          "name": "",
          "type": "uint256"
        }
      ],
      "stateMutability": "view",
      "type": "function"
    },
    {
      "inputs": [],
      "name": "tokenPrice",
      "outputs": [
        {
          "internalType": "uint256",
          "name": "",
          "type": "uint256"
        }
      ],
      "stateMutability": "view",
      "type": "function"
    },
    {
      "inputs": [],
      "name": "totalShares",
      "outputs": [
        {
          "internalType": "uint256",
          "name": "",
          "type": "uint256"
        }
      ],
      "stateMutability": "view",
      "type": "function"
    },
    {
      "inputs": [],
      "name": "totalStableStored",
      "outputs": [
        {
          "internalType": "uint256",
          "name": "",
          "type": "uint256"
        }
      ],
      "stateMutability": "view",
      "type": "function"
    },
    {
      "inputs": [],
      "name": "totalTokenStaked",
      "outputs": [
        {
          "internalType": "uint256",
          "name": "",
          "type": "uint256"
        }
      ],
      "stateMutability": "view",
      "type": "function"
    }
  ],
  "bytecode": "0x6101006040523480156200001257600080fd5b506040516200246138038062002461833981016040819052620000359162000268565b836001600160a01b0381166200009c5760405162461bcd60e51b815260206004820152602160248201527f737461626c652d636f696e2061646472657373206d7573742062652076616c696044820152601960fa1b60648201526084015b60405180910390fd5b60601b6001600160601b03191660805281620000fb5760405162461bcd60e51b815260206004820152601760248201527f5f746f6b656e50726963652063616e6e6f742062652030000000000000000000604482015260640162000093565b600081116200014d5760405162461bcd60e51b815260206004820152601860248201527f5f74616c656e7450726963652063616e6e6f7420626520300000000000000000604482015260640162000093565b60c087905260e086905260a0859052600380546001600160a01b0319166001600160a01b038516179055600482905560058190556200018e6000336200019b565b50505050505050620002d0565b620001a78282620001ab565b5050565b6000828152602081815260408083206001600160a01b038516845290915290205460ff16620001a7576000828152602081815260408083206001600160a01b03851684529091529020805460ff19166001179055620002073390565b6001600160a01b0316816001600160a01b0316837f2f8788117e7eff1d82e926ec794901d17c78024a50270940304540a733656f0d60405160405180910390a45050565b80516001600160a01b03811681146200026357600080fd5b919050565b600080600080600080600060e0888a0312156200028457600080fd5b875196506020880151955060408801519450620002a4606089016200024b565b9350620002b4608089016200024b565b925060a0880151915060c0880151905092959891949750929550565b60805160601c60a05160c05160e05161211c62000345600039600081816104dd01528181610b570152610e6101526000818161045601528181610ae70152610df101526000818161049001526110e20152600081816103e401528181610a4901528181610f9a0152611131015261211c6000f3fe608060405234801561001057600080fd5b50600436106101e55760003560e01c806388a7ca5c1161010f578063b435842c116100a2578063d4ce578911610071578063d4ce5789146104b2578063d547741f146104c5578063efbe1c1c146104d8578063fc0c546a146104ff57600080fd5b8063b435842c14610449578063be9a655514610451578063c45a015514610478578063d19905381461048b57600080fd5b80639e1a4d19116100de5780639e1a4d191461041e578063a217fddf14610426578063a8bc58f21461042e578063aef2200d1461043657600080fd5b806388a7ca5c1461036957806391d1485414610395578063977bee8e146103cc578063992642e5146103df57600080fd5b80632f2ff15d116101875780636a0675cf116101565780636a0675cf1461033157806371f19f941461033a5780637eefc5251461034d5780637ff9b5961461036057600080fd5b80632f2ff15d146102f057806336568abe146103035780633a98ef391461031657806342c0e5ef1461031e57600080fd5b80631ea18fc5116101c35780631ea18fc5146102a4578063248a9ca3146102bb57806325b58c87146102de5780632e559d79146102e757600080fd5b806301ffc9a7146101ea578063144fa6d71461021257806316934fc414610227575b600080fd5b6101fd6101f8366004611e31565b610512565b60405190151581526020015b60405180910390f35b610225610220366004611cea565b610562565b005b610271610235366004611cea565b6002602081905260009182526040909120805460018201549282015460038301546004909301546001600160a01b039283169490921692909185565b604080516001600160a01b039687168152959094166020860152928401919091526060830152608082015260a001610209565b6102ad60055481565b604051908152602001610209565b6102ad6102c9366004611dec565b60009081526020819052604090206001015490565b6102ad60065481565b6102ad60075481565b6102256102fe366004611e05565b6107c9565b610225610311366004611e05565b6107f4565b6007546102ad565b6102ad61032c366004611dec565b610880565b6102ad60085481565b610225610348366004611dec565b6108a2565b6102ad61035b366004611dec565b610ad3565b6102ad60045481565b61037c610377366004611d05565b610ae3565b6040516001600160e01b03199091168152602001610209565b6101fd6103a3366004611e05565b6000918252602082815260408084206001600160a01b0393909316845291905290205460ff1690565b6101fd6103da366004611da0565b610ded565b6104067f000000000000000000000000000000000000000000000000000000000000000081565b6040516001600160a01b039091168152602001610209565b6102ad611059565b6102ad600081565b6102ad6110db565b6102ad610444366004611dec565b61110b565b6102ad611119565b6102ad7f000000000000000000000000000000000000000000000000000000000000000081565b600354610406906001600160a01b031681565b6102ad7f000000000000000000000000000000000000000000000000000000000000000081565b6102ad6104c0366004611dec565b611168565b6102256104d3366004611e05565b61118b565b6102ad7f000000000000000000000000000000000000000000000000000000000000000081565b600154610406906001600160a01b031681565b60006001600160e01b031982167f7965db0b00000000000000000000000000000000000000000000000000000000148061055c57506301ffc9a760e01b6001600160e01b03198316145b92915050565b6001546001600160a01b0316156105c05760405162461bcd60e51b815260206004820152601460248201527f537461626c6520636f696e2064697361626c656400000000000000000000000060448201526064015b60405180910390fd5b6001600160a01b0381166106165760405162461bcd60e51b815260206004820152601360248201527f41646472657373206d757374206265207365740000000000000000000000000060448201526064016105b7565b6106496001600160a01b0382167f36372b07000000000000000000000000000000000000000000000000000000006111b1565b6106955760405162461bcd60e51b815260206004820152601760248201527f6e6f7420612076616c696420455243323020746f6b656e00000000000000000060448201526064016105b7565b600081905061074d816001600160a01b03166395d89b416040518163ffffffff1660e01b815260040160006040518083038186803b1580156106d657600080fd5b505afa1580156106ea573d6000803e3d6000fd5b505050506040513d6000823e601f3d908101601f191682016040526107129190810190611e5b565b6040518060400160405280600381526020017f54414c00000000000000000000000000000000000000000000000000000000008152506111d4565b6107995760405162461bcd60e51b815260206004820152601560248201527f746f6b656e206e616d65206973206e6f742054414c000000000000000000000060448201526064016105b7565b506001805473ffffffffffffffffffffffffffffffffffffffff19166001600160a01b0392909216919091179055565b6000828152602081905260409020600101546107e581336111e0565b6107ef838361125e565b505050565b6001600160a01b03811633146108725760405162461bcd60e51b815260206004820152602f60248201527f416363657373436f6e74726f6c3a2063616e206f6e6c792072656e6f756e636560448201527f20726f6c657320666f722073656c66000000000000000000000000000000000060648201526084016105b7565b61087c82826112fc565b5050565b6000600554826108909190612009565b61055c90670de0b6b3a764000061202b565b60006108ae81336111e0565b6001546001600160a01b03166109065760405162461bcd60e51b815260206004820152601560248201527f54414c20746f6b656e206e6f742079657420736574000000000000000000000060448201526064016105b7565b60065482111561097e5760405162461bcd60e51b815260206004820152602b60248201527f6e6f7420656e6f75676820737461626c6520636f696e206c65667420696e207460448201527f686520636f6e747261637400000000000000000000000000000000000000000060648201526084016105b7565b600061098983610ad3565b9050826006600082825461099d919061204a565b90915550506001546040516323b872dd60e01b8152336004820152306024820152604481018390526001600160a01b03909116906323b872dd90606401602060405180830381600087803b1580156109f457600080fd5b505af1158015610a08573d6000803e3d6000fd5b505050506040513d601f19601f82011682018060405250810190610a2c9190611dca565b5060405163a9059cbb60e01b8152336004820152602481018490527f00000000000000000000000000000000000000000000000000000000000000006001600160a01b03169063a9059cbb90604401602060405180830381600087803b158015610a9557600080fd5b505af1158015610aa9573d6000803e3d6000fd5b505050506040513d601f19601f82011682018060405250810190610acd9190611dca565b50505050565b6000600454826108909190612009565b60007f0000000000000000000000000000000000000000000000000000000000000000421015610b555760405162461bcd60e51b815260206004820152601e60248201527f7374616b696e6720706572696f64206e6f74207965742073746172746564000060448201526064016105b7565b7f0000000000000000000000000000000000000000000000000000000000000000421115610bc55760405162461bcd60e51b815260206004820152601f60248201527f7374616b696e6720706572696f6420616c72656164792066696e69736865640060448201526064016105b7565b6001546001600160a01b0316331480610be25750610be23361137b565b610c545760405162461bcd60e51b815260206004820152602160248201527f556e7265636f676e697a656420455243323020746f6b656e207265636569766560448201527f640000000000000000000000000000000000000000000000000000000000000060648201526084016105b7565b6001546001600160a01b0316331415610cde576000610ca884848080601f01602080910402602001604051908101604052809392919081815260200183838082843760009201919091525061141292505050565b9050610cb586828761146d565b7f88a7ca5c75456956db1e96e88ee87aca8bdad85895835c2dc76fcc96396569cf915050610de4565b610ce73361137b565b15610d76576001546001600160a01b0316610d6a5760405162461bcd60e51b815260206004820152602a60248201527f54414c20746f6b656e206e6f7420796574207365742e20526566756e64206e6f60448201527f7420706f737369626c650000000000000000000000000000000000000000000060648201526084016105b7565b33610cb586828761162c565b60405162461bcd60e51b815260206004820152602360248201527f556e7265636f676e697a6564204552433133363320746f6b656e20726563656960448201527f766564000000000000000000000000000000000000000000000000000000000060648201526084016105b7565b95945050505050565b60007f0000000000000000000000000000000000000000000000000000000000000000421015610e5f5760405162461bcd60e51b815260206004820152601e60248201527f7374616b696e6720706572696f64206e6f74207965742073746172746564000060448201526064016105b7565b7f0000000000000000000000000000000000000000000000000000000000000000421115610ecf5760405162461bcd60e51b815260206004820152601f60248201527f7374616b696e6720706572696f6420616c72656164792066696e69736865640060448201526064016105b7565b6001546001600160a01b031615610f285760405162461bcd60e51b815260206004820152601460248201527f537461626c6520636f696e2064697361626c656400000000000000000000000060448201526064016105b7565b60008211610f785760405162461bcd60e51b815260206004820152601560248201527f616d6f756e742063616e6e6f74206265207a65726f000000000000000000000060448201526064016105b7565b6040516323b872dd60e01b8152336004820152306024820152604481018390527f00000000000000000000000000000000000000000000000000000000000000006001600160a01b0316906323b872dd90606401602060405180830381600087803b158015610fe657600080fd5b505af1158015610ffa573d6000803e3d6000fd5b505050506040513d601f19601f8201168201806040525081019061101e9190611dca565b50600061102a83610ad3565b9050826006600082825461103e9190611ff1565b9091555061104f905033858361146d565b5060019392505050565b6001546040516370a0823160e01b81523060048201526000916001600160a01b0316906370a08231906024015b60206040518083038186803b15801561109e57600080fd5b505afa1580156110b2573d6000803e3d6000fd5b505050506040513d601f19601f820116820180604052508101906110d69190611f08565b905090565b60006008547f00000000000000000000000000000000000000000000000000000000000000006110d6919061204a565b600061055c61032c83610ad3565b6040516370a0823160e01b81523060048201526000907f00000000000000000000000000000000000000000000000000000000000000006001600160a01b0316906370a0823190602401611086565b6000670de0b6b3a764000060055483611181919061202b565b61055c9190612009565b6000828152602081905260409020600101546111a781336111e0565b6107ef83836112fc565b60006111bc83611814565b80156111cd57506111cd8383611847565b9392505050565b60006111cd8383611945565b6000828152602081815260408083206001600160a01b038516845290915290205460ff1661087c5761121c816001600160a01b0316601461196a565b61122783602061196a565b604051602001611238929190611f3d565b60408051601f198184030181529082905262461bcd60e51b82526105b791600401611fbe565b6000828152602081815260408083206001600160a01b038516845290915290205460ff1661087c576000828152602081815260408083206001600160a01b03851684529091529020805460ff191660011790556112b83390565b6001600160a01b0316816001600160a01b0316837f2f8788117e7eff1d82e926ec794901d17c78024a50270940304540a733656f0d60405160405180910390a45050565b6000828152602081815260408083206001600160a01b038516845290915290205460ff161561087c576000828152602081815260408083206001600160a01b0385168085529252808320805460ff1916905551339285917ff6391f5c32d9c69d2a47ea670b442974b53935d1edc7fd64eb21e047a839171b9190a45050565b6003546040517f099aba560000000000000000000000000000000000000000000000000000000081526001600160a01b038381166004830152600092169063099aba569060240160206040518083038186803b1580156113da57600080fd5b505afa1580156113ee573d6000803e3d6000fd5b505050506040513d601f19601f8201168201806040525081019061055c9190611dca565b600081516014146114655760405162461bcd60e51b815260206004820152601f60248201527f696e76616c69642064617461206c656e67746820666f7220616464726573730060448201526064016105b7565b506014015190565b6114768261137b565b6114c25760405162461bcd60e51b815260206004820152601860248201527f6e6f7420612076616c69642074616c656e7420746f6b656e000000000000000060448201526064016105b7565b6001600160a01b03838116600090815260026020526040902054161561152a5760405162461bcd60e51b815260206004820152601960248201527f6164647265737320616c726561647920686173207374616b650000000000000060448201526064016105b7565b6000811161157a5760405162461bcd60e51b815260206004820152601560248201527f616d6f756e742063616e6e6f74206265207a65726f000000000000000000000060448201526064016105b7565b600061158582610880565b6040805160a0810182526001600160a01b0380881680835287821660208085019182528486018981526060860188815242608088019081526000958652600293849052979094209551865490861673ffffffffffffffffffffffffffffffffffffffff199182161787559251600187018054919096169316929092179093555191830191909155516003820155905160049091015560078390559050610acd848483611b4b565b6116358261137b565b6116815760405162461bcd60e51b815260206004820152601860248201527f6e6f7420612076616c69642074616c656e7420746f6b656e000000000000000060448201526064016105b7565b6001600160a01b0380841660008181526002602052604090208054909216146116ec5760405162461bcd60e51b815260206004820152601460248201527f7374616b6520646f6573206e6f7420657869737400000000000000000000000060448201526064016105b7565b818160030154146116fc57600080fd5b60028101546001546040516370a0823160e01b81523060048201526001600160a01b03909116906370a082319060240160206040518083038186803b15801561174457600080fd5b505afa158015611758573d6000803e3d6000fd5b505050506040513d601f19601f8201168201806040525081019061177c9190611f08565b10156117f05760405162461bcd60e51b815260206004820152602160248201527f6e6f7420656e6f7567682054414c20746f2066756c66696c6c2072657175657360448201527f740000000000000000000000000000000000000000000000000000000000000060648201526084016105b7565b6117fa8383611bcb565b80546002820154610acd916001600160a01b031690611c48565b6000611827826301ffc9a760e01b611847565b801561055c5750611840826001600160e01b0319611847565b1592915050565b604080516001600160e01b0319831660248083019190915282518083039091018152604490910182526020810180517bffffffffffffffffffffffffffffffffffffffffffffffffffffffff166301ffc9a760e01b179052905160009190829081906001600160a01b03871690617530906118c3908690611f21565b6000604051808303818686fa925050503d80600081146118ff576040519150601f19603f3d011682016040523d82523d6000602084013e611904565b606091505b509150915060208151101561191f576000935050505061055c565b81801561193b57508080602001905181019061193b9190611dca565b9695505050505050565b6000815183511480156111cd5750508051602091820120825192909101919091201490565b6060600061197983600261202b565b611984906002611ff1565b67ffffffffffffffff81111561199c5761199c6120d0565b6040519080825280601f01601f1916602001820160405280156119c6576020820181803683370190505b5090507f3000000000000000000000000000000000000000000000000000000000000000816000815181106119fd576119fd6120ba565b60200101906001600160f81b031916908160001a9053507f780000000000000000000000000000000000000000000000000000000000000081600181518110611a4857611a486120ba565b60200101906001600160f81b031916908160001a9053506000611a6c84600261202b565b611a77906001611ff1565b90505b6001811115611afc577f303132333435363738396162636465660000000000000000000000000000000085600f1660108110611ab857611ab86120ba565b1a60f81b828281518110611ace57611ace6120ba565b60200101906001600160f81b031916908160001a90535060049490941c93611af58161208d565b9050611a7a565b5083156111cd5760405162461bcd60e51b815260206004820181905260248201527f537472696e67733a20686578206c656e67746820696e73756666696369656e7460448201526064016105b7565b6040517f40c10f190000000000000000000000000000000000000000000000000000000081526001600160a01b038481166004830152602482018390528316906340c10f1990604401600060405180830381600087803b158015611bae57600080fd5b505af1158015611bc2573d6000803e3d6000fd5b50505050505050565b6040517f9dc29fac000000000000000000000000000000000000000000000000000000008152306004820152602481018290526001600160a01b03831690639dc29fac90604401600060405180830381600087803b158015611c2c57600080fd5b505af1158015611c40573d6000803e3d6000fd5b505050505050565b60015460405163a9059cbb60e01b81526001600160a01b038481166004830152602482018490529091169063a9059cbb90604401602060405180830381600087803b158015611c9657600080fd5b505af1158015611caa573d6000803e3d6000fd5b505050506040513d601f19601f820116820180604052508101906107ef9190611dca565b80356001600160a01b0381168114611ce557600080fd5b919050565b600060208284031215611cfc57600080fd5b6111cd82611cce565b600080600080600060808688031215611d1d57600080fd5b611d2686611cce565b9450611d3460208701611cce565b935060408601359250606086013567ffffffffffffffff80821115611d5857600080fd5b818801915088601f830112611d6c57600080fd5b813581811115611d7b57600080fd5b896020828501011115611d8d57600080fd5b9699959850939650602001949392505050565b60008060408385031215611db357600080fd5b611dbc83611cce565b946020939093013593505050565b600060208284031215611ddc57600080fd5b815180151581146111cd57600080fd5b600060208284031215611dfe57600080fd5b5035919050565b60008060408385031215611e1857600080fd5b82359150611e2860208401611cce565b90509250929050565b600060208284031215611e4357600080fd5b81356001600160e01b0319811681146111cd57600080fd5b600060208284031215611e6d57600080fd5b815167ffffffffffffffff80821115611e8557600080fd5b818401915084601f830112611e9957600080fd5b815181811115611eab57611eab6120d0565b604051601f8201601f19908116603f01168101908382118183101715611ed357611ed36120d0565b81604052828152876020848701011115611eec57600080fd5b611efd836020830160208801612061565b979650505050505050565b600060208284031215611f1a57600080fd5b5051919050565b60008251611f33818460208701612061565b9190910192915050565b7f416363657373436f6e74726f6c3a206163636f756e7420000000000000000000815260008351611f75816017850160208801612061565b7f206973206d697373696e6720726f6c65200000000000000000000000000000006017918401918201528351611fb2816028840160208801612061565b01602801949350505050565b6020815260008251806020840152611fdd816040850160208701612061565b601f01601f19169190910160400192915050565b60008219821115612004576120046120a4565b500190565b60008261202657634e487b7160e01b600052601260045260246000fd5b500490565b6000816000190483118215151615612045576120456120a4565b500290565b60008282101561205c5761205c6120a4565b500390565b60005b8381101561207c578181015183820152602001612064565b83811115610acd5750506000910152565b60008161209c5761209c6120a4565b506000190190565b634e487b7160e01b600052601160045260246000fd5b634e487b7160e01b600052603260045260246000fd5b634e487b7160e01b600052604160045260246000fdfea26469706673582212205aaa4d00ebda10e58e94f9b1b61f57d42854f5f19fb91b2d2bfe9ccfa47c44ce64736f6c63430008070033",
  "linkReferences": {},
  "deployedLinkReferences": {}
}