{
  "_format": "hh-sol-artifact-1",
  "contractName": "TalentFactory",
  "sourceName": "contracts/TalentFactory.sol",
  "abi": [
    {
      "inputs": [],
      "stateMutability": "nonpayable",
      "type": "constructor"
    },
    {
      "anonymous": false,
      "inputs": [
        {
          "indexed": true,
          "internalType": "bytes32",
          "name": "role",
          "type": "bytes32"
        },
        {
          "indexed": true,
          "internalType": "bytes32",
          "name": "previousAdminRole",
          "type": "bytes32"
        },
        {
          "indexed": true,
          "internalType": "bytes32",
          "name": "newAdminRole",
          "type": "bytes32"
        }
      ],
      "name": "RoleAdminChanged",
      "type": "event"
    },
    {
      "anonymous": false,
      "inputs": [
        {
          "indexed": true,
          "internalType": "bytes32",
          "name": "role",
          "type": "bytes32"
        },
        {
          "indexed": true,
          "internalType": "address",
          "name": "account",
          "type": "address"
        },
        {
          "indexed": true,
          "internalType": "address",
          "name": "sender",
          "type": "address"
        }
      ],
      "name": "RoleGranted",
      "type": "event"
    },
    {
      "anonymous": false,
      "inputs": [
        {
          "indexed": true,
          "internalType": "bytes32",
          "name": "role",
          "type": "bytes32"
        },
        {
          "indexed": true,
          "internalType": "address",
          "name": "account",
          "type": "address"
        },
        {
          "indexed": true,
          "internalType": "address",
          "name": "sender",
          "type": "address"
        }
      ],
      "name": "RoleRevoked",
      "type": "event"
    },
    {
      "anonymous": false,
      "inputs": [
        {
          "indexed": true,
          "internalType": "address",
          "name": "talent",
          "type": "address"
        },
        {
          "indexed": true,
          "internalType": "address",
          "name": "token",
          "type": "address"
        }
      ],
      "name": "TalentCreated",
      "type": "event"
    },
    {
      "inputs": [],
      "name": "DEFAULT_ADMIN_ROLE",
      "outputs": [
        {
          "internalType": "bytes32",
          "name": "",
          "type": "bytes32"
        }
      ],
      "stateMutability": "view",
      "type": "function"
    },
    {
      "inputs": [],
      "name": "INITIAL_SUPPLY",
      "outputs": [
        {
          "internalType": "uint256",
          "name": "",
          "type": "uint256"
        }
      ],
      "stateMutability": "view",
      "type": "function"
    },
    {
      "inputs": [],
      "name": "ROLE_MINTER",
      "outputs": [
        {
          "internalType": "bytes32",
          "name": "",
          "type": "bytes32"
        }
      ],
      "stateMutability": "view",
      "type": "function"
    },
    {
      "inputs": [
        {
          "internalType": "address",
          "name": "_talent",
          "type": "address"
        },
        {
          "internalType": "string",
          "name": "_name",
          "type": "string"
        },
        {
          "internalType": "string",
          "name": "_symbol",
          "type": "string"
        }
      ],
      "name": "createTalent",
      "outputs": [
        {
          "internalType": "address",
          "name": "",
          "type": "address"
        }
      ],
      "stateMutability": "nonpayable",
      "type": "function"
    },
    {
      "inputs": [
        {
          "internalType": "bytes32",
          "name": "role",
          "type": "bytes32"
        }
      ],
      "name": "getRoleAdmin",
      "outputs": [
        {
          "internalType": "bytes32",
          "name": "",
          "type": "bytes32"
        }
      ],
      "stateMutability": "view",
      "type": "function"
    },
    {
      "inputs": [
        {
          "internalType": "bytes32",
          "name": "role",
          "type": "bytes32"
        },
        {
          "internalType": "address",
          "name": "account",
          "type": "address"
        }
      ],
      "name": "grantRole",
      "outputs": [],
      "stateMutability": "nonpayable",
      "type": "function"
    },
    {
      "inputs": [
        {
          "internalType": "bytes32",
          "name": "role",
          "type": "bytes32"
        },
        {
          "internalType": "address",
          "name": "account",
          "type": "address"
        }
      ],
      "name": "hasRole",
      "outputs": [
        {
          "internalType": "bool",
          "name": "",
          "type": "bool"
        }
      ],
      "stateMutability": "view",
      "type": "function"
    },
    {
      "inputs": [],
      "name": "implementation",
      "outputs": [
        {
          "internalType": "address",
          "name": "",
          "type": "address"
        }
      ],
      "stateMutability": "view",
      "type": "function"
    },
    {
      "inputs": [
        {
          "internalType": "string",
          "name": "_symbol",
          "type": "string"
        }
      ],
      "name": "isSymbol",
      "outputs": [
        {
          "internalType": "bool",
          "name": "",
          "type": "bool"
        }
      ],
      "stateMutability": "view",
      "type": "function"
    },
    {
      "inputs": [
        {
          "internalType": "address",
          "name": "addr",
          "type": "address"
        }
      ],
      "name": "isTalent",
      "outputs": [
        {
          "internalType": "bool",
          "name": "",
          "type": "bool"
        }
      ],
      "stateMutability": "view",
      "type": "function"
    },
    {
      "inputs": [
        {
          "internalType": "address",
          "name": "addr",
          "type": "address"
        }
      ],
      "name": "isTalentToken",
      "outputs": [
        {
          "internalType": "bool",
          "name": "",
          "type": "bool"
        }
      ],
      "stateMutability": "view",
      "type": "function"
    },
    {
      "inputs": [],
      "name": "minter",
      "outputs": [
        {
          "internalType": "address",
          "name": "",
          "type": "address"
        }
      ],
      "stateMutability": "view",
      "type": "function"
    },
    {
      "inputs": [
        {
          "internalType": "bytes32",
          "name": "role",
          "type": "bytes32"
        },
        {
          "internalType": "address",
          "name": "account",
          "type": "address"
        }
      ],
      "name": "renounceRole",
      "outputs": [],
      "stateMutability": "nonpayable",
      "type": "function"
    },
    {
      "inputs": [
        {
          "internalType": "bytes32",
          "name": "role",
          "type": "bytes32"
        },
        {
          "internalType": "address",
          "name": "account",
          "type": "address"
        }
      ],
      "name": "revokeRole",
      "outputs": [],
      "stateMutability": "nonpayable",
      "type": "function"
    },
    {
      "inputs": [
        {
          "internalType": "address",
          "name": "_minter",
          "type": "address"
        }
      ],
      "name": "setMinter",
      "outputs": [],
      "stateMutability": "nonpayable",
      "type": "function"
    },
    {
      "inputs": [
        {
          "internalType": "bytes4",
          "name": "interfaceId",
          "type": "bytes4"
        }
      ],
      "name": "supportsInterface",
      "outputs": [
        {
          "internalType": "bool",
          "name": "",
          "type": "bool"
        }
      ],
      "stateMutability": "view",
      "type": "function"
    },
    {
      "inputs": [
        {
          "internalType": "string",
          "name": "",
          "type": "string"
        }
      ],
      "name": "symbolsToTokens",
      "outputs": [
        {
          "internalType": "address",
          "name": "",
          "type": "address"
        }
      ],
      "stateMutability": "view",
      "type": "function"
    },
    {
      "inputs": [
        {
          "internalType": "address",
          "name": "",
          "type": "address"
        }
      ],
      "name": "talentsToTokens",
      "outputs": [
        {
          "internalType": "address",
          "name": "",
          "type": "address"
        }
      ],
      "stateMutability": "view",
      "type": "function"
    },
    {
      "inputs": [
        {
          "internalType": "address",
          "name": "",
          "type": "address"
        }
      ],
      "name": "tokensToTalents",
      "outputs": [
        {
          "internalType": "address",
          "name": "",
          "type": "address"
        }
      ],
      "stateMutability": "view",
      "type": "function"
    }
  ],
  "bytecode": "0x60a060405234801561001057600080fd5b5061001c60003361005a565b60405161002890610106565b604051809103906000f080158015610044573d6000803e3d6000fd5b5060601b6001600160601b031916608052610114565b6100648282610068565b5050565b6000828152602081815260408083206001600160a01b038516845290915290205460ff16610064576000828152602081815260408083206001600160a01b03851684529091529020805460ff191660011790556100c23390565b6001600160a01b0316816001600160a01b0316837f2f8788117e7eff1d82e926ec794901d17c78024a50270940304540a733656f0d60405160405180910390a45050565b611ebb80620012b183390190565b60805160601c6111776200013a600039600081816102cd015261056501526111776000f3fe608060405234801561001057600080fd5b50600436106101515760003560e01c806336568abe116100cd57806392afc33a11610081578063d547741f11610066578063d547741f1461037e578063ef31f42414610391578063fca3b5aa146103ba57600080fd5b806392afc33a1461034f578063a217fddf1461037657600080fd5b80635c60da1b116100b25780635c60da1b146102c85780637ffed926146102ef57806391d148541461031857600080fd5b806336568abe1461028757806343b1e3211461029a57600080fd5b8063242fa5db116101245780632dbc679c116101095780632dbc679c1461022e5780632f2ff15d146102625780632ff2e9dc1461027757600080fd5b8063242fa5db146101ea578063248a9ca3146101fd57600080fd5b806301ffc9a714610156578063075461721461017e578063099aba56146101a95780631b0f2874146101d7575b600080fd5b610169610164366004610ed9565b6103cd565b60405190151581526020015b60405180910390f35b600454610191906001600160a01b031681565b6040516001600160a01b039091168152602001610175565b6101696101b7366004610e05565b6001600160a01b0390811660009081526002602052604090205416151590565b6101696101e5366004610f1b565b6103de565b6101916101f8366004610e20565b61041b565b61022061020b366004610e94565b60009081526020819052604090206001015490565b604051908152602001610175565b61019161023c366004610f1b565b80516020818301810180516003825292820191909301209152546001600160a01b031681565b610275610270366004610ead565b6106ee565b005b610220683635c9adc5dea0000081565b610275610295366004610ead565b610719565b6101696102a8366004610e05565b6001600160a01b0390811660009081526001602052604090205416151590565b6101917f000000000000000000000000000000000000000000000000000000000000000081565b6101916102fd366004610e05565b6001602052600090815260409020546001600160a01b031681565b610169610326366004610ead565b6000918252602082815260408084206001600160a01b0393909316845291905290205460ff1690565b6102207ff0887ba65ee2024ea881d91b74c2450ef19e1557f03bed3ea9f16b037cbe2dc981565b610220600081565b61027561038c366004610ead565b6107a5565b61019161039f366004610e05565b6002602052600090815260409020546001600160a01b031681565b6102756103c8366004610e05565b6107cb565b60006103d882610882565b92915050565b6000806001600160a01b03166003836040516103fa9190610f84565b908152604051908190036020019020546001600160a01b0316141592915050565b6001600160a01b038084166000908152600160205260408120549091161561048a5760405162461bcd60e51b815260206004820152601b60248201527f6164647265737320616c726561647920686173206120746f6b656e000000000060448201526064015b60405180910390fd5b610493826103de565b156105065760405162461bcd60e51b815260206004820152602c60248201527f74616c656e7420746f6b656e207769746820746869732073796d626f6c20616c60448201527f72656164792065786973747300000000000000000000000000000000000000006064820152608401610481565b6004546001600160a01b031661055e5760405162461bcd60e51b815260206004820152601260248201527f6d696e746572206e6f74207965742073657400000000000000000000000000006044820152606401610481565b60006105897f0000000000000000000000000000000000000000000000000000000000000000610919565b600480546040517f7e77c5030000000000000000000000000000000000000000000000000000000081529293506001600160a01b0380851693637e77c503936105e7938a938a93683635c9adc5dea00000938e939092169101611034565b600060405180830381600087803b15801561060157600080fd5b505af1158015610615573d6000803e3d6000fd5b505050506001600160a01b0385811660009081526001602052604090819020805473ffffffffffffffffffffffffffffffffffffffff191692841692909217909155518190600390610668908690610f84565b9081526040805160209281900383018120805473ffffffffffffffffffffffffffffffffffffffff199081166001600160a01b0396871617909155858516600081815260029095529284208054909116948a1694851790559092917fc3cff6724200e4907489fef1d1ede51dd32ca7ac86d62c448475be4c3b1d5b5091a3949350505050565b60008281526020819052604090206001015461070a81336109d4565b6107148383610a52565b505050565b6001600160a01b03811633146107975760405162461bcd60e51b815260206004820152602f60248201527f416363657373436f6e74726f6c3a2063616e206f6e6c792072656e6f756e636560448201527f20726f6c657320666f722073656c6600000000000000000000000000000000006064820152608401610481565b6107a18282610af0565b5050565b6000828152602081905260409020600101546107c181336109d4565b6107148383610af0565b60006107d781336109d4565b6004546001600160a01b0316156108305760405162461bcd60e51b815260206004820152601260248201527f6d696e74657220616c72656164792073657400000000000000000000000000006044820152606401610481565b6004805473ffffffffffffffffffffffffffffffffffffffff19166001600160a01b0384161790556107a17ff0887ba65ee2024ea881d91b74c2450ef19e1557f03bed3ea9f16b037cbe2dc983610b6f565b60007fffffffff0000000000000000000000000000000000000000000000000000000082167f7965db0b0000000000000000000000000000000000000000000000000000000014806103d857507f01ffc9a7000000000000000000000000000000000000000000000000000000007fffffffff000000000000000000000000000000000000000000000000000000008316146103d8565b60006040517f3d602d80600a3d3981f3363d3d373d3d3d363d7300000000000000000000000081528260601b60148201527f5af43d82803e903d91602b57fd5bf3000000000000000000000000000000000060288201526037816000f09150506001600160a01b0381166109cf5760405162461bcd60e51b815260206004820152601660248201527f455243313136373a20637265617465206661696c6564000000000000000000006044820152606401610481565b919050565b6000828152602081815260408083206001600160a01b038516845290915290205460ff166107a157610a10816001600160a01b03166014610b79565b610a1b836020610b79565b604051602001610a2c929190610fa0565b60408051601f198184030181529082905262461bcd60e51b825261048191600401611021565b6000828152602081815260408083206001600160a01b038516845290915290205460ff166107a1576000828152602081815260408083206001600160a01b03851684529091529020805460ff19166001179055610aac3390565b6001600160a01b0316816001600160a01b0316837f2f8788117e7eff1d82e926ec794901d17c78024a50270940304540a733656f0d60405160405180910390a45050565b6000828152602081815260408083206001600160a01b038516845290915290205460ff16156107a1576000828152602081815260408083206001600160a01b0385168085529252808320805460ff1916905551339285917ff6391f5c32d9c69d2a47ea670b442974b53935d1edc7fd64eb21e047a839171b9190a45050565b6107a18282610a52565b60606000610b88836002611099565b610b93906002611081565b67ffffffffffffffff811115610bab57610bab61112b565b6040519080825280601f01601f191660200182016040528015610bd5576020820181803683370190505b5090507f300000000000000000000000000000000000000000000000000000000000000081600081518110610c0c57610c0c611115565b60200101906001600160f81b031916908160001a9053507f780000000000000000000000000000000000000000000000000000000000000081600181518110610c5757610c57611115565b60200101906001600160f81b031916908160001a9053506000610c7b846002611099565b610c86906001611081565b90505b6001811115610d0b577f303132333435363738396162636465660000000000000000000000000000000085600f1660108110610cc757610cc7611115565b1a60f81b828281518110610cdd57610cdd611115565b60200101906001600160f81b031916908160001a90535060049490941c93610d04816110e8565b9050610c89565b508315610d5a5760405162461bcd60e51b815260206004820181905260248201527f537472696e67733a20686578206c656e67746820696e73756666696369656e746044820152606401610481565b9392505050565b80356001600160a01b03811681146109cf57600080fd5b600082601f830112610d8957600080fd5b813567ffffffffffffffff80821115610da457610da461112b565b604051601f8301601f19908116603f01168101908282118183101715610dcc57610dcc61112b565b81604052838152866020858801011115610de557600080fd5b836020870160208301376000602085830101528094505050505092915050565b600060208284031215610e1757600080fd5b610d5a82610d61565b600080600060608486031215610e3557600080fd5b610e3e84610d61565b9250602084013567ffffffffffffffff80821115610e5b57600080fd5b610e6787838801610d78565b93506040860135915080821115610e7d57600080fd5b50610e8a86828701610d78565b9150509250925092565b600060208284031215610ea657600080fd5b5035919050565b60008060408385031215610ec057600080fd5b82359150610ed060208401610d61565b90509250929050565b600060208284031215610eeb57600080fd5b81357fffffffff0000000000000000000000000000000000000000000000000000000081168114610d5a57600080fd5b600060208284031215610f2d57600080fd5b813567ffffffffffffffff811115610f4457600080fd5b610f5084828501610d78565b949350505050565b60008151808452610f708160208601602086016110b8565b601f01601f19169290920160200192915050565b60008251610f968184602087016110b8565b9190910192915050565b7f416363657373436f6e74726f6c3a206163636f756e7420000000000000000000815260008351610fd88160178501602088016110b8565b7f206973206d697373696e6720726f6c652000000000000000000000000000000060179184019182015283516110158160288401602088016110b8565b01602801949350505050565b602081526000610d5a6020830184610f58565b60a08152600061104760a0830188610f58565b82810360208401526110598188610f58565b604084019690965250506001600160a01b039283166060820152911660809091015292915050565b60008219821115611094576110946110ff565b500190565b60008160001904831182151516156110b3576110b36110ff565b500290565b60005b838110156110d35781810151838201526020016110bb565b838111156110e2576000848401525b50505050565b6000816110f7576110f76110ff565b506000190190565b634e487b7160e01b600052601160045260246000fd5b634e487b7160e01b600052603260045260246000fd5b634e487b7160e01b600052604160045260246000fdfea26469706673582212205f4b0d10d278da136804452ec29488b97cb131512315a93d328ef10b8d52da3864736f6c63430008070033608060405234801561001057600080fd5b50611e9b806100206000396000f3fe608060405234801561001057600080fd5b50600436106101c45760003560e01c806370a08231116100f9578063a457c2d711610097578063cae9ca5111610071578063cae9ca51146103ef578063d547741f14610402578063d8fbe99414610415578063dd62ed3e1461042857600080fd5b8063a457c2d7146103b6578063a9059cbb146103c9578063c1d34b89146103dc57600080fd5b806391d14854116100d357806391d148541461035a57806395d89b41146103935780639dc29fac1461039b578063a217fddf146103ae57600080fd5b806370a08231146102f75780637e77c5031461032057806389ffa6371461033357600080fd5b80632f2ff15d1161016657806336568abe1161014057806336568abe146102ab57806339509351146102be5780634000aea0146102d157806340c10f19146102e457600080fd5b80632f2ff15d14610274578063313ce567146102895780633177029f1461029857600080fd5b80631296ee62116101a25780631296ee621461021957806318160ddd1461022c57806323b872dd1461023e578063248a9ca31461025157600080fd5b806301ffc9a7146101c957806306fdde03146101f1578063095ea7b314610206575b600080fd5b6101dc6101d7366004611b4b565b610461565b60405190151581526020015b60405180910390f35b6101f96104c0565b6040516101e89190611d2e565b6101dc610214366004611a8e565b610552565b6101dc610227366004611a8e565b610568565b6099545b6040519081526020016101e8565b6101dc61024c3660046119ea565b61058b565b61023061025f366004611b0f565b60009081526065602052604090206001015490565b610287610282366004611b28565b61064f565b005b604051601281526020016101e8565b6101dc6102a6366004611a8e565b61067a565b6102876102b9366004611b28565b610696565b6101dc6102cc366004611a8e565b610722565b6101dc6102df366004611ab8565b61075e565b6102876102f2366004611a8e565b6107dc565b61023061030536600461199c565b6001600160a01b031660009081526097602052604090205490565b61028761032e366004611b85565b610811565b6102307f35e43c822922c4b6c27ed629e75b34bfd2905755c320bae6efcbadb8d2a4205881565b6101dc610368366004611b28565b60009182526065602090815260408084206001600160a01b0393909316845291905290205460ff1690565b6101f961091f565b6102876103a9366004611a8e565b61092e565b610230600081565b6101dc6103c4366004611a8e565b610963565b6101dc6103d7366004611a8e565b610a0a565b6101dc6103ea366004611a26565b610a17565b6101dc6103fd366004611ab8565b610a94565b610287610410366004611b28565b610b1e565b6101dc6104233660046119ea565b610b44565b6102306104363660046119b7565b6001600160a01b03918216600090815260986020908152604080832093909416825291909152205490565b60006001600160e01b031982167f36372b070000000000000000000000000000000000000000000000000000000014806104ab57506001600160e01b0319821663b0202a1160e01b145b806104ba57506104ba82610b61565b92915050565b6060609a80546104cf90611dd2565b80601f01602080910402602001604051908101604052809291908181526020018280546104fb90611dd2565b80156105485780601f1061051d57610100808354040283529160200191610548565b820191906000526020600020905b81548152906001019060200180831161052b57829003601f168201915b5050505050905090565b600061055f338484610b86565b50600192915050565b600061058483836040518060200160405280600081525061075e565b9392505050565b6000610598848484610cde565b6001600160a01b0384166000908152609860209081526040808320338452909152902054828110156106375760405162461bcd60e51b815260206004820152602860248201527f45524332303a207472616e7366657220616d6f756e742065786365656473206160448201527f6c6c6f77616e636500000000000000000000000000000000000000000000000060648201526084015b60405180910390fd5b6106448533858403610b86565b506001949350505050565b60008281526065602052604090206001015461066b8133610ef7565b6106758383610f77565b505050565b6000610584838360405180602001604052806000815250610a94565b6001600160a01b03811633146107145760405162461bcd60e51b815260206004820152602f60248201527f416363657373436f6e74726f6c3a2063616e206f6e6c792072656e6f756e636560448201527f20726f6c657320666f722073656c660000000000000000000000000000000000606482015260840161062e565b61071e8282611019565b5050565b3360008181526098602090815260408083206001600160a01b0387168452909152812054909161055f918590610759908690611d41565b610b86565b600061076a8484610a0a565b506107773385858561109c565b6107d25760405162461bcd60e51b815260206004820152602660248201527f455243313336333a205f636865636b416e6443616c6c5472616e73666572207260448201526565766572747360d01b606482015260840161062e565b5060019392505050565b7f35e43c822922c4b6c27ed629e75b34bfd2905755c320bae6efcbadb8d2a420586108078133610ef7565b610675838361115a565b600054610100900460ff168061082a575060005460ff16155b61088d5760405162461bcd60e51b815260206004820152602e60248201527f496e697469616c697a61626c653a20636f6e747261637420697320616c72656160448201526d191e481a5b9a5d1a585b1a5e995960921b606482015260840161062e565b600054610100900460ff161580156108af576000805461ffff19166101011790555b6108b7611239565b6108bf611239565b6108c986866112ec565b6108d1611239565b6108fb7f35e43c822922c4b6c27ed629e75b34bfd2905755c320bae6efcbadb8d2a42058836113c8565b610905838561115a565b8015610917576000805461ff00191690555b505050505050565b6060609b80546104cf90611dd2565b7f35e43c822922c4b6c27ed629e75b34bfd2905755c320bae6efcbadb8d2a420586109598133610ef7565b61067583836113d2565b3360009081526098602090815260408083206001600160a01b0386168452909152812054828110156109fd5760405162461bcd60e51b815260206004820152602560248201527f45524332303a2064656372656173656420616c6c6f77616e63652062656c6f7760448201527f207a65726f000000000000000000000000000000000000000000000000000000606482015260840161062e565b6107d23385858403610b86565b600061055f338484610cde565b6000610a2485858561058b565b50610a318585858561109c565b6106445760405162461bcd60e51b815260206004820152602660248201527f455243313336333a205f636865636b416e6443616c6c5472616e73666572207260448201526565766572747360d01b606482015260840161062e565b949350505050565b6000610aa08484610552565b50610aac848484611557565b6107d25760405162461bcd60e51b815260206004820152602560248201527f455243313336333a205f636865636b416e6443616c6c417070726f766520726560448201527f7665727473000000000000000000000000000000000000000000000000000000606482015260840161062e565b600082815260656020526040902060010154610b3a8133610ef7565b6106758383611019565b6000610a8c84848460405180602001604052806000815250610a17565b60006001600160e01b0319821663b0202a1160e01b14806104ba57506104ba82611612565b6001600160a01b038316610c015760405162461bcd60e51b8152602060048201526024808201527f45524332303a20617070726f76652066726f6d20746865207a65726f2061646460448201527f7265737300000000000000000000000000000000000000000000000000000000606482015260840161062e565b6001600160a01b038216610c7d5760405162461bcd60e51b815260206004820152602260248201527f45524332303a20617070726f766520746f20746865207a65726f20616464726560448201527f7373000000000000000000000000000000000000000000000000000000000000606482015260840161062e565b6001600160a01b0383811660008181526098602090815260408083209487168084529482529182902085905590518481527f8c5be1e5ebec7d5bd14f71427d1e84f3dd0314c0f7b2291e5b200ac8c7c3b925910160405180910390a3505050565b6001600160a01b038316610d5a5760405162461bcd60e51b815260206004820152602560248201527f45524332303a207472616e736665722066726f6d20746865207a65726f20616460448201527f6472657373000000000000000000000000000000000000000000000000000000606482015260840161062e565b6001600160a01b038216610dd65760405162461bcd60e51b815260206004820152602360248201527f45524332303a207472616e7366657220746f20746865207a65726f206164647260448201527f6573730000000000000000000000000000000000000000000000000000000000606482015260840161062e565b6001600160a01b03831660009081526097602052604090205481811015610e655760405162461bcd60e51b815260206004820152602660248201527f45524332303a207472616e7366657220616d6f756e742065786365656473206260448201527f616c616e63650000000000000000000000000000000000000000000000000000606482015260840161062e565b6001600160a01b03808516600090815260976020526040808220858503905591851681529081208054849290610e9c908490611d41565b92505081905550826001600160a01b0316846001600160a01b03167fddf252ad1be2c89b69c2b068fc378daa952ba7f163c4a11628f55a4df523b3ef84604051610ee891815260200190565b60405180910390a35b50505050565b60008281526065602090815260408083206001600160a01b038516845290915290205460ff1661071e57610f35816001600160a01b03166014611679565b610f40836020611679565b604051602001610f51929190611c40565b60408051601f198184030181529082905262461bcd60e51b825261062e91600401611d2e565b60008281526065602090815260408083206001600160a01b038516845290915290205460ff1661071e5760008281526065602090815260408083206001600160a01b03851684529091529020805460ff19166001179055610fd53390565b6001600160a01b0316816001600160a01b0316837f2f8788117e7eff1d82e926ec794901d17c78024a50270940304540a733656f0d60405160405180910390a45050565b60008281526065602090815260408083206001600160a01b038516845290915290205460ff161561071e5760008281526065602090815260408083206001600160a01b0385168085529252808320805460ff1916905551339285917ff6391f5c32d9c69d2a47ea670b442974b53935d1edc7fd64eb21e047a839171b9190a45050565b60006001600160a01b0384163b6110b557506000610a8c565b604051632229f29760e21b81526000906001600160a01b038616906388a7ca5c906110ea9033908a9089908990600401611cc1565b602060405180830381600087803b15801561110457600080fd5b505af1158015611118573d6000803e3d6000fd5b505050506040513d601f19601f8201168201806040525081019061113c9190611b68565b6001600160e01b031916632229f29760e21b14915050949350505050565b6001600160a01b0382166111b05760405162461bcd60e51b815260206004820152601f60248201527f45524332303a206d696e7420746f20746865207a65726f206164647265737300604482015260640161062e565b80609960008282546111c29190611d41565b90915550506001600160a01b038216600090815260976020526040812080548392906111ef908490611d41565b90915550506040518181526001600160a01b038316906000907fddf252ad1be2c89b69c2b068fc378daa952ba7f163c4a11628f55a4df523b3ef9060200160405180910390a35050565b600054610100900460ff1680611252575060005460ff16155b6112b55760405162461bcd60e51b815260206004820152602e60248201527f496e697469616c697a61626c653a20636f6e747261637420697320616c72656160448201526d191e481a5b9a5d1a585b1a5e995960921b606482015260840161062e565b600054610100900460ff161580156112d7576000805461ffff19166101011790555b80156112e9576000805461ff00191690555b50565b600054610100900460ff1680611305575060005460ff16155b6113685760405162461bcd60e51b815260206004820152602e60248201527f496e697469616c697a61626c653a20636f6e747261637420697320616c72656160448201526d191e481a5b9a5d1a585b1a5e995960921b606482015260840161062e565b600054610100900460ff1615801561138a576000805461ffff19166101011790555b825161139d90609a90602086019061185a565b5081516113b190609b90602085019061185a565b508015610675576000805461ff0019169055505050565b61071e8282610f77565b6001600160a01b03821661144e5760405162461bcd60e51b815260206004820152602160248201527f45524332303a206275726e2066726f6d20746865207a65726f2061646472657360448201527f7300000000000000000000000000000000000000000000000000000000000000606482015260840161062e565b6001600160a01b038216600090815260976020526040902054818110156114dd5760405162461bcd60e51b815260206004820152602260248201527f45524332303a206275726e20616d6f756e7420657863656564732062616c616e60448201527f6365000000000000000000000000000000000000000000000000000000000000606482015260840161062e565b6001600160a01b038316600090815260976020526040812083830390556099805484929061150c908490611d78565b90915550506040518281526000906001600160a01b038516907fddf252ad1be2c89b69c2b068fc378daa952ba7f163c4a11628f55a4df523b3ef9060200160405180910390a3505050565b60006001600160a01b0384163b61157057506000610584565b6040516307b04a2d60e41b81526000906001600160a01b03861690637b04a2d0906115a390339088908890600401611cfd565b602060405180830381600087803b1580156115bd57600080fd5b505af11580156115d1573d6000803e3d6000fd5b505050506040513d601f19601f820116820180604052508101906115f59190611b68565b6001600160e01b0319166307b04a2d60e41b149150509392505050565b60006001600160e01b031982167f7965db0b0000000000000000000000000000000000000000000000000000000014806104ba57507f01ffc9a7000000000000000000000000000000000000000000000000000000006001600160e01b03198316146104ba565b60606000611688836002611d59565b611693906002611d41565b67ffffffffffffffff8111156116ab576116ab611e39565b6040519080825280601f01601f1916602001820160405280156116d5576020820181803683370190505b5090507f30000000000000000000000000000000000000000000000000000000000000008160008151811061170c5761170c611e23565b60200101906001600160f81b031916908160001a9053507f78000000000000000000000000000000000000000000000000000000000000008160018151811061175757611757611e23565b60200101906001600160f81b031916908160001a905350600061177b846002611d59565b611786906001611d41565b90505b600181111561180b577f303132333435363738396162636465660000000000000000000000000000000085600f16601081106117c7576117c7611e23565b1a60f81b8282815181106117dd576117dd611e23565b60200101906001600160f81b031916908160001a90535060049490941c9361180481611dbb565b9050611789565b5083156105845760405162461bcd60e51b815260206004820181905260248201527f537472696e67733a20686578206c656e67746820696e73756666696369656e74604482015260640161062e565b82805461186690611dd2565b90600052602060002090601f01602090048101928261188857600085556118ce565b82601f106118a157805160ff19168380011785556118ce565b828001600101855582156118ce579182015b828111156118ce5782518255916020019190600101906118b3565b506118da9291506118de565b5090565b5b808211156118da57600081556001016118df565b80356001600160a01b038116811461190a57600080fd5b919050565b600082601f83011261192057600080fd5b813567ffffffffffffffff8082111561193b5761193b611e39565b604051601f8301601f19908116603f0116810190828211818310171561196357611963611e39565b8160405283815286602085880101111561197c57600080fd5b836020870160208301376000602085830101528094505050505092915050565b6000602082840312156119ae57600080fd5b610584826118f3565b600080604083850312156119ca57600080fd5b6119d3836118f3565b91506119e1602084016118f3565b90509250929050565b6000806000606084860312156119ff57600080fd5b611a08846118f3565b9250611a16602085016118f3565b9150604084013590509250925092565b60008060008060808587031215611a3c57600080fd5b611a45856118f3565b9350611a53602086016118f3565b925060408501359150606085013567ffffffffffffffff811115611a7657600080fd5b611a828782880161190f565b91505092959194509250565b60008060408385031215611aa157600080fd5b611aaa836118f3565b946020939093013593505050565b600080600060608486031215611acd57600080fd5b611ad6846118f3565b925060208401359150604084013567ffffffffffffffff811115611af957600080fd5b611b058682870161190f565b9150509250925092565b600060208284031215611b2157600080fd5b5035919050565b60008060408385031215611b3b57600080fd5b823591506119e1602084016118f3565b600060208284031215611b5d57600080fd5b813561058481611e4f565b600060208284031215611b7a57600080fd5b815161058481611e4f565b600080600080600060a08688031215611b9d57600080fd5b853567ffffffffffffffff80821115611bb557600080fd5b611bc189838a0161190f565b96506020880135915080821115611bd757600080fd5b50611be48882890161190f565b94505060408601359250611bfa606087016118f3565b9150611c08608087016118f3565b90509295509295909350565b60008151808452611c2c816020860160208601611d8f565b601f01601f19169290920160200192915050565b7f416363657373436f6e74726f6c3a206163636f756e7420000000000000000000815260008351611c78816017850160208801611d8f565b7f206973206d697373696e6720726f6c65200000000000000000000000000000006017918401918201528351611cb5816028840160208801611d8f565b01602801949350505050565b60006001600160a01b03808716835280861660208401525083604083015260806060830152611cf36080830184611c14565b9695505050505050565b6001600160a01b0384168152826020820152606060408201526000611d256060830184611c14565b95945050505050565b6020815260006105846020830184611c14565b60008219821115611d5457611d54611e0d565b500190565b6000816000190483118215151615611d7357611d73611e0d565b500290565b600082821015611d8a57611d8a611e0d565b500390565b60005b83811015611daa578181015183820152602001611d92565b83811115610ef15750506000910152565b600081611dca57611dca611e0d565b506000190190565b600181811c90821680611de657607f821691505b60208210811415611e0757634e487b7160e01b600052602260045260246000fd5b50919050565b634e487b7160e01b600052601160045260246000fd5b634e487b7160e01b600052603260045260246000fd5b634e487b7160e01b600052604160045260246000fd5b6001600160e01b0319811681146112e957600080fdfea26469706673582212202e8d7a9a96e6aa8617f1f6da70cfb26beb0d34d766b56d17f19719a5c1fb8cbe64736f6c63430008070033",
  "linkReferences": {},
  "deployedLinkReferences": {}
}