{
  "_format": "hh-sol-artifact-1",
  "contractName": "TalentToken",
  "sourceName": "contracts/TalentToken.sol",
  "abi": [
    {
      "anonymous": false,
      "inputs": [
        {
          "indexed": true,
          "internalType": "address",
          "name": "owner",
          "type": "address"
        },
        {
          "indexed": true,
          "internalType": "address",
          "name": "spender",
          "type": "address"
        },
        {
          "indexed": false,
          "internalType": "uint256",
          "name": "value",
          "type": "uint256"
        }
      ],
      "name": "Approval",
      "type": "event"
    },
    {
      "anonymous": false,
      "inputs": [
        {
          "indexed": true,
          "internalType": "bytes32",
          "name": "role",
          "type": "bytes32"
        },
        {
          "indexed": true,
          "internalType": "bytes32",
          "name": "previousAdminRole",
          "type": "bytes32"
        },
        {
          "indexed": true,
          "internalType": "bytes32",
          "name": "newAdminRole",
          "type": "bytes32"
        }
      ],
      "name": "RoleAdminChanged",
      "type": "event"
    },
    {
      "anonymous": false,
      "inputs": [
        {
          "indexed": true,
          "internalType": "bytes32",
          "name": "role",
          "type": "bytes32"
        },
        {
          "indexed": true,
          "internalType": "address",
          "name": "account",
          "type": "address"
        },
        {
          "indexed": true,
          "internalType": "address",
          "name": "sender",
          "type": "address"
        }
      ],
      "name": "RoleGranted",
      "type": "event"
    },
    {
      "anonymous": false,
      "inputs": [
        {
          "indexed": true,
          "internalType": "bytes32",
          "name": "role",
          "type": "bytes32"
        },
        {
          "indexed": true,
          "internalType": "address",
          "name": "account",
          "type": "address"
        },
        {
          "indexed": true,
          "internalType": "address",
          "name": "sender",
          "type": "address"
        }
      ],
      "name": "RoleRevoked",
      "type": "event"
    },
    {
      "anonymous": false,
      "inputs": [
        {
          "indexed": true,
          "internalType": "address",
          "name": "from",
          "type": "address"
        },
        {
          "indexed": true,
          "internalType": "address",
          "name": "to",
          "type": "address"
        },
        {
          "indexed": false,
          "internalType": "uint256",
          "name": "value",
          "type": "uint256"
        }
      ],
      "name": "Transfer",
      "type": "event"
    },
    {
      "inputs": [],
      "name": "DEFAULT_ADMIN_ROLE",
      "outputs": [
        {
          "internalType": "bytes32",
          "name": "",
          "type": "bytes32"
        }
      ],
      "stateMutability": "view",
      "type": "function"
    },
    {
      "inputs": [],
      "name": "MAX_SUPPLY",
      "outputs": [
        {
          "internalType": "uint256",
          "name": "",
          "type": "uint256"
        }
      ],
      "stateMutability": "view",
      "type": "function"
    },
    {
      "inputs": [],
      "name": "ROLE_MINTER",
      "outputs": [
        {
          "internalType": "bytes32",
          "name": "",
          "type": "bytes32"
        }
      ],
      "stateMutability": "view",
      "type": "function"
    },
    {
      "inputs": [],
      "name": "ROLE_TALENT",
      "outputs": [
        {
          "internalType": "bytes32",
          "name": "",
          "type": "bytes32"
        }
      ],
      "stateMutability": "view",
      "type": "function"
    },
    {
      "inputs": [
        {
          "internalType": "address",
          "name": "owner",
          "type": "address"
        },
        {
          "internalType": "address",
          "name": "spender",
          "type": "address"
        }
      ],
      "name": "allowance",
      "outputs": [
        {
          "internalType": "uint256",
          "name": "",
          "type": "uint256"
        }
      ],
      "stateMutability": "view",
      "type": "function"
    },
    {
      "inputs": [
        {
          "internalType": "address",
          "name": "spender",
          "type": "address"
        },
        {
          "internalType": "uint256",
          "name": "amount",
          "type": "uint256"
        }
      ],
      "name": "approve",
      "outputs": [
        {
          "internalType": "bool",
          "name": "",
          "type": "bool"
        }
      ],
      "stateMutability": "nonpayable",
      "type": "function"
    },
    {
      "inputs": [
        {
          "internalType": "address",
          "name": "spender",
          "type": "address"
        },
        {
          "internalType": "uint256",
          "name": "amount",
          "type": "uint256"
        }
      ],
      "name": "approveAndCall",
      "outputs": [
        {
          "internalType": "bool",
          "name": "",
          "type": "bool"
        }
      ],
      "stateMutability": "nonpayable",
      "type": "function"
    },
    {
      "inputs": [
        {
          "internalType": "address",
          "name": "spender",
          "type": "address"
        },
        {
          "internalType": "uint256",
          "name": "amount",
          "type": "uint256"
        },
        {
          "internalType": "bytes",
          "name": "data",
          "type": "bytes"
        }
      ],
      "name": "approveAndCall",
      "outputs": [
        {
          "internalType": "bool",
          "name": "",
          "type": "bool"
        }
      ],
      "stateMutability": "nonpayable",
      "type": "function"
    },
    {
      "inputs": [
        {
          "internalType": "address",
          "name": "account",
          "type": "address"
        }
      ],
      "name": "balanceOf",
      "outputs": [
        {
          "internalType": "uint256",
          "name": "",
          "type": "uint256"
        }
      ],
      "stateMutability": "view",
      "type": "function"
    },
    {
      "inputs": [
        {
          "internalType": "address",
          "name": "_from",
          "type": "address"
        },
        {
          "internalType": "uint256",
          "name": "_amount",
          "type": "uint256"
        }
      ],
      "name": "burn",
      "outputs": [],
      "stateMutability": "nonpayable",
      "type": "function"
    },
    {
      "inputs": [],
      "name": "decimals",
      "outputs": [
        {
          "internalType": "uint8",
          "name": "",
          "type": "uint8"
        }
      ],
      "stateMutability": "view",
      "type": "function"
    },
    {
      "inputs": [
        {
          "internalType": "address",
          "name": "spender",
          "type": "address"
        },
        {
          "internalType": "uint256",
          "name": "subtractedValue",
          "type": "uint256"
        }
      ],
      "name": "decreaseAllowance",
      "outputs": [
        {
          "internalType": "bool",
          "name": "",
          "type": "bool"
        }
      ],
      "stateMutability": "nonpayable",
      "type": "function"
    },
    {
      "inputs": [
        {
          "internalType": "bytes32",
          "name": "role",
          "type": "bytes32"
        }
      ],
      "name": "getRoleAdmin",
      "outputs": [
        {
          "internalType": "bytes32",
          "name": "",
          "type": "bytes32"
        }
      ],
      "stateMutability": "view",
      "type": "function"
    },
    {
      "inputs": [
        {
          "internalType": "bytes32",
          "name": "role",
          "type": "bytes32"
        },
        {
          "internalType": "address",
          "name": "account",
          "type": "address"
        }
      ],
      "name": "grantRole",
      "outputs": [],
      "stateMutability": "nonpayable",
      "type": "function"
    },
    {
      "inputs": [
        {
          "internalType": "bytes32",
          "name": "role",
          "type": "bytes32"
        },
        {
          "internalType": "address",
          "name": "account",
          "type": "address"
        }
      ],
      "name": "hasRole",
      "outputs": [
        {
          "internalType": "bool",
          "name": "",
          "type": "bool"
        }
      ],
      "stateMutability": "view",
      "type": "function"
    },
    {
      "inputs": [
        {
          "internalType": "address",
          "name": "spender",
          "type": "address"
        },
        {
          "internalType": "uint256",
          "name": "addedValue",
          "type": "uint256"
        }
      ],
      "name": "increaseAllowance",
      "outputs": [
        {
          "internalType": "bool",
          "name": "",
          "type": "bool"
        }
      ],
      "stateMutability": "nonpayable",
      "type": "function"
    },
    {
      "inputs": [
        {
          "internalType": "string",
          "name": "_name",
          "type": "string"
        },
        {
          "internalType": "string",
          "name": "_symbol",
          "type": "string"
        },
        {
          "internalType": "uint256",
          "name": "_initialSupply",
          "type": "uint256"
        },
        {
          "internalType": "address",
          "name": "_talent",
          "type": "address"
        },
        {
          "internalType": "address",
          "name": "_minter",
          "type": "address"
        },
        {
          "internalType": "address",
          "name": "_admin",
          "type": "address"
        }
      ],
      "name": "initialize",
      "outputs": [],
      "stateMutability": "nonpayable",
      "type": "function"
    },
    {
      "inputs": [
        {
          "internalType": "address",
          "name": "_to",
          "type": "address"
        },
        {
          "internalType": "uint256",
          "name": "_amount",
          "type": "uint256"
        }
      ],
      "name": "mint",
      "outputs": [],
      "stateMutability": "nonpayable",
      "type": "function"
    },
    {
      "inputs": [],
      "name": "mintingAvailability",
      "outputs": [
        {
          "internalType": "uint256",
          "name": "",
          "type": "uint256"
        }
      ],
      "stateMutability": "view",
      "type": "function"
    },
    {
      "inputs": [],
      "name": "mintingFinishedAt",
      "outputs": [
        {
          "internalType": "uint256",
          "name": "",
          "type": "uint256"
        }
      ],
      "stateMutability": "view",
      "type": "function"
    },
    {
      "inputs": [],
      "name": "name",
      "outputs": [
        {
          "internalType": "string",
          "name": "",
          "type": "string"
        }
      ],
      "stateMutability": "view",
      "type": "function"
    },
    {
      "inputs": [
        {
          "internalType": "bytes32",
          "name": "role",
          "type": "bytes32"
        },
        {
          "internalType": "address",
          "name": "account",
          "type": "address"
        }
      ],
      "name": "renounceRole",
      "outputs": [],
      "stateMutability": "nonpayable",
      "type": "function"
    },
    {
      "inputs": [
        {
          "internalType": "bytes32",
          "name": "role",
          "type": "bytes32"
        },
        {
          "internalType": "address",
          "name": "account",
          "type": "address"
        }
      ],
      "name": "revokeRole",
      "outputs": [],
      "stateMutability": "nonpayable",
      "type": "function"
    },
    {
      "inputs": [
        {
          "internalType": "bytes4",
          "name": "interfaceId",
          "type": "bytes4"
        }
      ],
      "name": "supportsInterface",
      "outputs": [
        {
          "internalType": "bool",
          "name": "",
          "type": "bool"
        }
      ],
      "stateMutability": "view",
      "type": "function"
    },
    {
      "inputs": [],
      "name": "symbol",
      "outputs": [
        {
          "internalType": "string",
          "name": "",
          "type": "string"
        }
      ],
      "stateMutability": "view",
      "type": "function"
    },
    {
      "inputs": [],
      "name": "talent",
      "outputs": [
        {
          "internalType": "address",
          "name": "",
          "type": "address"
        }
      ],
      "stateMutability": "view",
      "type": "function"
    },
    {
      "inputs": [],
      "name": "totalSupply",
      "outputs": [
        {
          "internalType": "uint256",
          "name": "",
          "type": "uint256"
        }
      ],
      "stateMutability": "view",
      "type": "function"
    },
    {
      "inputs": [
        {
          "internalType": "address",
          "name": "recipient",
          "type": "address"
        },
        {
          "internalType": "uint256",
          "name": "amount",
          "type": "uint256"
        }
      ],
      "name": "transfer",
      "outputs": [
        {
          "internalType": "bool",
          "name": "",
          "type": "bool"
        }
      ],
      "stateMutability": "nonpayable",
      "type": "function"
    },
    {
      "inputs": [
        {
          "internalType": "address",
          "name": "recipient",
          "type": "address"
        },
        {
          "internalType": "uint256",
          "name": "amount",
          "type": "uint256"
        }
      ],
      "name": "transferAndCall",
      "outputs": [
        {
          "internalType": "bool",
          "name": "",
          "type": "bool"
        }
      ],
      "stateMutability": "nonpayable",
      "type": "function"
    },
    {
      "inputs": [
        {
          "internalType": "address",
          "name": "recipient",
          "type": "address"
        },
        {
          "internalType": "uint256",
          "name": "amount",
          "type": "uint256"
        },
        {
          "internalType": "bytes",
          "name": "data",
          "type": "bytes"
        }
      ],
      "name": "transferAndCall",
      "outputs": [
        {
          "internalType": "bool",
          "name": "",
          "type": "bool"
        }
      ],
      "stateMutability": "nonpayable",
      "type": "function"
    },
    {
      "inputs": [
        {
          "internalType": "address",
          "name": "sender",
          "type": "address"
        },
        {
          "internalType": "address",
          "name": "recipient",
          "type": "address"
        },
        {
          "internalType": "uint256",
          "name": "amount",
          "type": "uint256"
        }
      ],
      "name": "transferFrom",
      "outputs": [
        {
          "internalType": "bool",
          "name": "",
          "type": "bool"
        }
      ],
      "stateMutability": "nonpayable",
      "type": "function"
    },
    {
      "inputs": [
        {
          "internalType": "address",
          "name": "sender",
          "type": "address"
        },
        {
          "internalType": "address",
          "name": "recipient",
          "type": "address"
        },
        {
          "internalType": "uint256",
          "name": "amount",
          "type": "uint256"
        },
        {
          "internalType": "bytes",
          "name": "data",
          "type": "bytes"
        }
      ],
      "name": "transferFromAndCall",
      "outputs": [
        {
          "internalType": "bool",
          "name": "",
          "type": "bool"
        }
      ],
      "stateMutability": "nonpayable",
      "type": "function"
    },
    {
      "inputs": [
        {
          "internalType": "address",
          "name": "sender",
          "type": "address"
        },
        {
          "internalType": "address",
          "name": "recipient",
          "type": "address"
        },
        {
          "internalType": "uint256",
          "name": "amount",
          "type": "uint256"
        }
      ],
      "name": "transferFromAndCall",
      "outputs": [
        {
          "internalType": "bool",
          "name": "",
          "type": "bool"
        }
      ],
      "stateMutability": "nonpayable",
      "type": "function"
    },
    {
      "inputs": [
        {
          "internalType": "address",
          "name": "_newTalent",
          "type": "address"
        }
      ],
      "name": "transferTalentWallet",
      "outputs": [],
      "stateMutability": "nonpayable",
      "type": "function"
    }
  ],
  "bytecode": "0x608060405234801561001057600080fd5b506121b6806100206000396000f3fe608060405234801561001057600080fd5b50600436106102265760003560e01c806370a082311161012a578063a9059cbb116100bd578063cae9ca511161008c578063d547741f11610071578063d547741f146104ec578063d8fbe994146104ff578063dd62ed3e1461051257600080fd5b8063cae9ca51146104c6578063ccf00634146104d957600080fd5b8063a9059cbb1461046c578063aafa93711461047f578063c1d34b8914610488578063c4daa5931461049b57600080fd5b806395d89b41116100f957806395d89b41146104365780639dc29fac1461043e578063a217fddf14610451578063a457c2d71461045957600080fd5b806370a08231146103865780637a12083a146103af57806391d14854146103d657806392afc33a1461040f57600080fd5b8063313ce567116101bd578063395093511161018c5780634000aea0116101715780634000aea01461034d57806340c10f19146103605780636ef7626c1461037357600080fd5b806339509351146103315780633e0075a11461034457600080fd5b8063313ce567146102eb5780633177029f146102fa57806332cb6b0c1461030d57806336568abe1461031e57600080fd5b806318160ddd116101f957806318160ddd1461028e57806323b872dd146102a0578063248a9ca3146102b35780632f2ff15d146102d657600080fd5b806301ffc9a71461022b57806306fdde0314610253578063095ea7b3146102685780631296ee621461027b575b600080fd5b61023e610239366004611e57565b61054b565b60405190151581526020015b60405180910390f35b61025b6105aa565b60405161024a9190612049565b61023e610276366004611d9a565b61063c565b61023e610289366004611d9a565b610652565b6099545b60405190815260200161024a565b61023e6102ae366004611cf6565b610675565b6102926102c1366004611e1b565b60009081526065602052604090206001015490565b6102e96102e4366004611e34565b610739565b005b6040516012815260200161024a565b61023e610308366004611d9a565b610764565b61029269152d02c7e14af680000081565b6102e961032c366004611e34565b610780565b61023e61033f366004611d9a565b61080c565b61029260ca5481565b61023e61035b366004611dc4565b610848565b6102e961036e366004611d9a565b6108c6565b6102e9610381366004611e91565b610995565b610292610394366004611ca8565b6001600160a01b031660009081526097602052604090205490565b6102927f8fad061cdace53638a92e8940b81545ab8169bcf17f044b6ab490075da827c9481565b61023e6103e4366004611e34565b60009182526065602090815260408084206001600160a01b0393909316845291905290205460ff1690565b6102927ff0887ba65ee2024ea881d91b74c2450ef19e1557f03bed3ea9f16b037cbe2dc981565b61025b610b42565b6102e961044c366004611d9a565b610b51565b610292600081565b61023e610467366004611d9a565b610ba6565b61023e61047a366004611d9a565b610c4d565b61029260c95481565b61023e610496366004611d32565b610c5a565b60cb546104ae906001600160a01b031681565b6040516001600160a01b03909116815260200161024a565b61023e6104d4366004611dc4565b610cd7565b6102e96104e7366004611ca8565b610d61565b6102e96104fa366004611e34565b610de0565b61023e61050d366004611cf6565b610e06565b610292610520366004611cc3565b6001600160a01b03918216600090815260986020908152604080832093909416825291909152205490565b60006001600160e01b031982167f36372b0700000000000000000000000000000000000000000000000000000000148061059557506001600160e01b0319821663b0202a1160e01b145b806105a457506105a482610e23565b92915050565b6060609a80546105b9906120ed565b80601f01602080910402602001604051908101604052809291908181526020018280546105e5906120ed565b80156106325780601f1061060757610100808354040283529160200191610632565b820191906000526020600020905b81548152906001019060200180831161061557829003601f168201915b5050505050905090565b6000610649338484610e48565b50600192915050565b600061066e838360405180602001604052806000815250610848565b9392505050565b6000610682848484610fa0565b6001600160a01b0384166000908152609860209081526040808320338452909152902054828110156107215760405162461bcd60e51b815260206004820152602860248201527f45524332303a207472616e7366657220616d6f756e742065786365656473206160448201527f6c6c6f77616e636500000000000000000000000000000000000000000000000060648201526084015b60405180910390fd5b61072e8533858403610e48565b506001949350505050565b60008281526065602052604090206001015461075581336111b9565b61075f8383611239565b505050565b600061066e838360405180602001604052806000815250610cd7565b6001600160a01b03811633146107fe5760405162461bcd60e51b815260206004820152602f60248201527f416363657373436f6e74726f6c3a2063616e206f6e6c792072656e6f756e636560448201527f20726f6c657320666f722073656c6600000000000000000000000000000000006064820152608401610718565b61080882826112db565b5050565b3360008181526098602090815260408083206001600160a01b0387168452909152812054909161064991859061084390869061205c565b610e48565b60006108548484610c4d565b506108613385858561135e565b6108bc5760405162461bcd60e51b815260206004820152602660248201527f455243313336333a205f636865636b416e6443616c6c5472616e73666572207260448201526565766572747360d01b6064820152608401610718565b5060019392505050565b7ff0887ba65ee2024ea881d91b74c2450ef19e1557f03bed3ea9f16b037cbe2dc96108f181336111b9565b8160c95410156109685760405162461bcd60e51b8152602060048201526024808201527f5f616d6f756e742065786365656473206d696e74696e6720617661696c61626960448201527f6c697479000000000000000000000000000000000000000000000000000000006064820152608401610718565b8160c9600082825461097a9190612093565b909155505060c95461098b574260ca555b61075f838361141c565b600054610100900460ff16806109ae575060005460ff16155b610a115760405162461bcd60e51b815260206004820152602e60248201527f496e697469616c697a61626c653a20636f6e747261637420697320616c72656160448201526d191e481a5b9a5d1a585b1a5e995960921b6064820152608401610718565b600054610100900460ff16158015610a33576000805461ffff19166101011790555b610a3b6114fb565b610a436114fb565b610a4d87876115ad565b610a556114fb565b60cb805473ffffffffffffffffffffffffffffffffffffffff19166001600160a01b038616179055610a88600083611689565b610ab27f8fad061cdace53638a92e8940b81545ab8169bcf17f044b6ab490075da827c9485611689565b610adc7ff0887ba65ee2024ea881d91b74c2450ef19e1557f03bed3ea9f16b037cbe2dc984611689565b610b067f8fad061cdace53638a92e8940b81545ab8169bcf17f044b6ab490075da827c9480611693565b610b10848661141c565b610b248569152d02c7e14af6800000612093565b60c9558015610b39576000805461ff00191690555b50505050505050565b6060609b80546105b9906120ed565b7ff0887ba65ee2024ea881d91b74c2450ef19e1557f03bed3ea9f16b037cbe2dc9610b7c81336111b9565b60c95415610b9c578160c96000828254610b96919061205c565b90915550505b61075f83836116de565b3360009081526098602090815260408083206001600160a01b038616845290915281205482811015610c405760405162461bcd60e51b815260206004820152602560248201527f45524332303a2064656372656173656420616c6c6f77616e63652062656c6f7760448201527f207a65726f0000000000000000000000000000000000000000000000000000006064820152608401610718565b6108bc3385858403610e48565b6000610649338484610fa0565b6000610c67858585610675565b50610c748585858561135e565b61072e5760405162461bcd60e51b815260206004820152602660248201527f455243313336333a205f636865636b416e6443616c6c5472616e73666572207260448201526565766572747360d01b6064820152608401610718565b949350505050565b6000610ce3848461063c565b50610cef848484611863565b6108bc5760405162461bcd60e51b815260206004820152602560248201527f455243313336333a205f636865636b416e6443616c6c417070726f766520726560448201527f76657274730000000000000000000000000000000000000000000000000000006064820152608401610718565b60cb805473ffffffffffffffffffffffffffffffffffffffff19166001600160a01b038316179055610db37f8fad061cdace53638a92e8940b81545ab8169bcf17f044b6ab490075da827c9482610739565b610ddd7f8fad061cdace53638a92e8940b81545ab8169bcf17f044b6ab490075da827c9433610de0565b50565b600082815260656020526040902060010154610dfc81336111b9565b61075f83836112db565b6000610ccf84848460405180602001604052806000815250610c5a565b60006001600160e01b0319821663b0202a1160e01b14806105a457506105a48261191e565b6001600160a01b038316610ec35760405162461bcd60e51b8152602060048201526024808201527f45524332303a20617070726f76652066726f6d20746865207a65726f2061646460448201527f72657373000000000000000000000000000000000000000000000000000000006064820152608401610718565b6001600160a01b038216610f3f5760405162461bcd60e51b815260206004820152602260248201527f45524332303a20617070726f766520746f20746865207a65726f20616464726560448201527f73730000000000000000000000000000000000000000000000000000000000006064820152608401610718565b6001600160a01b0383811660008181526098602090815260408083209487168084529482529182902085905590518481527f8c5be1e5ebec7d5bd14f71427d1e84f3dd0314c0f7b2291e5b200ac8c7c3b925910160405180910390a3505050565b6001600160a01b03831661101c5760405162461bcd60e51b815260206004820152602560248201527f45524332303a207472616e736665722066726f6d20746865207a65726f20616460448201527f64726573730000000000000000000000000000000000000000000000000000006064820152608401610718565b6001600160a01b0382166110985760405162461bcd60e51b815260206004820152602360248201527f45524332303a207472616e7366657220746f20746865207a65726f206164647260448201527f65737300000000000000000000000000000000000000000000000000000000006064820152608401610718565b6001600160a01b038316600090815260976020526040902054818110156111275760405162461bcd60e51b815260206004820152602660248201527f45524332303a207472616e7366657220616d6f756e742065786365656473206260448201527f616c616e636500000000000000000000000000000000000000000000000000006064820152608401610718565b6001600160a01b0380851660009081526097602052604080822085850390559185168152908120805484929061115e90849061205c565b92505081905550826001600160a01b0316846001600160a01b03167fddf252ad1be2c89b69c2b068fc378daa952ba7f163c4a11628f55a4df523b3ef846040516111aa91815260200190565b60405180910390a35b50505050565b60008281526065602090815260408083206001600160a01b038516845290915290205460ff16610808576111f7816001600160a01b03166014611985565b611202836020611985565b604051602001611213929190611f5b565b60408051601f198184030181529082905262461bcd60e51b825261071891600401612049565b60008281526065602090815260408083206001600160a01b038516845290915290205460ff166108085760008281526065602090815260408083206001600160a01b03851684529091529020805460ff191660011790556112973390565b6001600160a01b0316816001600160a01b0316837f2f8788117e7eff1d82e926ec794901d17c78024a50270940304540a733656f0d60405160405180910390a45050565b60008281526065602090815260408083206001600160a01b038516845290915290205460ff16156108085760008281526065602090815260408083206001600160a01b0385168085529252808320805460ff1916905551339285917ff6391f5c32d9c69d2a47ea670b442974b53935d1edc7fd64eb21e047a839171b9190a45050565b60006001600160a01b0384163b61137757506000610ccf565b604051632229f29760e21b81526000906001600160a01b038616906388a7ca5c906113ac9033908a9089908990600401611fdc565b602060405180830381600087803b1580156113c657600080fd5b505af11580156113da573d6000803e3d6000fd5b505050506040513d601f19601f820116820180604052508101906113fe9190611e74565b6001600160e01b031916632229f29760e21b14915050949350505050565b6001600160a01b0382166114725760405162461bcd60e51b815260206004820152601f60248201527f45524332303a206d696e7420746f20746865207a65726f2061646472657373006044820152606401610718565b8060996000828254611484919061205c565b90915550506001600160a01b038216600090815260976020526040812080548392906114b190849061205c565b90915550506040518181526001600160a01b038316906000907fddf252ad1be2c89b69c2b068fc378daa952ba7f163c4a11628f55a4df523b3ef9060200160405180910390a35050565b600054610100900460ff1680611514575060005460ff16155b6115775760405162461bcd60e51b815260206004820152602e60248201527f496e697469616c697a61626c653a20636f6e747261637420697320616c72656160448201526d191e481a5b9a5d1a585b1a5e995960921b6064820152608401610718565b600054610100900460ff16158015611599576000805461ffff19166101011790555b8015610ddd576000805461ff001916905550565b600054610100900460ff16806115c6575060005460ff16155b6116295760405162461bcd60e51b815260206004820152602e60248201527f496e697469616c697a61626c653a20636f6e747261637420697320616c72656160448201526d191e481a5b9a5d1a585b1a5e995960921b6064820152608401610718565b600054610100900460ff1615801561164b576000805461ffff19166101011790555b825161165e90609a906020860190611b66565b50815161167290609b906020850190611b66565b50801561075f576000805461ff0019169055505050565b6108088282611239565b600082815260656020526040808220600101805490849055905190918391839186917fbd79b86ffe0ab8e8776151514217cd7cacd52c909f66475c3af44e129f0b00ff9190a4505050565b6001600160a01b03821661175a5760405162461bcd60e51b815260206004820152602160248201527f45524332303a206275726e2066726f6d20746865207a65726f2061646472657360448201527f73000000000000000000000000000000000000000000000000000000000000006064820152608401610718565b6001600160a01b038216600090815260976020526040902054818110156117e95760405162461bcd60e51b815260206004820152602260248201527f45524332303a206275726e20616d6f756e7420657863656564732062616c616e60448201527f63650000000000000000000000000000000000000000000000000000000000006064820152608401610718565b6001600160a01b0383166000908152609760205260408120838303905560998054849290611818908490612093565b90915550506040518281526000906001600160a01b038516907fddf252ad1be2c89b69c2b068fc378daa952ba7f163c4a11628f55a4df523b3ef9060200160405180910390a3505050565b60006001600160a01b0384163b61187c5750600061066e565b6040516307b04a2d60e41b81526000906001600160a01b03861690637b04a2d0906118af90339088908890600401612018565b602060405180830381600087803b1580156118c957600080fd5b505af11580156118dd573d6000803e3d6000fd5b505050506040513d601f19601f820116820180604052508101906119019190611e74565b6001600160e01b0319166307b04a2d60e41b149150509392505050565b60006001600160e01b031982167f7965db0b0000000000000000000000000000000000000000000000000000000014806105a457507f01ffc9a7000000000000000000000000000000000000000000000000000000006001600160e01b03198316146105a4565b60606000611994836002612074565b61199f90600261205c565b67ffffffffffffffff8111156119b7576119b7612154565b6040519080825280601f01601f1916602001820160405280156119e1576020820181803683370190505b5090507f300000000000000000000000000000000000000000000000000000000000000081600081518110611a1857611a1861213e565b60200101906001600160f81b031916908160001a9053507f780000000000000000000000000000000000000000000000000000000000000081600181518110611a6357611a6361213e565b60200101906001600160f81b031916908160001a9053506000611a87846002612074565b611a9290600161205c565b90505b6001811115611b17577f303132333435363738396162636465660000000000000000000000000000000085600f1660108110611ad357611ad361213e565b1a60f81b828281518110611ae957611ae961213e565b60200101906001600160f81b031916908160001a90535060049490941c93611b10816120d6565b9050611a95565b50831561066e5760405162461bcd60e51b815260206004820181905260248201527f537472696e67733a20686578206c656e67746820696e73756666696369656e746044820152606401610718565b828054611b72906120ed565b90600052602060002090601f016020900481019282611b945760008555611bda565b82601f10611bad57805160ff1916838001178555611bda565b82800160010185558215611bda579182015b82811115611bda578251825591602001919060010190611bbf565b50611be6929150611bea565b5090565b5b80821115611be65760008155600101611beb565b80356001600160a01b0381168114611c1657600080fd5b919050565b600082601f830112611c2c57600080fd5b813567ffffffffffffffff80821115611c4757611c47612154565b604051601f8301601f19908116603f01168101908282118183101715611c6f57611c6f612154565b81604052838152866020858801011115611c8857600080fd5b836020870160208301376000602085830101528094505050505092915050565b600060208284031215611cba57600080fd5b61066e82611bff565b60008060408385031215611cd657600080fd5b611cdf83611bff565b9150611ced60208401611bff565b90509250929050565b600080600060608486031215611d0b57600080fd5b611d1484611bff565b9250611d2260208501611bff565b9150604084013590509250925092565b60008060008060808587031215611d4857600080fd5b611d5185611bff565b9350611d5f60208601611bff565b925060408501359150606085013567ffffffffffffffff811115611d8257600080fd5b611d8e87828801611c1b565b91505092959194509250565b60008060408385031215611dad57600080fd5b611db683611bff565b946020939093013593505050565b600080600060608486031215611dd957600080fd5b611de284611bff565b925060208401359150604084013567ffffffffffffffff811115611e0557600080fd5b611e1186828701611c1b565b9150509250925092565b600060208284031215611e2d57600080fd5b5035919050565b60008060408385031215611e4757600080fd5b82359150611ced60208401611bff565b600060208284031215611e6957600080fd5b813561066e8161216a565b600060208284031215611e8657600080fd5b815161066e8161216a565b60008060008060008060c08789031215611eaa57600080fd5b863567ffffffffffffffff80821115611ec257600080fd5b611ece8a838b01611c1b565b97506020890135915080821115611ee457600080fd5b50611ef189828a01611c1b565b95505060408701359350611f0760608801611bff565b9250611f1560808801611bff565b9150611f2360a08801611bff565b90509295509295509295565b60008151808452611f478160208601602086016120aa565b601f01601f19169290920160200192915050565b7f416363657373436f6e74726f6c3a206163636f756e7420000000000000000000815260008351611f938160178501602088016120aa565b7f206973206d697373696e6720726f6c65200000000000000000000000000000006017918401918201528351611fd08160288401602088016120aa565b01602801949350505050565b60006001600160a01b0380871683528086166020840152508360408301526080606083015261200e6080830184611f2f565b9695505050505050565b6001600160a01b03841681528260208201526060604082015260006120406060830184611f2f565b95945050505050565b60208152600061066e6020830184611f2f565b6000821982111561206f5761206f612128565b500190565b600081600019048311821515161561208e5761208e612128565b500290565b6000828210156120a5576120a5612128565b500390565b60005b838110156120c55781810151838201526020016120ad565b838111156111b35750506000910152565b6000816120e5576120e5612128565b506000190190565b600181811c9082168061210157607f821691505b6020821081141561212257634e487b7160e01b600052602260045260246000fd5b50919050565b634e487b7160e01b600052601160045260246000fd5b634e487b7160e01b600052603260045260246000fd5b634e487b7160e01b600052604160045260246000fd5b6001600160e01b031981168114610ddd57600080fdfea2646970667358221220eff99f27d7e2e1483d891bb25d8202170fc64d8e99d69778aa135e9c1986e7a364736f6c63430008070033",
  "linkReferences": {},
  "deployedLinkReferences": {}
}