{
  "contractName": "TalentProtocolFactory",
  "abi": [
    {
      "constant": true,
      "inputs": [],
      "name": "name",
      "outputs": [
        {
          "name": "",
          "type": "string"
        }
      ],
      "payable": false,
      "stateMutability": "view",
      "type": "function"
    },
    {
      "constant": true,
      "inputs": [],
      "name": "owner",
      "outputs": [
        {
          "name": "",
          "type": "address"
        }
      ],
      "payable": false,
      "stateMutability": "view",
      "type": "function"
    },
    {
      "constant": true,
      "inputs": [],
      "name": "isOwner",
      "outputs": [
        {
          "name": "",
          "type": "bool"
        }
      ],
      "payable": false,
      "stateMutability": "view",
      "type": "function"
    },
    {
      "inputs": [
        {
          "name": "_talentProtocol",
          "type": "address"
        }
      ],
      "payable": false,
      "stateMutability": "nonpayable",
      "type": "constructor"
    },
    {
      "anonymous": false,
      "inputs": [
        {
          "indexed": false,
          "name": "contractAddress",
          "type": "address"
        }
      ],
      "name": "TalentAdded",
      "type": "event"
    },
    {
      "constant": false,
      "inputs": [
        {
          "name": "_symbol",
          "type": "string"
        },
        {
          "name": "_name",
          "type": "string"
        },
        {
          "name": "_reserveRatio",
          "type": "uint32"
        },
        {
          "name": "_talentAddress",
          "type": "address"
        },
        {
          "name": "_talentFee",
          "type": "uint256"
        }
      ],
      "name": "instanceNewTalent",
      "outputs": [
        {
          "name": "",
          "type": "bool"
        }
      ],
      "payable": false,
      "stateMutability": "nonpayable",
      "type": "function"
    },
    {
      "constant": true,
      "inputs": [],
      "name": "getTalentList",
      "outputs": [
        {
          "name": "",
          "type": "address[]"
        }
      ],
      "payable": false,
      "stateMutability": "view",
      "type": "function"
    }
  ],
  "bytecode": "0x60806040526040805190810160405280601781526020017f54616c656e742050726f746f636f6c20466163746f72790000000000000000008152506001908051906020019061004f929190610106565b5034801561005c57600080fd5b5060405160208061595483398101806040528101908080519060200190929190505050336000806101000a81548173ffffffffffffffffffffffffffffffffffffffff021916908373ffffffffffffffffffffffffffffffffffffffff16021790555080600260006101000a81548173ffffffffffffffffffffffffffffffffffffffff021916908373ffffffffffffffffffffffffffffffffffffffff160217905550506101ab565b828054600181600116156101000203166002900490600052602060002090601f016020900481019282601f1061014757805160ff1916838001178555610175565b82800160010185558215610175579182015b82811115610174578251825591602001919060010190610159565b5b5090506101829190610186565b5090565b6101a891905b808211156101a457600081600090555060010161018c565b5090565b90565b61579a806101ba6000396000f30060806040526004361062000073576000357c0100000000000000000000000000000000000000000000000000000000900463ffffffff16806306fdde0314620000785780631de4ffcd146200010e57806382d3ce5014620002125780638da5cb5b14620002835780638f32d59b14620002dd575b600080fd5b3480156200008557600080fd5b50620000906200030f565b6040518080602001828103825283818151815260200191508051906020019080838360005b83811015620000d2578082015181840152602081019050620000b5565b50505050905090810190601f168015620001005780820380516001836020036101000a031916815260200191505b509250505060405180910390f35b3480156200011b57600080fd5b50620001f8600480360381019080803590602001908201803590602001908080601f0160208091040260200160405190810160405280939291908181526020018383808284378201915050505050509192919290803590602001908201803590602001908080601f0160208091040260200160405190810160405280939291908181526020018383808284378201915050505050509192919290803563ffffffff169060200190929190803573ffffffffffffffffffffffffffffffffffffffff16906020019092919080359060200190929190505050620003b1565b604051808215151515815260200191505060405180910390f35b3480156200021f57600080fd5b506200022a6200092c565b6040518080602001828103825283818151815260200191508051906020019060200280838360005b838110156200026f57808201518184015260208101905062000252565b505050509050019250505060405180910390f35b3480156200029057600080fd5b506200029b620009bc565b604051808273ffffffffffffffffffffffffffffffffffffffff1673ffffffffffffffffffffffffffffffffffffffff16815260200191505060405180910390f35b348015620002ea57600080fd5b50620002f5620009e5565b604051808215151515815260200191505060405180910390f35b60018054600181600116156101000203166002900480601f016020809104026020016040519081016040528092919081815260200182805460018160011615610100020316600290048015620003a95780601f106200037d57610100808354040283529160200191620003a9565b820191906000526020600020905b8154815290600101906020018083116200038b57829003601f168201915b505050505081565b600080620003be620009e5565b151562000433576040517f08c379a00000000000000000000000000000000000000000000000000000000081526004018080602001828103825260188152602001807f43616c6c6572206d75737420626520746865206f776e6572000000000000000081525060200191505060405180910390fd5b8686858560038451101580156200044c57506008845111155b1515620004e7576040517f08c379a00000000000000000000000000000000000000000000000000000000081526004018080602001828103825260248152602001807f53796d626f6c206d757374206265206265747765656e203320616e642038206381526020017f686172730000000000000000000000000000000000000000000000000000000081525060400191505060405180910390fd5b600183511015151562000562576040517f08c379a000000000000000000000000000000000000000000000000000000000815260040180806020018281038252601c8152602001807f4e616d65206d757374206265206174206c65617374203120636861720000000081525060200191505060405180910390fd5b60008273ffffffffffffffffffffffffffffffffffffffff161415151562000618576040517f08c379a00000000000000000000000000000000000000000000000000000000081526004018080602001828103825260218152602001807f54616c656e742077616c6c65742061646472657373206d75737420626520736581526020017f740000000000000000000000000000000000000000000000000000000000000081525060400191505060405180910390fd5b600081111515620006b7576040517f08c379a00000000000000000000000000000000000000000000000000000000081526004018080602001828103825260218152602001807f54616c656e7420666565206d757374206265206d6f7265207468616e207a657281526020017f6f0000000000000000000000000000000000000000000000000000000000000081525060400191505060405180910390fd5b8a8a8a8a8a620006c6620009bc565b620006d062000a3c565b8080602001806020018763ffffffff1663ffffffff1681526020018673ffffffffffffffffffffffffffffffffffffffff1673ffffffffffffffffffffffffffffffffffffffff1681526020018581526020018473ffffffffffffffffffffffffffffffffffffffff1673ffffffffffffffffffffffffffffffffffffffff168152602001838103835289818151815260200191508051906020019080838360005b838110156200078f57808201518184015260208101905062000772565b50505050905090810190601f168015620007bd5780820380516001836020036101000a031916815260200191505b50838103825288818151815260200191508051906020019080838360005b83811015620007f8578082015181840152602081019050620007db565b50505050905090810190601f168015620008265780820380516001836020036101000a031916815260200191505b5098505050505050505050604051809103906000f0801580156200084e573d6000803e3d6000fd5b50945060038590806001815401808255809150509060018203906000526020600020016000909192909190916101000a81548173ffffffffffffffffffffffffffffffffffffffff021916908373ffffffffffffffffffffffffffffffffffffffff160217905550507f8f1029372ca2be71ed263f69a64cfa692de3b69b8f2aedeb5feca248fa5d660785604051808273ffffffffffffffffffffffffffffffffffffffff1673ffffffffffffffffffffffffffffffffffffffff16815260200191505060405180910390a160019550505050505095945050505050565b60606003805480602002602001604051908101604052809291908181526020018280548015620009b257602002820191906000526020600020905b8160009054906101000a900473ffffffffffffffffffffffffffffffffffffffff1673ffffffffffffffffffffffffffffffffffffffff168152602001906001019080831162000967575b5050505050905090565b60008060009054906101000a900473ffffffffffffffffffffffffffffffffffffffff16905090565b60008060009054906101000a900473ffffffffffffffffffffffffffffffffffffffff1673ffffffffffffffffffffffffffffffffffffffff163373ffffffffffffffffffffffffffffffffffffffff1614905090565b604051614d218062000a4e83390190560060806040526040805190810160405280600381526020017f302e3300000000000000000000000000000000000000000000000000000000008152506000908051906020019062000051929190620010af565b506012608860006101000a81548160ff021916908360ff1602179055503480156200007b57600080fd5b5060405162004d2138038062004d2183398101806040528101908080518201929190602001805182019291906020018051906020019092919080519060200190929190805190602001909291908051906020019092919050505083701c35fedd14ffffffffffffffffffffffff60016020608081101515620000f957fe5b0181905550701b0ce43b323fffffffffffffffffffffff600160216080811015156200012157fe5b01819055507019f0028ec1ffffffffffffffffffffffff600160226080811015156200014957fe5b01819055507018ded91f0e7fffffffffffffffffffffff600160236080811015156200017157fe5b01819055507017d8ec7f0417ffffffffffffffffffffff600160246080811015156200019957fe5b01819055507016ddc6556cdbffffffffffffffffffffff60016025608081101515620001c157fe5b01819055507015ecf52776a1ffffffffffffffffffffff60016026608081101515620001e957fe5b01819055507015060c256cb2ffffffffffffffffffffff600160276080811015156200021157fe5b0181905550701428a2f98d72ffffffffffffffffffffff600160286080811015156200023957fe5b01819055507013545598e5c23fffffffffffffffffffff600160296080811015156200026157fe5b0181905550701288c4161ce1dfffffffffffffffffffff6001602a6080811015156200028957fe5b01819055507011c592761c666fffffffffffffffffffff6001602b608081101515620002b157fe5b018190555070110a688680a757ffffffffffffffffffff6001602c608081101515620002d957fe5b0181905550701056f1b5bedf77ffffffffffffffffffff6001602d6080811015156200030157fe5b0181905550700faadceceeff8bffffffffffffffffffff6001602e6080811015156200032957fe5b0181905550700f05dc6b27edadffffffffffffffffffff6001602f6080811015156200035157fe5b0181905550700e67a5a25da4107fffffffffffffffffff600160306080811015156200037957fe5b0181905550700dcff115b14eedffffffffffffffffffff60016031608081101515620003a157fe5b0181905550700d3e7a392431239fffffffffffffffffff60016032608081101515620003c957fe5b0181905550700cb2ff529eb71e4fffffffffffffffffff60016033608081101515620003f157fe5b0181905550700c2d415c3db974afffffffffffffffffff600160346080811015156200041957fe5b0181905550700bad03e7d883f69bffffffffffffffffff600160356080811015156200044157fe5b0181905550700b320d03b2c343d5ffffffffffffffffff600160366080811015156200046957fe5b0181905550700abc25204e02828dffffffffffffffffff600160376080811015156200049157fe5b0181905550700a4b16f74ee4bb207fffffffffffffffff60016038608081101515620004b957fe5b01819055507009deaf736ac1f569ffffffffffffffffff60016039608081101515620004e157fe5b0181905550700976bd9952c7aa957fffffffffffffffff6001603a6080811015156200050957fe5b01819055507009131271922eaa606fffffffffffffffff6001603b6080811015156200053157fe5b01819055507008b380f3558668c46fffffffffffffffff6001603c6080811015156200055957fe5b0181905550700857ddf0117efa215bffffffffffffffff6001603d6080811015156200058157fe5b01819055507007ffffffffffffffffffffffffffffffff6001603e608081101515620005a957fe5b01819055507007abbf6f6abb9d087fffffffffffffffff6001603f608081101515620005d157fe5b018190555070075af62cbac95f7dfa7fffffffffffffff60016040608081101515620005f957fe5b018190555070070d7fb7452e187ac13fffffffffffffff600160416080811015156200062157fe5b01819055507006c3390ecc8af379295fffffffffffffff600160426080811015156200064957fe5b018190555070067c00a3b07ffc01fd6fffffffffffffff600160436080811015156200067157fe5b0181905550700637b647c39cbb9d3d27ffffffffffffff600160446080811015156200069957fe5b01819055507005f63b1fc104dbd39587ffffffffffffff60016045608081101515620006c157fe5b01819055507005b771955b36e12f7235ffffffffffffff60016046608081101515620006e957fe5b018190555070057b3d49dda84556d6f6ffffffffffffff600160476080811015156200071157fe5b018190555070054183095b2c8ececf30ffffffffffffff600160486080811015156200073957fe5b018190555070050a28be635ca2b888f77fffffffffffff600160496080811015156200076157fe5b01819055507004d5156639708c9db33c3fffffffffffff6001604a6080811015156200078957fe5b01819055507004a23105873875bd52dfdfffffffffffff6001604b608081101515620007b157fe5b0181905550700471649d87199aa990756fffffffffffff6001604c608081101515620007d957fe5b01819055507004429a21a029d4c1457cfbffffffffffff6001604d6080811015156200080157fe5b0181905550700415bc6d6fb7dd71af2cb3ffffffffffff6001604e6080811015156200082957fe5b01819055507003eab73b3bbfe282243ce1ffffffffffff6001604f6080811015156200085157fe5b01819055507003c1771ac9fb6b4c18e229ffffffffffff600160506080811015156200087957fe5b0181905550700399e96897690418f785257fffffffffff60016051608081101515620008a157fe5b0181905550700373fc456c53bb779bf0ea9fffffffffff60016052608081101515620008c957fe5b018190555070034f9e8e490c48e67e6ab8bfffffffffff60016053608081101515620008f157fe5b018190555070032cbfd4a7adc790560b3337ffffffffff600160546080811015156200091957fe5b018190555070030b50570f6e5d2acca94613ffffffffff600160556080811015156200094157fe5b01819055507002eb40f9f620fda6b56c2861ffffffffff600160566080811015156200096957fe5b01819055507002cc8340ecb0d0f520a6af58ffffffffff600160576080811015156200099157fe5b01819055507002af09481380a0a35cf1ba02ffffffffff60016058608081101515620009b957fe5b0181905550700292c5bdd3b92ec810287b1b3fffffffff60016059608081101515620009e157fe5b0181905550700277abdcdab07d5a77ac6d6b9fffffffff6001605a60808110151562000a0957fe5b018190555070025daf6654b1eaa55fd64df5efffffffff6001605b60808110151562000a3157fe5b0181905550700244c49c648baa98192dce88b7ffffffff6001605c60808110151562000a5957fe5b018190555070022ce03cd5619a311b2471268bffffffff6001605d60808110151562000a8157fe5b0181905550700215f77c045fbe885654a44a0fffffffff6001605e60808110151562000aa957fe5b01819055507001ffffffffffffffffffffffffffffffff6001605f60808110151562000ad157fe5b01819055507001eaefdbdaaee7421fc4d3ede5ffffffff6001606060808110151562000af957fe5b01819055507001d6bd8b2eb257df7e8ca57b09bfffffff6001606160808110151562000b2157fe5b01819055507001c35fedd14b861eb0443f7f133fffffff6001606260808110151562000b4957fe5b01819055507001b0ce43b322bcde4a56e8ada5afffffff6001606360808110151562000b7157fe5b018190555070019f0028ec1fff007f5a195a39dfffffff6001606460808110151562000b9957fe5b018190555070018ded91f0e72ee74f49b15ba527ffffff6001606560808110151562000bc157fe5b018190555070017d8ec7f04136f4e5615fd41a63ffffff6001606660808110151562000be957fe5b018190555070016ddc6556cdb84bdc8d12d22e6fffffff6001606760808110151562000c1157fe5b018190555070015ecf52776a1155b5bd8395814f7fffff6001606860808110151562000c3957fe5b018190555070015060c256cb23b3b3cc3754cf40ffffff6001606960808110151562000c6157fe5b01819055507001428a2f98d728ae223ddab715be3fffff6001606a60808110151562000c8957fe5b018190555070013545598e5c23276ccf0ede68034fffff6001606b60808110151562000cb157fe5b01819055507001288c4161ce1d6f54b7f61081194fffff6001606c60808110151562000cd957fe5b018190555070011c592761c666aa641d5a01a40f17ffff6001606d60808110151562000d0157fe5b0181905550700110a688680a7530515f3e6e6cfdcdffff6001606e60808110151562000d2957fe5b01819055507001056f1b5bedf75c6bcb2ce8aed428ffff6001606f60808110151562000d5157fe5b01819055506ffaadceceeff8a0890f3875f008277fff6001607060808110151562000d7857fe5b01819055506ff05dc6b27edad306388a600f6ba0bfff6001607160808110151562000d9f57fe5b01819055506fe67a5a25da41063de1495d5b18cdbfff6001607260808110151562000dc657fe5b01819055506fdcff115b14eedde6fc3aa5353f2e4fff6001607360808110151562000ded57fe5b01819055506fd3e7a3924312399f9aae2e0f868f8fff6001607460808110151562000e1457fe5b01819055506fcb2ff529eb71e41582cccd5a1ee26fff6001607560808110151562000e3b57fe5b01819055506fc2d415c3db974ab32a51840c0b67edff6001607660808110151562000e6257fe5b01819055506fbad03e7d883f69ad5b0a186184e06bff6001607760808110151562000e8957fe5b01819055506fb320d03b2c343d4829abd6075f0cc5ff6001607860808110151562000eb057fe5b01819055506fabc25204e02828d73c6e80bcdb1a95bf6001607960808110151562000ed757fe5b01819055506fa4b16f74ee4bb2040a1ec6c15fbbf2df6001607a60808110151562000efe57fe5b01819055506f9deaf736ac1f569deb1b5ae3f36c130f6001607b60808110151562000f2557fe5b01819055506f976bd9952c7aa957f5937d790ef650376001607c60808110151562000f4c57fe5b01819055506f9131271922eaa6064b73a22d0bd4f2bf6001607d60808110151562000f7357fe5b01819055506f8b380f3558668c46c91c49a2f8e967b96001607e60808110151562000f9a57fe5b01819055506f857ddf0117efa215952912839f6473e66001607f60808110151562000fc157fe5b018190555080608160006101000a81548163ffffffff021916908363ffffffff16021790555050856086908051906020019062001000929190620010af565b50846087908051906020019062001019929190620010af565b5082608860016101000a81548173ffffffffffffffffffffffffffffffffffffffff021916908373ffffffffffffffffffffffffffffffffffffffff1602179055508160898190555080608a60006101000a81548173ffffffffffffffffffffffffffffffffffffffff021916908373ffffffffffffffffffffffffffffffffffffffff1602179055505050505050506200115e565b828054600181600116156101000203166002900490600052602060002090601f016020900481019282601f10620010f257805160ff191683800117855562001123565b8280016001018555821562001123579182015b828111156200112257825182559160200191906001019062001105565b5b50905062001132919062001136565b5090565b6200115b91905b80821115620011575760008160009055506001016200113d565b5090565b90565b613bb3806200116e6000396000f30060806040526004361061016a576000357c0100000000000000000000000000000000000000000000000000000000900463ffffffff16806305a0ba7e146101e557806306fdde0314610205578063095ea7b3146102955780630c7d5cd8146102fa5780630d8f9f7f146103315780631249c58b1461037257806318160ddd1461037c57806323b872dd146103a757806329a00e7c1461042c57806339509351146104915780633fdbd72a146104f657806342966c6814610521578063460a54891461054e57806349f9b0f7146105a557806354fd4d501461060a57806370a082311461069a5780637cbed3e0146106f15780638beaaf411461073257806395d89b4114610788578063a10954fe14610818578063a457c2d714610843578063a8c6acda146108a8578063a9059cbb146108e9578063d2d7231f1461094e578063da12457a1461098f578063dc5745ba146109ba578063dd62ed3e146109f0578063f324e69514610a67575b34801561017657600080fd5b506040517f08c379a000000000000000000000000000000000000000000000000000000000815260040180806020018281038252601e8152602001807f43616e6e6f742063616c6c2066616c6c6261636b2066756e6374696f6e2e000081525060200191505060405180910390fd5b61020360048036038101908080359060200190929190505050610a9d565b005b34801561021157600080fd5b5061021a610b7c565b6040518080602001828103825283818151815260200191508051906020019080838360005b8381101561025a57808201518184015260208101905061023f565b50505050905090810190601f1680156102875780820380516001836020036101000a031916815260200191505b509250505060405180910390f35b3480156102a157600080fd5b506102e0600480360381019080803573ffffffffffffffffffffffffffffffffffffffff16906020019092919080359060200190929190505050610c1a565b604051808215151515815260200191505060405180910390f35b34801561030657600080fd5b5061030f610d47565b604051808263ffffffff1663ffffffff16815260200191505060405180910390f35b34801561033d57600080fd5b5061035c60048036038101908080359060200190929190505050610d5d565b6040518082815260200191505060405180910390f35b61037a610d92565b005b34801561038857600080fd5b50610391610e16565b6040518082815260200191505060405180910390f35b3480156103b357600080fd5b50610412600480360381019080803573ffffffffffffffffffffffffffffffffffffffff169060200190929190803573ffffffffffffffffffffffffffffffffffffffff16906020019092919080359060200190929190505050610e20565b604051808215151515815260200191505060405180910390f35b34801561043857600080fd5b5061047b6004803603810190808035906020019092919080359060200190929190803563ffffffff16906020019092919080359060200190929190505050610fd2565b6040518082815260200191505060405180910390f35b34801561049d57600080fd5b506104dc600480360381019080803573ffffffffffffffffffffffffffffffffffffffff1690602001909291908035906020019092919050505061114c565b604051808215151515815260200191505060405180910390f35b34801561050257600080fd5b5061050b611383565b6040518082815260200191505060405180910390f35b34801561052d57600080fd5b5061054c60048036038101908080359060200190929190505050611389565b005b34801561055a57600080fd5b506105636113e1565b604051808273ffffffffffffffffffffffffffffffffffffffff1673ffffffffffffffffffffffffffffffffffffffff16815260200191505060405180910390f35b3480156105b157600080fd5b506105f46004803603810190808035906020019092919080359060200190929190803563ffffffff16906020019092919080359060200190929190505050611407565b6040518082815260200191505060405180910390f35b34801561061657600080fd5b5061061f6115b4565b6040518080602001828103825283818151815260200191508051906020019080838360005b8381101561065f578082015181840152602081019050610644565b50505050905090810190601f16801561068c5780820380516001836020036101000a031916815260200191505b509250505060405180910390f35b3480156106a657600080fd5b506106db600480360381019080803573ffffffffffffffffffffffffffffffffffffffff169060200190929190505050611652565b6040518082815260200191505060405180910390f35b3480156106fd57600080fd5b5061071c6004803603810190808035906020019092919050505061169b565b6040518082815260200191505060405180910390f35b610786600480360381019080803573ffffffffffffffffffffffffffffffffffffffff169060200190929190803573ffffffffffffffffffffffffffffffffffffffff1690602001909291905050506116d0565b005b34801561079457600080fd5b5061079d611815565b6040518080602001828103825283818151815260200191508051906020019080838360005b838110156107dd5780820151818401526020810190506107c2565b50505050905090810190601f16801561080a5780820380516001836020036101000a031916815260200191505b509250505060405180910390f35b34801561082457600080fd5b5061082d6118b3565b6040518082815260200191505060405180910390f35b34801561084f57600080fd5b5061088e600480360381019080803573ffffffffffffffffffffffffffffffffffffffff169060200190929190803590602001909291905050506118bd565b604051808215151515815260200191505060405180910390f35b3480156108b457600080fd5b506108d360048036038101908080359060200190929190505050611af4565b6040518082815260200191505060405180910390f35b3480156108f557600080fd5b50610934600480360381019080803573ffffffffffffffffffffffffffffffffffffffff16906020019092919080359060200190929190505050611b06565b604051808215151515815260200191505060405180910390f35b34801561095a57600080fd5b5061097960048036038101908080359060200190929190505050611b1d565b6040518082815260200191505060405180910390f35b34801561099b57600080fd5b506109a4611b2f565b6040518082815260200191505060405180910390f35b6109ee600480360381019080803573ffffffffffffffffffffffffffffffffffffffff169060200190929190505050611b3e565b005b3480156109fc57600080fd5b50610a51600480360381019080803573ffffffffffffffffffffffffffffffffffffffff169060200190929190803573ffffffffffffffffffffffffffffffffffffffff169060200190929190505050611cab565b6040518082815260200191505060405180910390f35b610a9b600480360381019080803573ffffffffffffffffffffffffffffffffffffffff169060200190929190505050611d32565b005b6000608554141515610b3d576040517f08c379a000000000000000000000000000000000000000000000000000000000815260040180806020018281038252602f8152602001807f5468652072657365727665206d75737420626520656d70747920666f7220746881526020017f6520696e697469616c206d696e742e000000000000000000000000000000000081525060400191505060405180910390fd5b80608560008282540192505081905550610b79608a60009054906101000a900473ffffffffffffffffffffffffffffffffffffffff1682611fed565b50565b60878054600181600116156101000203166002900480601f016020809104026020016040519081016040528092919081815260200182805460018160011615610100020316600290048015610c125780601f10610be757610100808354040283529160200191610c12565b820191906000526020600020905b815481529060010190602001808311610bf557829003601f168201915b505050505081565b60008073ffffffffffffffffffffffffffffffffffffffff168373ffffffffffffffffffffffffffffffffffffffff1614151515610c5757600080fd5b81608360003373ffffffffffffffffffffffffffffffffffffffff1673ffffffffffffffffffffffffffffffffffffffff16815260200190815260200160002060008573ffffffffffffffffffffffffffffffffffffffff1673ffffffffffffffffffffffffffffffffffffffff168152602001908152602001600020819055508273ffffffffffffffffffffffffffffffffffffffff163373ffffffffffffffffffffffffffffffffffffffff167f8c5be1e5ebec7d5bd14f71427d1e84f3dd0314c0f7b2291e5b200ac8c7c3b925846040518082815260200191505060405180910390a36001905092915050565b608160009054906101000a900463ffffffff1681565b6000610d8b610d6a611b2f565b610d726118b3565b608160009054906101000a900463ffffffff1685610fd2565b9050919050565b600034111515610e0a576040517f08c379a000000000000000000000000000000000000000000000000000000000815260040180806020018281038252601e8152602001807f4d7573742073656e6420657468657220746f2062757920746f6b656e732e000081525060200191505060405180910390fd5b610e133461212d565b50565b6000608454905090565b6000608360008573ffffffffffffffffffffffffffffffffffffffff1673ffffffffffffffffffffffffffffffffffffffff16815260200190815260200160002060003373ffffffffffffffffffffffffffffffffffffffff1673ffffffffffffffffffffffffffffffffffffffff168152602001908152602001600020548211151515610ead57600080fd5b610f3c82608360008773ffffffffffffffffffffffffffffffffffffffff1673ffffffffffffffffffffffffffffffffffffffff16815260200190815260200160002060003373ffffffffffffffffffffffffffffffffffffffff1673ffffffffffffffffffffffffffffffffffffffff168152602001908152602001600020546121e190919063ffffffff16565b608360008673ffffffffffffffffffffffffffffffffffffffff1673ffffffffffffffffffffffffffffffffffffffff16815260200190815260200160002060003373ffffffffffffffffffffffffffffffffffffffff1673ffffffffffffffffffffffffffffffffffffffff16815260200190815260200160002081905550610fc7848484612202565b600190509392505050565b60008060008060008089118015610fe95750600088115b8015610ffb575060008763ffffffff16115b80156110165750620f424063ffffffff168763ffffffff1611155b151561108a576040517f08c379a000000000000000000000000000000000000000000000000000000000815260040180806020018281038252600f8152602001807f496e76616c696420696e707574732e000000000000000000000000000000000081525060200191505060405180910390fd5b600086141561109c5760009450611140565b620f424063ffffffff168763ffffffff1614156110df576110d8886110ca888c61242090919063ffffffff16565b61245e90919063ffffffff16565b9450611140565b6110f2888761248890919063ffffffff16565b9150611103828989620f42406124a9565b80945081955050508260ff16611122858b61242090919063ffffffff16565b9060020a9004905061113d89826121e190919063ffffffff16565b94505b50505050949350505050565b60008073ffffffffffffffffffffffffffffffffffffffff168373ffffffffffffffffffffffffffffffffffffffff161415151561118957600080fd5b61121882608360003373ffffffffffffffffffffffffffffffffffffffff1673ffffffffffffffffffffffffffffffffffffffff16815260200190815260200160002060008673ffffffffffffffffffffffffffffffffffffffff1673ffffffffffffffffffffffffffffffffffffffff1681526020019081526020016000205461248890919063ffffffff16565b608360003373ffffffffffffffffffffffffffffffffffffffff1673ffffffffffffffffffffffffffffffffffffffff16815260200190815260200160002060008573ffffffffffffffffffffffffffffffffffffffff1673ffffffffffffffffffffffffffffffffffffffff168152602001908152602001600020819055508273ffffffffffffffffffffffffffffffffffffffff163373ffffffffffffffffffffffffffffffffffffffff167f8c5be1e5ebec7d5bd14f71427d1e84f3dd0314c0f7b2291e5b200ac8c7c3b925608360003373ffffffffffffffffffffffffffffffffffffffff1673ffffffffffffffffffffffffffffffffffffffff16815260200190815260200160002060008773ffffffffffffffffffffffffffffffffffffffff1673ffffffffffffffffffffffffffffffffffffffff168152602001908152602001600020546040518082815260200191505060405180910390a36001905092915050565b60895481565b600061139482612685565b90503373ffffffffffffffffffffffffffffffffffffffff166108fc829081150290604051600060405180830381858888f193505050501580156113dc573d6000803e3d6000fd5b505050565b608860019054906101000a900473ffffffffffffffffffffffffffffffffffffffff1681565b60008060008060008060008a1180156114205750600089115b8015611432575060008863ffffffff16115b801561144d5750620f424063ffffffff168863ffffffff1611155b80156114595750898711155b15156114cd576040517f08c379a000000000000000000000000000000000000000000000000000000000815260040180806020018281038252600f8152602001807f496e76616c696420696e707574732e000000000000000000000000000000000081525060200191505060405180910390fd5b60008714156114df57600095506115a7565b898714156114ef578895506115a7565b620f424063ffffffff168863ffffffff1614156115325761152b8a61151d898c61242090919063ffffffff16565b61245e90919063ffffffff16565b95506115a7565b611545878b6121e190919063ffffffff16565b92506115568a84620f42408b6124a9565b8095508196505050611571858a61242090919063ffffffff16565b91508360ff16899060020a0290506115a48561159683856121e190919063ffffffff16565b61245e90919063ffffffff16565b95505b5050505050949350505050565b60008054600181600116156101000203166002900480601f01602080910402602001604051908101604052809291908181526020018280546001816001161561010002031660029004801561164a5780601f1061161f5761010080835404028352916020019161164a565b820191906000526020600020905b81548152906001019060200180831161162d57829003601f168201915b505050505081565b6000608260008373ffffffffffffffffffffffffffffffffffffffff1673ffffffffffffffffffffffffffffffffffffffff168152602001908152602001600020549050919050565b60006116c96116a8611b2f565b6116b06118b3565b608160009054906101000a900463ffffffff1685611407565b9050919050565b6000608a60009054906101000a900473ffffffffffffffffffffffffffffffffffffffff1673ffffffffffffffffffffffffffffffffffffffff163373ffffffffffffffffffffffffffffffffffffffff1614151561172e57600080fd5b8290508073ffffffffffffffffffffffffffffffffffffffff1663095ea7b383346040518363ffffffff167c0100000000000000000000000000000000000000000000000000000000028152600401808373ffffffffffffffffffffffffffffffffffffffff1673ffffffffffffffffffffffffffffffffffffffff16815260200182815260200192505050602060405180830381600087803b1580156117d457600080fd5b505af11580156117e8573d6000803e3d6000fd5b505050506040513d60208110156117fe57600080fd5b810190808051906020019092919050505050505050565b60868054600181600116156101000203166002900480601f0160208091040260200160405190810160405280929190818152602001828054600181600116156101000203166002900480156118ab5780601f10611880576101008083540402835291602001916118ab565b820191906000526020600020905b81548152906001019060200180831161188e57829003601f168201915b505050505081565b6000608554905090565b60008073ffffffffffffffffffffffffffffffffffffffff168373ffffffffffffffffffffffffffffffffffffffff16141515156118fa57600080fd5b61198982608360003373ffffffffffffffffffffffffffffffffffffffff1673ffffffffffffffffffffffffffffffffffffffff16815260200190815260200160002060008673ffffffffffffffffffffffffffffffffffffffff1673ffffffffffffffffffffffffffffffffffffffff168152602001908152602001600020546121e190919063ffffffff16565b608360003373ffffffffffffffffffffffffffffffffffffffff1673ffffffffffffffffffffffffffffffffffffffff16815260200190815260200160002060008573ffffffffffffffffffffffffffffffffffffffff1673ffffffffffffffffffffffffffffffffffffffff168152602001908152602001600020819055508273ffffffffffffffffffffffffffffffffffffffff163373ffffffffffffffffffffffffffffffffffffffff167f8c5be1e5ebec7d5bd14f71427d1e84f3dd0314c0f7b2291e5b200ac8c7c3b925608360003373ffffffffffffffffffffffffffffffffffffffff1673ffffffffffffffffffffffffffffffffffffffff16815260200190815260200160002060008773ffffffffffffffffffffffffffffffffffffffff1673ffffffffffffffffffffffffffffffffffffffff168152602001908152602001600020546040518082815260200191505060405180910390a36001905092915050565b6000611aff8261169b565b9050919050565b6000611b13338484612202565b6001905092915050565b6000611b2882610d5d565b9050919050565b6000611b39610e16565b905090565b600080600034111515611bb9576040517f08c379a000000000000000000000000000000000000000000000000000000000815260040180806020018281038252601d8152602001807f4d7573742073656e6420657468657220746f2062757920746f6b656e2e00000081525060200191505060405180910390fd5b611bc234612685565b91508290508073ffffffffffffffffffffffffffffffffffffffff1663a9059cbb33846040518363ffffffff167c0100000000000000000000000000000000000000000000000000000000028152600401808373ffffffffffffffffffffffffffffffffffffffff1673ffffffffffffffffffffffffffffffffffffffff16815260200182815260200192505050602060405180830381600087803b158015611c6a57600080fd5b505af1158015611c7e573d6000803e3d6000fd5b505050506040513d6020811015611c9457600080fd5b810190808051906020019092919050505050505050565b6000608360008473ffffffffffffffffffffffffffffffffffffffff1673ffffffffffffffffffffffffffffffffffffffff16815260200190815260200160002060008373ffffffffffffffffffffffffffffffffffffffff1673ffffffffffffffffffffffffffffffffffffffff16815260200190815260200160002054905092915050565b600080600034111515611dad576040517f08c379a000000000000000000000000000000000000000000000000000000000815260040180806020018281038252601d8152602001807f4d7573742073656e6420657468657220746f2062757920746f6b656e2e00000081525060200191505060405180910390fd5b8291508173ffffffffffffffffffffffffffffffffffffffff1663dd62ed3e33306040518363ffffffff167c0100000000000000000000000000000000000000000000000000000000028152600401808373ffffffffffffffffffffffffffffffffffffffff1673ffffffffffffffffffffffffffffffffffffffff1681526020018273ffffffffffffffffffffffffffffffffffffffff1673ffffffffffffffffffffffffffffffffffffffff16815260200192505050602060405180830381600087803b158015611e7f57600080fd5b505af1158015611e93573d6000803e3d6000fd5b505050506040513d6020811015611ea957600080fd5b81019080805190602001909291905050509050348110151515611ecb57600080fd5b8173ffffffffffffffffffffffffffffffffffffffff166323b872dd3330346040518463ffffffff167c0100000000000000000000000000000000000000000000000000000000028152600401808473ffffffffffffffffffffffffffffffffffffffff1673ffffffffffffffffffffffffffffffffffffffff1681526020018373ffffffffffffffffffffffffffffffffffffffff1673ffffffffffffffffffffffffffffffffffffffff1681526020018281526020019350505050602060405180830381600087803b158015611fa257600080fd5b505af1158015611fb6573d6000803e3d6000fd5b505050506040513d6020811015611fcc57600080fd5b810190808051906020019092919050505050611fe73461212d565b50505050565b60008273ffffffffffffffffffffffffffffffffffffffff161415151561201357600080fd5b6120288160845461248890919063ffffffff16565b60848190555061208081608260008573ffffffffffffffffffffffffffffffffffffffff1673ffffffffffffffffffffffffffffffffffffffff1681526020019081526020016000205461248890919063ffffffff16565b608260008473ffffffffffffffffffffffffffffffffffffffff1673ffffffffffffffffffffffffffffffffffffffff168152602001908152602001600020819055508173ffffffffffffffffffffffffffffffffffffffff16600073ffffffffffffffffffffffffffffffffffffffff167fddf252ad1be2c89b69c2b068fc378daa952ba7f163c4a11628f55a4df523b3ef836040518082815260200191505060405180910390a35050565b6000806000831115156121a8576040517f08c379a00000000000000000000000000000000000000000000000000000000081526004018080602001828103825260198152602001807f4465706f736974206d757374206265206e6f6e2d7a65726f2e0000000000000081525060200191505060405180910390fd5b6121b183610d5d565b90506121bd3382611fed565b6121d28360855461248890919063ffffffff16565b60858190555080915050919050565b6000808383111515156121f357600080fd5b82840390508091505092915050565b608260008473ffffffffffffffffffffffffffffffffffffffff1673ffffffffffffffffffffffffffffffffffffffff16815260200190815260200160002054811115151561225057600080fd5b600073ffffffffffffffffffffffffffffffffffffffff168273ffffffffffffffffffffffffffffffffffffffff161415151561228c57600080fd5b6122de81608260008673ffffffffffffffffffffffffffffffffffffffff1673ffffffffffffffffffffffffffffffffffffffff168152602001908152602001600020546121e190919063ffffffff16565b608260008573ffffffffffffffffffffffffffffffffffffffff1673ffffffffffffffffffffffffffffffffffffffff1681526020019081526020016000208190555061237381608260008573ffffffffffffffffffffffffffffffffffffffff1673ffffffffffffffffffffffffffffffffffffffff1681526020019081526020016000205461248890919063ffffffff16565b608260008473ffffffffffffffffffffffffffffffffffffffff1673ffffffffffffffffffffffffffffffffffffffff168152602001908152602001600020819055508173ffffffffffffffffffffffffffffffffffffffff168373ffffffffffffffffffffffffffffffffffffffff167fddf252ad1be2c89b69c2b068fc378daa952ba7f163c4a11628f55a4df523b3ef836040518082815260200191505060405180910390a3505050565b60008060008414156124355760009150612457565b828402905082848281151561244657fe5b0414151561245357600080fd5b8091505b5092915050565b60008060008311151561247057600080fd5b828481151561247b57fe5b0490508091505092915050565b600080828401905083811015151561249f57600080fd5b8091505092915050565b6000806000806000807002000000000000000000000000000000008a10151561253a576040517f08c379a00000000000000000000000000000000000000000000000000000000081526004018080602001828103825260188152602001807f626173654e2065786365656473206d61782076616c75652e000000000000000081525060200191505060405180910390fd5b888a101515156125b2576040517f08c379a000000000000000000000000000000000000000000000000000000000815260040180806020018281038252601c8152602001807f4261736573203c203120617265206e6f7420737570706f727465642e0000000081525060200191505060405180910390fd5b886f800000000000000000000000000000008b028115156125cf57fe5b04925070015bf0a8b1457695355fb8ac404e7a79e38310156125fb576125f4836127b9565b9350612607565b61260483612d88565b93505b8663ffffffff168863ffffffff16850281151561262057fe5b0491507008000000000000000000000000000000008210156126505761264582612ec3565b607f95509550612678565b61265982613483565b905061267281607f0360ff16839060020a900482613543565b81955095505b5050505094509492505050565b600080600083111515612700576040517f08c379a00000000000000000000000000000000000000000000000000000000081526004018080602001828103825260188152602001807f416d6f756e74206d757374206265206e6f6e2d7a65726f2e000000000000000081525060200191505060405180910390fd5b8261270a33611652565b10151515612780576040517f08c379a000000000000000000000000000000000000000000000000000000000815260040180806020018281038252601c8152602001807f496e73756666696369656e7420746f6b656e7320746f206275726e2e0000000081525060200191505060405180910390fd5b6127898361169b565b90506127a0816085546121e190919063ffffffff16565b6085819055506127b03384613967565b80915050919050565b60008060008060008093506fd3094c70f034de4b96ff7d5b6f99fcd886101515612823576f40000000000000000000000000000000840193506fd3094c70f034de4b96ff7d5b6f99fcd86f80000000000000000000000000000000870281151561281f57fe5b0495505b6fa45af1e1f40c333b3de1db4dd55f29a786101515612882576f20000000000000000000000000000000840193506fa45af1e1f40c333b3de1db4dd55f29a76f80000000000000000000000000000000870281151561287e57fe5b0495505b6f910b022db7ae67ce76b441c27035c6a1861015156128e1576f10000000000000000000000000000000840193506f910b022db7ae67ce76b441c27035c6a16f8000000000000000000000000000000087028115156128dd57fe5b0495505b6f88415abbe9a76bead8d00cf112e4d4a886101515612940576f08000000000000000000000000000000840193506f88415abbe9a76bead8d00cf112e4d4a86f80000000000000000000000000000000870281151561293c57fe5b0495505b6f84102b00893f64c705e841d5d4064bd38610151561299f576f04000000000000000000000000000000840193506f84102b00893f64c705e841d5d4064bd36f80000000000000000000000000000000870281151561299b57fe5b0495505b6f8204055aaef1c8bd5c3259f4822735a2861015156129fe576f02000000000000000000000000000000840193506f8204055aaef1c8bd5c3259f4822735a26f8000000000000000000000000000000087028115156129fa57fe5b0495505b6f810100ab00222d861931c15e39b44e9986101515612a5d576f01000000000000000000000000000000840193506f810100ab00222d861931c15e39b44e996f800000000000000000000000000000008702811515612a5957fe5b0495505b6f808040155aabbbe9451521693554f73386101515612abb576e800000000000000000000000000000840193506f808040155aabbbe9451521693554f7336f800000000000000000000000000000008702811515612ab757fe5b0495505b6f80000000000000000000000000000000860392508291506f80000000000000000000000000000000838402811515612af057fe5b04905070010000000000000000000000000000000083700100000000000000000000000000000000038302811515612b2457fe5b04840193506f80000000000000000000000000000000818302811515612b4657fe5b049150700200000000000000000000000000000000836faaaaaaaaaaaaaaaaaaaaaaaaaaaaaaaa038302811515612b7957fe5b04840193506f80000000000000000000000000000000818302811515612b9b57fe5b049150700300000000000000000000000000000000836f99999999999999999999999999999999038302811515612bce57fe5b04840193506f80000000000000000000000000000000818302811515612bf057fe5b049150700400000000000000000000000000000000836f92492492492492492492492492492492038302811515612c2357fe5b04840193506f80000000000000000000000000000000818302811515612c4557fe5b049150700500000000000000000000000000000000836f8e38e38e38e38e38e38e38e38e38e38e038302811515612c7857fe5b04840193506f80000000000000000000000000000000818302811515612c9a57fe5b049150700600000000000000000000000000000000836f8ba2e8ba2e8ba2e8ba2e8ba2e8ba2e8b038302811515612ccd57fe5b04840193506f80000000000000000000000000000000818302811515612cef57fe5b049150700700000000000000000000000000000000836f89d89d89d89d89d89d89d89d89d89d89038302811515612d2257fe5b04840193506f80000000000000000000000000000000818302811515612d4457fe5b049150700800000000000000000000000000000000836f88888888888888888888888888888888038302811515612d7757fe5b048401935083945050505050919050565b600080600080600080935085925070010000000000000000000000000000000083101515612dfc57612dd46f8000000000000000000000000000000084811515612dce57fe5b04613af5565b91508160ff16839060020a900492506f800000000000000000000000000000008260ff160293505b6f80000000000000000000000000000000831115612e8a57607f90505b60008160ff161115612e89576f80000000000000000000000000000000838402811515612e4257fe5b04925070010000000000000000000000000000000083101515612e7d576001839060020a900492506001810360ff1660019060020a02840193505b80600190039050612e19565b5b6f05b9de1d10bf4103d647b0955897ba806f03f80fe03f80fe03f80fe03f80fe03f88502811515612eb757fe5b04945050505050919050565b600080600080600092506f1000000000000000000000000000000085811515612ee857fe5b0691508190506f80000000000000000000000000000000828202811515612f0b57fe5b0490506710e1b3be415a00008102830192506f80000000000000000000000000000000828202811515612f3a57fe5b0490506705a0913f6b1e00008102830192506f80000000000000000000000000000000828202811515612f6957fe5b049050670168244fdac780008102830192506f80000000000000000000000000000000828202811515612f9857fe5b049050664807432bc180008102830192506f80000000000000000000000000000000828202811515612fc657fe5b049050660c0135dca040008102830192506f80000000000000000000000000000000828202811515612ff457fe5b0490506601b707b1cdc0008102830192506f8000000000000000000000000000000082820281151561302257fe5b0490506536e0f639b8008102830192506f8000000000000000000000000000000082820281151561304f57fe5b049050650618fee9f8008102830192506f8000000000000000000000000000000082820281151561307c57fe5b049050649c197dcc008102830192506f800000000000000000000000000000008282028115156130a857fe5b049050640e30dce4008102830192506f800000000000000000000000000000008282028115156130d457fe5b04905064012ebd13008102830192506f8000000000000000000000000000000082820281151561310057fe5b0490506317499f008102830192506f8000000000000000000000000000000082820281151561312b57fe5b0490506301a9d4808102830192506f8000000000000000000000000000000082820281151561315657fe5b049050621c63808102830192506f8000000000000000000000000000000082820281151561318057fe5b0490506201c6388102830192506f800000000000000000000000000000008282028115156131aa57fe5b049050611ab88102830192506f800000000000000000000000000000008282028115156131d357fe5b04905061017c8102830192506f800000000000000000000000000000008282028115156131fc57fe5b04905060148102830192506f8000000000000000000000000000000082820281151561322457fe5b04905060018102830192506f80000000000000000000000000000000826721c3677c82b400008581151561325457fe5b040101925060006f1000000000000000000000000000000086161415156132a85770018ebef9eac820ae8682b9793ac6d1e7767001c3d6a24ed82218787d624d3e5eba95f984028115156132a457fe5b0492505b60006f2000000000000000000000000000000086161415156132f7577001368b2fc6f9609fe7aceb46aa619baed470018ebef9eac820ae8682b9793ac6d1e77884028115156132f357fe5b0492505b60006f400000000000000000000000000000008616141515613345576fbc5ab1b16779be3575bd8f0520a9f21f7001368b2fc6f9609fe7aceb46aa619baed5840281151561334157fe5b0492505b60006f800000000000000000000000000000008616141515613392576f454aaa8efe072e7f6ddbab84b40a55c96fbc5ab1b16779be3575bd8f0520a9f21e840281151561338e57fe5b0492505b600070010000000000000000000000000000000086161415156133e0576f0960aadc109e7a3bf4578099615711ea6f454aaa8efe072e7f6ddbab84b40a55c584028115156133dc57fe5b0492505b6000700200000000000000000000000000000000861614151561342d576e2bf84208204f5977f9a8cf01fdce3d6f0960aadc109e7a3bf4578099615711d7840281151561342957fe5b0492505b60007004000000000000000000000000000000008616141515613478576d03c6ab775dd0b95b4cbee7e65d116e2bf84208204f5977f9a8cf01fdc307840281151561347457fe5b0492505b829350505050919050565b60008060008060209250607f91505b8160ff166001840160ff1610156134e457600282840160ff168115156134b457fe5b0490508460018260ff166080811015156134ca57fe5b01541015156134db578092506134df565b8091505b613492565b8460018360ff166080811015156134f757fe5b01541015156135085781935061353b565b8460018460ff1660808110151561351b57fe5b015410151561352c5782935061353b565b6000151561353657fe5b600093505b505050919050565b6000806000849150600090508360ff168583029060020a900491506f03442c4e6074a82f1797f72ac00000008202810190508360ff168583029060020a900491506f0116b96f757c380fb287fd0e400000008202810190508360ff168583029060020a900491506e45ae5bdd5f0e03eca1ff43900000008202810190508360ff168583029060020a900491506e0defabf91302cd95b9ffda500000008202810190508360ff168583029060020a900491506e02529ca9832b22439efff9b80000008202810190508360ff168583029060020a900491506d54f1cf12bd04e516b6da880000008202810190508360ff168583029060020a900491506d0a9e39e257a09ca2d6db510000008202810190508360ff168583029060020a900491506d012e066e7b839fa050c3090000008202810190508360ff168583029060020a900491506c1e33d7d926c329a1ad1a8000008202810190508360ff168583029060020a900491506c02bee513bdb4a6b19b5f8000008202810190508360ff168583029060020a900491506b3a9316fa79b88eccf2a000008202810190508360ff168583029060020a900491506b048177ebe1fa8123752000008202810190508360ff168583029060020a900491506a5263fe90242dcbacf000008202810190508360ff168583029060020a900491506a057e22099c030d941000008202810190508360ff168583029060020a900491506957e22099c030d94100008202810190508360ff168583029060020a9004915069052b6b545699763100008202810190508360ff168583029060020a90049150684985f67696bf7480008202810190508360ff168583029060020a900491506803dea12ea99e4980008202810190508360ff168583029060020a900491506731880f2214b6e0008202810190508360ff168583029060020a9004915067025bcff56eb360008202810190508360ff168583029060020a90049150661b722e10ab10008202810190508360ff168583029060020a900491506601317c700770008202810190508360ff168583029060020a90049150650cba84aafa008202810190508360ff168583029060020a900491506482573a0a008202810190508360ff168583029060020a900491506405035ad9008202810190508360ff168583029060020a90049150632f881b008202810190508360ff168583029060020a900491506301b293408202810190508360ff168583029060020a90049150620efc408202810190508360ff168583029060020a90049150617fe08202810190508360ff168583029060020a900491506104208202810190508360ff168583029060020a9004915060218202810190508360ff168583029060020a9004915060018202810190508360ff1660019060020a02856f0688589cc0e9505e2f2fee55800000008381151561395a57fe5b0401019250505092915050565b60008273ffffffffffffffffffffffffffffffffffffffff161415151561398d57600080fd5b608260008373ffffffffffffffffffffffffffffffffffffffff1673ffffffffffffffffffffffffffffffffffffffff1681526020019081526020016000205481111515156139db57600080fd5b6139f0816084546121e190919063ffffffff16565b608481905550613a4881608260008573ffffffffffffffffffffffffffffffffffffffff1673ffffffffffffffffffffffffffffffffffffffff168152602001908152602001600020546121e190919063ffffffff16565b608260008473ffffffffffffffffffffffffffffffffffffffff1673ffffffffffffffffffffffffffffffffffffffff16815260200190815260200160002081905550600073ffffffffffffffffffffffffffffffffffffffff168273ffffffffffffffffffffffffffffffffffffffff167fddf252ad1be2c89b69c2b068fc378daa952ba7f163c4a11628f55a4df523b3ef836040518082815260200191505060405180910390a35050565b60008060008060009250849150610100821015613b31575b6001821115613b2c576001829060020a90049150600183019250613b0d565b613b7c565b608090505b60008160ff161115613b7b578060ff1660019060020a0282101515613b68578060ff16829060020a9004915080831792505b60018160ff169060020a90049050613b36565b5b8293505050509190505600a165627a7a723058207347d8c30c16d90c264d8645d4332a8dceb41a47ba35923b515f9fe055308ac40029a165627a7a723058206d724c6b2a1ced045b542321a0ec0c7544ffa2c78db14118133edc3359dbf6ab0029",
  "source": "pragma solidity 0.4.25;\n\nimport \"./ownership/Ownable.sol\";\nimport \"./TalentProtocol.sol\";\nimport \"./CareerCoin.sol\";\n\n// Talent Protocol Factory\ncontract TalentProtocolFactory is Ownable {\n    string public name = \"Talent Protocol Factory\";\n\n    TalentProtocol internal talentProtocol;\n    CareerCoin[] internal talentList;\n\n    event TalentAdded(address contractAddress);\n    \n    constructor (TalentProtocol _talentProtocol) public Ownable() {\n        talentProtocol = _talentProtocol;\n    }\n\n    modifier onlyValidInputData(string _symbol, string _name, address _talentAddress, uint256 _talentFee) {\n        require(bytes(_symbol).length >= 3 && bytes(_symbol).length <= 8, \"Symbol must be between 3 and 8 chars\");\n        require(bytes(_name).length >= 1, \"Name must be at least 1 char\");\n        require(_talentAddress != 0, \"Talent wallet address must be set\");\n        require(_talentFee > 0, \"Talent fee must be more than zero\");\n        _;\n    }\n\n    // INSTANTIATE NEW TALENT ON FACTORY\n    function instanceNewTalent(string _symbol, string _name, uint32 _reserveRatio, address _talentAddress, uint256 _talentFee) onlyOwner onlyValidInputData(_symbol, _name, _talentAddress, _talentFee) public returns (bool) {\n        \n        CareerCoin tCareerCoin = new CareerCoin(_symbol, _name, _reserveRatio, _talentAddress, _talentFee, owner());\n        talentList.push(tCareerCoin);\n\n        // emit event when talent contract is created \n        emit TalentAdded(address(tCareerCoin));\n\n        return true;\n    }\n\n    // GET TALENT LIST\n    function getTalentList() external view returns (CareerCoin[] memory)\n    {\n        return talentList;\n    }\n }\n",
  "sourcePath": "/Users/franciscoleal/Documents/workspace/talentprotocol/test-developments/src/contracts/TalentProtocolFactory.sol",
  "compiler": {
    "name": "solc",
    "version": "0.4.25+commit.59dbf8f1.Emscripten.clang"
  },
  "schemaVersion": "3.4.1",
  "updatedAt": "2021-08-16T22:03:55.583Z",
  "networkType": "ethereum",
  "devdoc": {
    "methods": {}
  },
  "userdoc": {
    "methods": {}
  }
}