{
  "_format": "hh-sol-artifact-1",
  "contractName": "CommunityUser",
  "sourceName": "contracts/CommunityUser.sol",
  "abi": [
    {
      "inputs": [
        {
          "internalType": "address",
          "name": "_owner",
          "type": "address"
        },
        {
          "internalType": "string",
          "name": "_ticker",
          "type": "string"
        }
      ],
      "stateMutability": "nonpayable",
      "type": "constructor"
    },
    {
      "anonymous": false,
      "inputs": [
        {
          "indexed": true,
          "internalType": "address",
          "name": "owner",
          "type": "address"
        },
        {
          "indexed": true,
          "internalType": "address",
          "name": "approved",
          "type": "address"
        },
        {
          "indexed": true,
          "internalType": "uint256",
          "name": "tokenId",
          "type": "uint256"
        }
      ],
      "name": "Approval",
      "type": "event"
    },
    {
      "anonymous": false,
      "inputs": [
        {
          "indexed": true,
          "internalType": "address",
          "name": "owner",
          "type": "address"
        },
        {
          "indexed": true,
          "internalType": "address",
          "name": "operator",
          "type": "address"
        },
        {
          "indexed": false,
          "internalType": "bool",
          "name": "approved",
          "type": "bool"
        }
      ],
      "name": "ApprovalForAll",
      "type": "event"
    },
    {
      "anonymous": false,
      "inputs": [
        {
          "indexed": true,
          "internalType": "bytes32",
          "name": "role",
          "type": "bytes32"
        },
        {
          "indexed": true,
          "internalType": "bytes32",
          "name": "previousAdminRole",
          "type": "bytes32"
        },
        {
          "indexed": true,
          "internalType": "bytes32",
          "name": "newAdminRole",
          "type": "bytes32"
        }
      ],
      "name": "RoleAdminChanged",
      "type": "event"
    },
    {
      "anonymous": false,
      "inputs": [
        {
          "indexed": true,
          "internalType": "bytes32",
          "name": "role",
          "type": "bytes32"
        },
        {
          "indexed": true,
          "internalType": "address",
          "name": "account",
          "type": "address"
        },
        {
          "indexed": true,
          "internalType": "address",
          "name": "sender",
          "type": "address"
        }
      ],
      "name": "RoleGranted",
      "type": "event"
    },
    {
      "anonymous": false,
      "inputs": [
        {
          "indexed": true,
          "internalType": "bytes32",
          "name": "role",
          "type": "bytes32"
        },
        {
          "indexed": true,
          "internalType": "address",
          "name": "account",
          "type": "address"
        },
        {
          "indexed": true,
          "internalType": "address",
          "name": "sender",
          "type": "address"
        }
      ],
      "name": "RoleRevoked",
      "type": "event"
    },
    {
      "anonymous": false,
      "inputs": [
        {
          "indexed": true,
          "internalType": "address",
          "name": "from",
          "type": "address"
        },
        {
          "indexed": true,
          "internalType": "address",
          "name": "to",
          "type": "address"
        },
        {
          "indexed": true,
          "internalType": "uint256",
          "name": "tokenId",
          "type": "uint256"
        }
      ],
      "name": "Transfer",
      "type": "event"
    },
    {
      "inputs": [],
      "name": "DEFAULT_ADMIN_ROLE",
      "outputs": [
        {
          "internalType": "bytes32",
          "name": "",
          "type": "bytes32"
        }
      ],
      "stateMutability": "view",
      "type": "function"
    },
    {
      "inputs": [
        {
          "internalType": "address",
          "name": "_newOwner",
          "type": "address"
        }
      ],
      "name": "addOwner",
      "outputs": [],
      "stateMutability": "nonpayable",
      "type": "function"
    },
    {
      "inputs": [
        {
          "internalType": "address[]",
          "name": "addresses",
          "type": "address[]"
        }
      ],
      "name": "airdrop",
      "outputs": [],
      "stateMutability": "nonpayable",
      "type": "function"
    },
    {
      "inputs": [
        {
          "internalType": "address",
          "name": "to",
          "type": "address"
        },
        {
          "internalType": "uint256",
          "name": "tokenId",
          "type": "uint256"
        }
      ],
      "name": "approve",
      "outputs": [],
      "stateMutability": "nonpayable",
      "type": "function"
    },
    {
      "inputs": [
        {
          "internalType": "address",
          "name": "owner",
          "type": "address"
        }
      ],
      "name": "balanceOf",
      "outputs": [
        {
          "internalType": "uint256",
          "name": "",
          "type": "uint256"
        }
      ],
      "stateMutability": "view",
      "type": "function"
    },
    {
      "inputs": [
        {
          "internalType": "uint256",
          "name": "_id",
          "type": "uint256"
        }
      ],
      "name": "burn",
      "outputs": [],
      "stateMutability": "nonpayable",
      "type": "function"
    },
    {
      "inputs": [
        {
          "internalType": "uint256",
          "name": "tokenId",
          "type": "uint256"
        }
      ],
      "name": "getApproved",
      "outputs": [
        {
          "internalType": "address",
          "name": "",
          "type": "address"
        }
      ],
      "stateMutability": "view",
      "type": "function"
    },
    {
      "inputs": [
        {
          "internalType": "bytes32",
          "name": "role",
          "type": "bytes32"
        }
      ],
      "name": "getRoleAdmin",
      "outputs": [
        {
          "internalType": "bytes32",
          "name": "",
          "type": "bytes32"
        }
      ],
      "stateMutability": "view",
      "type": "function"
    },
    {
      "inputs": [
        {
          "internalType": "bytes32",
          "name": "role",
          "type": "bytes32"
        },
        {
          "internalType": "address",
          "name": "account",
          "type": "address"
        }
      ],
      "name": "grantRole",
      "outputs": [],
      "stateMutability": "nonpayable",
      "type": "function"
    },
    {
      "inputs": [
        {
          "internalType": "bytes32",
          "name": "role",
          "type": "bytes32"
        },
        {
          "internalType": "address",
          "name": "account",
          "type": "address"
        }
      ],
      "name": "hasRole",
      "outputs": [
        {
          "internalType": "bool",
          "name": "",
          "type": "bool"
        }
      ],
      "stateMutability": "view",
      "type": "function"
    },
    {
      "inputs": [
        {
          "internalType": "address",
          "name": "owner",
          "type": "address"
        },
        {
          "internalType": "address",
          "name": "operator",
          "type": "address"
        }
      ],
      "name": "isApprovedForAll",
      "outputs": [
        {
          "internalType": "bool",
          "name": "",
          "type": "bool"
        }
      ],
      "stateMutability": "view",
      "type": "function"
    },
    {
      "inputs": [
        {
          "internalType": "address",
          "name": "_to",
          "type": "address"
        }
      ],
      "name": "mint",
      "outputs": [],
      "stateMutability": "nonpayable",
      "type": "function"
    },
    {
      "inputs": [],
      "name": "name",
      "outputs": [
        {
          "internalType": "string",
          "name": "",
          "type": "string"
        }
      ],
      "stateMutability": "view",
      "type": "function"
    },
    {
      "inputs": [
        {
          "internalType": "uint256",
          "name": "tokenId",
          "type": "uint256"
        }
      ],
      "name": "ownerOf",
      "outputs": [
        {
          "internalType": "address",
          "name": "",
          "type": "address"
        }
      ],
      "stateMutability": "view",
      "type": "function"
    },
    {
      "inputs": [
        {
          "internalType": "bytes32",
          "name": "role",
          "type": "bytes32"
        },
        {
          "internalType": "address",
          "name": "account",
          "type": "address"
        }
      ],
      "name": "renounceRole",
      "outputs": [],
      "stateMutability": "nonpayable",
      "type": "function"
    },
    {
      "inputs": [
        {
          "internalType": "bytes32",
          "name": "role",
          "type": "bytes32"
        },
        {
          "internalType": "address",
          "name": "account",
          "type": "address"
        }
      ],
      "name": "revokeRole",
      "outputs": [],
      "stateMutability": "nonpayable",
      "type": "function"
    },
    {
      "inputs": [
        {
          "internalType": "address",
          "name": "from",
          "type": "address"
        },
        {
          "internalType": "address",
          "name": "to",
          "type": "address"
        },
        {
          "internalType": "uint256",
          "name": "tokenId",
          "type": "uint256"
        }
      ],
      "name": "safeTransferFrom",
      "outputs": [],
      "stateMutability": "nonpayable",
      "type": "function"
    },
    {
      "inputs": [
        {
          "internalType": "address",
          "name": "from",
          "type": "address"
        },
        {
          "internalType": "address",
          "name": "to",
          "type": "address"
        },
        {
          "internalType": "uint256",
          "name": "tokenId",
          "type": "uint256"
        },
        {
          "internalType": "bytes",
          "name": "data",
          "type": "bytes"
        }
      ],
      "name": "safeTransferFrom",
      "outputs": [],
      "stateMutability": "nonpayable",
      "type": "function"
    },
    {
      "inputs": [
        {
          "internalType": "address",
          "name": "operator",
          "type": "address"
        },
        {
          "internalType": "bool",
          "name": "approved",
          "type": "bool"
        }
      ],
      "name": "setApprovalForAll",
      "outputs": [],
      "stateMutability": "nonpayable",
      "type": "function"
    },
    {
      "inputs": [
        {
          "internalType": "string",
          "name": "baseURI_",
          "type": "string"
        }
      ],
      "name": "setBaseURI",
      "outputs": [],
      "stateMutability": "nonpayable",
      "type": "function"
    },
    {
      "inputs": [
        {
          "internalType": "bytes4",
          "name": "interfaceId",
          "type": "bytes4"
        }
      ],
      "name": "supportsInterface",
      "outputs": [
        {
          "internalType": "bool",
          "name": "",
          "type": "bool"
        }
      ],
      "stateMutability": "view",
      "type": "function"
    },
    {
      "inputs": [],
      "name": "symbol",
      "outputs": [
        {
          "internalType": "string",
          "name": "",
          "type": "string"
        }
      ],
      "stateMutability": "view",
      "type": "function"
    },
    {
      "inputs": [
        {
          "internalType": "uint256",
          "name": "index",
          "type": "uint256"
        }
      ],
      "name": "tokenByIndex",
      "outputs": [
        {
          "internalType": "uint256",
          "name": "",
          "type": "uint256"
        }
      ],
      "stateMutability": "view",
      "type": "function"
    },
    {
      "inputs": [
        {
          "internalType": "address",
          "name": "owner",
          "type": "address"
        },
        {
          "internalType": "uint256",
          "name": "index",
          "type": "uint256"
        }
      ],
      "name": "tokenOfOwnerByIndex",
      "outputs": [
        {
          "internalType": "uint256",
          "name": "",
          "type": "uint256"
        }
      ],
      "stateMutability": "view",
      "type": "function"
    },
    {
      "inputs": [
        {
          "internalType": "uint256",
          "name": "tokenId",
          "type": "uint256"
        }
      ],
      "name": "tokenURI",
      "outputs": [
        {
          "internalType": "string",
          "name": "",
          "type": "string"
        }
      ],
      "stateMutability": "view",
      "type": "function"
    },
    {
      "inputs": [],
      "name": "totalSupply",
      "outputs": [
        {
          "internalType": "uint256",
          "name": "",
          "type": "uint256"
        }
      ],
      "stateMutability": "view",
      "type": "function"
    },
    {
      "inputs": [
        {
          "internalType": "address",
          "name": "from",
          "type": "address"
        },
        {
          "internalType": "address",
          "name": "to",
          "type": "address"
        },
        {
          "internalType": "uint256",
          "name": "tokenId",
          "type": "uint256"
        }
      ],
      "name": "transferFrom",
      "outputs": [],
      "stateMutability": "nonpayable",
      "type": "function"
    }
  ],
  "bytecode": "0x60806040523480156200001157600080fd5b506040516200235b3803806200235b833981016040819052620000349162000205565b60408051808201909152601e8082527f54616c656e742050726f746f636f6c20436f6d6d756e697479205573657200006020830190815283916200007b916000916200015f565b508051620000919060019060208401906200015f565b50620000a391506000905083620000ab565b505062000358565b620000b78282620000bb565b5050565b6000828152600a602090815260408083206001600160a01b038516845290915290205460ff16620000b7576000828152600a602090815260408083206001600160a01b03851684529091529020805460ff191660011790556200011b3390565b6001600160a01b0316816001600160a01b0316837f2f8788117e7eff1d82e926ec794901d17c78024a50270940304540a733656f0d60405160405180910390a45050565b8280546200016d9062000305565b90600052602060002090601f016020900481019282620001915760008555620001dc565b82601f10620001ac57805160ff1916838001178555620001dc565b82800160010185558215620001dc579182015b82811115620001dc578251825591602001919060010190620001bf565b50620001ea929150620001ee565b5090565b5b80821115620001ea5760008155600101620001ef565b600080604083850312156200021957600080fd5b82516001600160a01b03811681146200023157600080fd5b602084810151919350906001600160401b03808211156200025157600080fd5b818601915086601f8301126200026657600080fd5b8151818111156200027b576200027b62000342565b604051601f8201601f19908116603f01168101908382118183101715620002a657620002a662000342565b816040528281528986848701011115620002bf57600080fd5b600093505b82841015620002e35784840186015181850187015292850192620002c4565b82841115620002f55760008684830101525b8096505050505050509250929050565b600181811c908216806200031a57607f821691505b602082108114156200033c57634e487b7160e01b600052602260045260246000fd5b50919050565b634e487b7160e01b600052604160045260246000fd5b611ff380620003686000396000f3fe608060405234801561001057600080fd5b50600436106101b95760003560e01c806355f804b3116100f957806395d89b4111610097578063b88d4fde11610071578063b88d4fde146103c3578063c87b56dd146103d1578063d547741f146103e4578063e985e9c5146103f757600080fd5b806395d89b41146103a0578063a217fddf146103a8578063a22cb465146103b057600080fd5b80637065cb48116100d35780637065cb481461032e57806370a0823114610341578063729ad39e1461035457806391d148541461036757600080fd5b806355f804b3146102f55780636352211e146103085780636a6278421461031b57600080fd5b8063248a9ca31161016657806336568abe1161014057806336568abe146102a957806342842e0e146102bc57806342966c68146102cf5780634f6ccce7146102e257600080fd5b8063248a9ca3146102605780632f2ff15d146102835780632f745c591461029657600080fd5b8063095ea7b311610197578063095ea7b31461022657806318160ddd1461023b57806323b872dd1461024d57600080fd5b806301ffc9a7146101be57806306fdde03146101e6578063081812fc146101fb575b600080fd5b6101d16101cc366004611cb5565b610433565b60405190151581526020015b60405180910390f35b6101ee610444565b6040516101dd9190611e21565b61020e610209366004611c79565b6104d6565b6040516001600160a01b0390911681526020016101dd565b610239610234366004611b9b565b610581565b005b6008545b6040519081526020016101dd565b61023961025b366004611aa7565b6106b3565b61023f61026e366004611c79565b6000908152600a602052604090206001015490565b610239610291366004611c92565b610721565b61023f6102a4366004611b9b565b610747565b6102396102b7366004611c92565b6107ef565b6102396102ca366004611aa7565b61087b565b6102396102dd366004611c79565b610896565b61023f6102f0366004611c79565b6108ab565b610239610303366004611cef565b61094f565b61020e610316366004611c79565b61096e565b610239610329366004611a59565b6109f9565b61023961033c366004611a59565b610a2a565b61023f61034f366004611a59565b610a41565b610239610362366004611bc5565b610adb565b6101d1610375366004611c92565b6000918252600a602090815260408084206001600160a01b0393909316845291905290205460ff1690565b6101ee610bc0565b61023f600081565b6102396103be366004611b5f565b610bcf565b61023961025b366004611ae3565b6101ee6103df366004611c79565b610c9a565b6102396103f2366004611c92565b610d85565b6101d1610405366004611a74565b6001600160a01b03918216600090815260056020908152604080832093909416825291909152205460ff1690565b600061043e82610dab565b92915050565b60606000805461045390611ef6565b80601f016020809104026020016040519081016040528092919081815260200182805461047f90611ef6565b80156104cc5780601f106104a1576101008083540402835291602001916104cc565b820191906000526020600020905b8154815290600101906020018083116104af57829003601f168201915b5050505050905090565b6000818152600260205260408120546001600160a01b03166105655760405162461bcd60e51b815260206004820152602c60248201527f4552433732313a20617070726f76656420717565727920666f72206e6f6e657860448201527f697374656e7420746f6b656e000000000000000000000000000000000000000060648201526084015b60405180910390fd5b506000908152600460205260409020546001600160a01b031690565b600061058c8261096e565b9050806001600160a01b0316836001600160a01b031614156106165760405162461bcd60e51b815260206004820152602160248201527f4552433732313a20617070726f76616c20746f2063757272656e74206f776e6560448201527f7200000000000000000000000000000000000000000000000000000000000000606482015260840161055c565b336001600160a01b038216148061063257506106328133610405565b6106a45760405162461bcd60e51b815260206004820152603860248201527f4552433732313a20617070726f76652063616c6c6572206973206e6f74206f7760448201527f6e6572206e6f7220617070726f76656420666f7220616c6c0000000000000000606482015260840161055c565b6106ae8383610de9565b505050565b60405162461bcd60e51b815260206004820152602660248201527f436f6d6d756e6974792075736572204e4654206973206e6f6e2d7472616e736660448201527f657261626c650000000000000000000000000000000000000000000000000000606482015260840161055c565b6000828152600a602052604090206001015461073d8133610e64565b6106ae8383610ee4565b600061075283610a41565b82106107c65760405162461bcd60e51b815260206004820152602b60248201527f455243373231456e756d657261626c653a206f776e657220696e646578206f7560448201527f74206f6620626f756e6473000000000000000000000000000000000000000000606482015260840161055c565b506001600160a01b03919091166000908152600660209081526040808320938352929052205490565b6001600160a01b038116331461086d5760405162461bcd60e51b815260206004820152602f60248201527f416363657373436f6e74726f6c3a2063616e206f6e6c792072656e6f756e636560448201527f20726f6c657320666f722073656c660000000000000000000000000000000000606482015260840161055c565b6108778282610f86565b5050565b6106ae838383604051806020016040528060008152506106b3565b60006108a28133610e64565b61087782611009565b60006108b660085490565b821061092a5760405162461bcd60e51b815260206004820152602c60248201527f455243373231456e756d657261626c653a20676c6f62616c20696e646578206f60448201527f7574206f6620626f756e64730000000000000000000000000000000000000000606482015260840161055c565b6008828154811061093d5761093d611f78565b90600052602060002001549050919050565b600061095b8133610e64565b81516106ae90600c90602085019061194c565b6000818152600260205260408120546001600160a01b03168061043e5760405162461bcd60e51b815260206004820152602960248201527f4552433732313a206f776e657220717565727920666f72206e6f6e657869737460448201527f656e7420746f6b656e0000000000000000000000000000000000000000000000606482015260840161055c565b6000610a058133610e64565b610a13600b80546001019055565b6000610a1e600b5490565b90506106ae83826110bd565b6000610a368133610e64565b6108776000836110d7565b60006001600160a01b038216610abf5760405162461bcd60e51b815260206004820152602a60248201527f4552433732313a2062616c616e636520717565727920666f7220746865207a6560448201527f726f206164647265737300000000000000000000000000000000000000000000606482015260840161055c565b506001600160a01b031660009081526003602052604090205490565b6000610ae78133610e64565b60005b82518110156106ae5760006001600160a01b0316838281518110610b1057610b10611f78565b60200260200101516001600160a01b03161415610b6f5760405162461bcd60e51b815260206004820152601a60248201527f43616e27742061646420746865206e756c6c2061646472657373000000000000604482015260640161055c565b610b7d600b80546001019055565b6000610b88600b5490565b9050610bad848381518110610b9f57610b9f611f78565b6020026020010151826110bd565b5080610bb881611f31565b915050610aea565b60606001805461045390611ef6565b6001600160a01b038216331415610c285760405162461bcd60e51b815260206004820152601960248201527f4552433732313a20617070726f766520746f2063616c6c657200000000000000604482015260640161055c565b3360008181526005602090815260408083206001600160a01b03871680855290835292819020805460ff191686151590811790915590519081529192917f17307eab39ab6107e8899845ad3d59bd9653f200f220920489ca2b5937696c31910160405180910390a35050565b50505050565b6000818152600260205260409020546060906001600160a01b0316610d275760405162461bcd60e51b815260206004820152602f60248201527f4552433732314d657461646174613a2055524920717565727920666f72206e6f60448201527f6e6578697374656e7420746f6b656e0000000000000000000000000000000000606482015260840161055c565b6000610d316110e1565b905080516000141561043e5760405162461bcd60e51b815260206004820152601060248201527f4261736520555249206e6f742073657400000000000000000000000000000000604482015260640161055c565b6000828152600a6020526040902060010154610da18133610e64565b6106ae8383610f86565b60006001600160e01b031982167f7965db0b00000000000000000000000000000000000000000000000000000000148061043e575061043e826110f0565b6000818152600460205260409020805473ffffffffffffffffffffffffffffffffffffffff19166001600160a01b0384169081179091558190610e2b8261096e565b6001600160a01b03167f8c5be1e5ebec7d5bd14f71427d1e84f3dd0314c0f7b2291e5b200ac8c7c3b92560405160405180910390a45050565b6000828152600a602090815260408083206001600160a01b038516845290915290205460ff1661087757610ea2816001600160a01b0316601461112e565b610ead83602061112e565b604051602001610ebe929190611d64565b60408051601f198184030181529082905262461bcd60e51b825261055c91600401611e21565b6000828152600a602090815260408083206001600160a01b038516845290915290205460ff16610877576000828152600a602090815260408083206001600160a01b03851684529091529020805460ff19166001179055610f423390565b6001600160a01b0316816001600160a01b0316837f2f8788117e7eff1d82e926ec794901d17c78024a50270940304540a733656f0d60405160405180910390a45050565b6000828152600a602090815260408083206001600160a01b038516845290915290205460ff1615610877576000828152600a602090815260408083206001600160a01b0385168085529252808320805460ff1916905551339285917ff6391f5c32d9c69d2a47ea670b442974b53935d1edc7fd64eb21e047a839171b9190a45050565b60006110148261096e565b905061102281600084611316565b61102d600083610de9565b6001600160a01b0381166000908152600360205260408120805460019290611056908490611e9c565b9091555050600082815260026020526040808220805473ffffffffffffffffffffffffffffffffffffffff19169055518391906001600160a01b038416907fddf252ad1be2c89b69c2b068fc378daa952ba7f163c4a11628f55a4df523b3ef908390a45050565b610877828260405180602001604052806000815250611321565b6108778282610ee4565b6060600c805461045390611ef6565b60006001600160e01b031982167f780e9d6300000000000000000000000000000000000000000000000000000000148061043e575061043e826113aa565b6060600061113d836002611e7d565b611148906002611e65565b67ffffffffffffffff81111561116057611160611f8e565b6040519080825280601f01601f19166020018201604052801561118a576020820181803683370190505b5090507f3000000000000000000000000000000000000000000000000000000000000000816000815181106111c1576111c1611f78565b60200101906001600160f81b031916908160001a9053507f78000000000000000000000000000000000000000000000000000000000000008160018151811061120c5761120c611f78565b60200101906001600160f81b031916908160001a9053506000611230846002611e7d565b61123b906001611e65565b90505b60018111156112c0577f303132333435363738396162636465660000000000000000000000000000000085600f166010811061127c5761127c611f78565b1a60f81b82828151811061129257611292611f78565b60200101906001600160f81b031916908160001a90535060049490941c936112b981611edf565b905061123e565b50831561130f5760405162461bcd60e51b815260206004820181905260248201527f537472696e67733a20686578206c656e67746820696e73756666696369656e74604482015260640161055c565b9392505050565b6106ae838383611445565b61132b83836114fd565b6113386000848484611658565b6106ae5760405162461bcd60e51b815260206004820152603260248201527f4552433732313a207472616e7366657220746f206e6f6e20455243373231526560448201527f63656976657220696d706c656d656e7465720000000000000000000000000000606482015260840161055c565b60006001600160e01b031982167f80ac58cd00000000000000000000000000000000000000000000000000000000148061140d57506001600160e01b031982167f5b5e139f00000000000000000000000000000000000000000000000000000000145b8061043e57507f01ffc9a7000000000000000000000000000000000000000000000000000000006001600160e01b031983161461043e565b6001600160a01b0383166114a05761149b81600880546000838152600960205260408120829055600182018355919091527ff3f7a9fe364faab93b216da50a3214154f22a0a2b415b23a84c8169e8b636ee30155565b6114c3565b816001600160a01b0316836001600160a01b0316146114c3576114c383826117bc565b6001600160a01b0382166114da576106ae81611859565b826001600160a01b0316826001600160a01b0316146106ae576106ae8282611908565b6001600160a01b0382166115535760405162461bcd60e51b815260206004820181905260248201527f4552433732313a206d696e7420746f20746865207a65726f2061646472657373604482015260640161055c565b6000818152600260205260409020546001600160a01b0316156115b85760405162461bcd60e51b815260206004820152601c60248201527f4552433732313a20746f6b656e20616c7265616479206d696e74656400000000604482015260640161055c565b6115c460008383611316565b6001600160a01b03821660009081526003602052604081208054600192906115ed908490611e65565b9091555050600081815260026020526040808220805473ffffffffffffffffffffffffffffffffffffffff19166001600160a01b03861690811790915590518392907fddf252ad1be2c89b69c2b068fc378daa952ba7f163c4a11628f55a4df523b3ef908290a45050565b60006001600160a01b0384163b156117b057604051630a85bd0160e11b81526001600160a01b0385169063150b7a029061169c903390899088908890600401611de5565b602060405180830381600087803b1580156116b657600080fd5b505af19250505080156116e6575060408051601f3d908101601f191682019092526116e391810190611cd2565b60015b611796573d808015611714576040519150601f19603f3d011682016040523d82523d6000602084013e611719565b606091505b50805161178e5760405162461bcd60e51b815260206004820152603260248201527f4552433732313a207472616e7366657220746f206e6f6e20455243373231526560448201527f63656976657220696d706c656d656e7465720000000000000000000000000000606482015260840161055c565b805181602001fd5b6001600160e01b031916630a85bd0160e11b1490506117b4565b5060015b949350505050565b600060016117c984610a41565b6117d39190611e9c565b600083815260076020526040902054909150808214611826576001600160a01b03841660009081526006602090815260408083208584528252808320548484528184208190558352600790915290208190555b5060009182526007602090815260408084208490556001600160a01b039094168352600681528383209183525290812055565b60085460009061186b90600190611e9c565b6000838152600960205260408120546008805493945090928490811061189357611893611f78565b9060005260206000200154905080600883815481106118b4576118b4611f78565b60009182526020808320909101929092558281526009909152604080822084905585825281205560088054806118ec576118ec611f62565b6001900381819060005260206000200160009055905550505050565b600061191383610a41565b6001600160a01b039093166000908152600660209081526040808320868452825280832085905593825260079052919091209190915550565b82805461195890611ef6565b90600052602060002090601f01602090048101928261197a57600085556119c0565b82601f1061199357805160ff19168380011785556119c0565b828001600101855582156119c0579182015b828111156119c05782518255916020019190600101906119a5565b506119cc9291506119d0565b5090565b5b808211156119cc57600081556001016119d1565b600067ffffffffffffffff8311156119ff576119ff611f8e565b611a12601f8401601f1916602001611e34565b9050828152838383011115611a2657600080fd5b828260208301376000602084830101529392505050565b80356001600160a01b0381168114611a5457600080fd5b919050565b600060208284031215611a6b57600080fd5b61130f82611a3d565b60008060408385031215611a8757600080fd5b611a9083611a3d565b9150611a9e60208401611a3d565b90509250929050565b600080600060608486031215611abc57600080fd5b611ac584611a3d565b9250611ad360208501611a3d565b9150604084013590509250925092565b60008060008060808587031215611af957600080fd5b611b0285611a3d565b9350611b1060208601611a3d565b925060408501359150606085013567ffffffffffffffff811115611b3357600080fd5b8501601f81018713611b4457600080fd5b611b53878235602084016119e5565b91505092959194509250565b60008060408385031215611b7257600080fd5b611b7b83611a3d565b915060208301358015158114611b9057600080fd5b809150509250929050565b60008060408385031215611bae57600080fd5b611bb783611a3d565b946020939093013593505050565b60006020808385031215611bd857600080fd5b823567ffffffffffffffff80821115611bf057600080fd5b818501915085601f830112611c0457600080fd5b813581811115611c1657611c16611f8e565b8060051b9150611c27848301611e34565b8181528481019084860184860187018a1015611c4257600080fd5b600095505b83861015611c6c57611c5881611a3d565b835260019590950194918601918601611c47565b5098975050505050505050565b600060208284031215611c8b57600080fd5b5035919050565b60008060408385031215611ca557600080fd5b82359150611a9e60208401611a3d565b600060208284031215611cc757600080fd5b813561130f81611fa4565b600060208284031215611ce457600080fd5b815161130f81611fa4565b600060208284031215611d0157600080fd5b813567ffffffffffffffff811115611d1857600080fd5b8201601f81018413611d2957600080fd5b6117b4848235602084016119e5565b60008151808452611d50816020860160208601611eb3565b601f01601f19169290920160200192915050565b7f416363657373436f6e74726f6c3a206163636f756e7420000000000000000000815260008351611d9c816017850160208801611eb3565b7f206973206d697373696e6720726f6c65200000000000000000000000000000006017918401918201528351611dd9816028840160208801611eb3565b01602801949350505050565b60006001600160a01b03808716835280861660208401525083604083015260806060830152611e176080830184611d38565b9695505050505050565b60208152600061130f6020830184611d38565b604051601f8201601f1916810167ffffffffffffffff81118282101715611e5d57611e5d611f8e565b604052919050565b60008219821115611e7857611e78611f4c565b500190565b6000816000190483118215151615611e9757611e97611f4c565b500290565b600082821015611eae57611eae611f4c565b500390565b60005b83811015611ece578181015183820152602001611eb6565b83811115610c945750506000910152565b600081611eee57611eee611f4c565b506000190190565b600181811c90821680611f0a57607f821691505b60208210811415611f2b57634e487b7160e01b600052602260045260246000fd5b50919050565b6000600019821415611f4557611f45611f4c565b5060010190565b634e487b7160e01b600052601160045260246000fd5b634e487b7160e01b600052603160045260246000fd5b634e487b7160e01b600052603260045260246000fd5b634e487b7160e01b600052604160045260246000fd5b6001600160e01b031981168114611fba57600080fd5b5056fea2646970667358221220334a3dfe280c1aeff3e0d808ee34bb6dc5db87bcf6e46724665fdc1737ceddf464736f6c63430008070033",
  "linkReferences": {},
  "deployedLinkReferences": {}
}